:020000040000FA
:06000000020F92020583CD
:03002B00020C2E96
:03004B00020C079D
:030053000204B8EC
:03005B00020C167E
:03006300020C226A
:10008300020517010105030101FF0F10FEFFCC2D2F
:1000930000000000642D00000000FF000000FF00CE
:1000A300010020FD000206FFFF08351900000001D2
:1000B300F022F622000000000000FC2202230000D0
:1000C3000000000026232C233223382300000000E5
:1000D300000000000000000010202020202020202D
:1000E300202020202020202020010114007E140045
:1000F3001400080401010100066B80012A8101013B
:1001030004008319000000E8030000FFFF501AE811
:1001130003000064006400B801A0BB0D00A0BB0D88
:10012300000202000800000502070401051E020583
:100133001E020A0A0102080803B80B02803E0102EC
:10014300FEFFE8030A050001FFFF010A1401E012A4
:100153000FA2700418181822120FB1700D74FFF655
:100163001819F61819F61819F622E7548066F612CC
:100173001060700F12105770F014F608F608F608A6
:10018300F680D1121057700CF608F608768008E650
:10019300447F80EC120E5C700C120E4860BFE65474
:1001A30080F6E480BB120E48700519191980A5E882
:1001B30069700C763F18768018F618F6E8F922E68F
:1001C300CDC0E018ECC0E0E633CD33CDD313F6E772
:1001D30019FCE7191933CC33C3947F400ECD9D50DE
:1001E3002408E65480F6E418F6800FF4043D145016
:1001F3001408E6447FF6187680E418F618F6D0E083
:10020300FCD0E0FD22CCD313CCFD18E4C6CBC0E078
:1002130018E4C6CAC0E00808ED08C633E613F618AA
:10022300E433C675F003C3CA97CA09CB97CB199CAD
:1002330040047D08802EBD00030202FB16B6FF05B5
:100243000606081618C3CA33CACB33CB33CA27CA28
:1002530009CB37CB193CC37D08803E187D0820E7C6
:100263005CC633C6CA33CACB33CB33DDF1D5F0EB2F
:1002730030E77BCA97CA09CB974ACB199C406F4B8F
:100283007025E620E0218066187D08C3CA97CA0955
:10029300CB97CB199CD3C633C6CA33CACB33CB3324
:1002A30050C9DDE7D5F0E1D3E4C636C608C636C685
:1002B30008C636C608C636C61818188031C3CA978A
:1002C300CA09CB97CB199CB34097C633C6CA33CA66
:1002D300CB33CB33DD34D5F02EC6A2E0C640C8CA3B
:1002E30027CA09CB37194A70BECB3CB480B908087A
:1002F300E63308E633601F181818D0E0FAD0E0FBA5
:10030300D0E0FCD0E0FD22187D08CA27CA09CB370C
:10031300CB193CD3808013F618E4B67F11F618B6D8
:10032300FF0EF618C60470D20808768080CAF61845
:10033300F618F680C500120FA2604F120FB16012BB
:10034300E7548066F6120E457011121057703B0980
:100353000909F4F618F618F618F622120E59701554
:1003630012106008080860EAE6447FF618768018E1
:10037300E4F618F62212106060161210577012E499
:10038300F608F608F608E65480F60909091818185D
:1003930022EAC0E0EBC0E0ECC0E0EDC0E0E687F0AD
:1003A300A4FBACF008E687F0A42CFCE435F0FA18C3
:1003B30009E687F0A42C4B60027401CA35F0FCE413
:1003C30033FB09E687F0D2F7A42CCB35F0FC1908F0
:1003D300E687F0A42BCC35F0FBE433FD0819E68760
:1003E300F0D2E7A42C4ACB35F0CD3400FC09E687E4
:1003F300F0D2E7A42DCC35F0FDE433FA0918E687F3
:10040300F0D2F7A42CCD35F0CA3400FC08E687F00F
:10041300D2E7D2F7A42ACC35F07A7E20E70B0ACBB9
:1004230033CBCD33CDCC33CC33CB3350147004ED3D
:1004330030E00ED2F1E4CD3DCDCC3CCC3B5005DADF
:1004430005C2F1EB547FC63308E63392F0FBE73382
:1004530009E733C39A502D2B70190C0D4C4D7015B1
:100463001806E608C333700D20F10AA2F013F6E470
:1004730018800B4024E4F630F002768018F618F664
:1004830018F68024D33B14501074FFA2F013F6180F
:100493007680E418F618F6800FA2F013F618E63308
:1004A30003F618ECF618EDF6D0E0FDD0E0FCD0E052
:1004B300FBD0E0FA22C0E074F1120829A2AFE433C2
:1004C300F509D2AF85A708AFA1EF5508FE74105EFA
:1004D3006006121C7E75A1EF74085E6008121C840E
:1004E30075A1F78024EFA2E092F0E508A2E082F084
:1004F3005017906198E0F89005F4E0C398A2D26594
:10050300D0335002E8F075A1FEE509A2E092AF7F77
:10051300020208E5C0E074F2120829A2AFE433FE38
:10052300D2AF9061A4E0F8759B00E5915854086040
:10053300087591F7121CCC8023E59158541060087C
:100543007591EF121CD28014E591A2E092F0E8A21B
:10055300E082F05007E0C2E0F0121E1C9061A3E0BD
:10056300F8E5E9585404600E121DF275E9FB906139
:1005730093E0A2E640F2EEA2E092AF7F010208E52B
:10058300C0E074F2120829A2AFE433FED2AF906147
:10059300A5E0F8E5BF585404600675BFFB121E348E
:1005A30080D4C3E498F8E499F91205E68026C3E4FD
:1005B3009AFAE49BFBE920E7E91205E6E498F8E4FC
:1005C30099F922C3E498F8E499F91205E6E498F856
:1005D300E499F9C3E49AFAE49BFB22EB20E7CFE921
:1005E30020E7E0B90010BB0008E88AF084F8AAF01D
:1005F30022E4FBC8FA22EB70227B10C833C8C9334C
:10060300C9335007C39AC3DBF280069A50012ADB31
:10061300EAC833F4C8C933F4C9FA2275F008E4C848
:1006230033C8C933C933C99AC99B5004C92AC93BC2
:10063300D5F0ECFBC833F4C8E4C9FA2212067F20D4
:10064300F01430E72B74FFFCFBFA747F8022E4FC88
:10065300FBFA7480801AB48008BC00F2BB00EF8000
:100663000F50EBF9E4C39AFAE49BFBE49CFCE49996
:10067300C6CC18C6CB18C6CA18C6F922E4C9C60820
:10068300CAC608CBC6D3330308CCC63392F0C3948F
:100693007F402E94184019C9B90704CACBCC225005
:1006A30025C309CA33CACB33CBCC33CC33D9F422D9
:1006B300F4600DC9CCC313CB13CBCA13CAD9F6CC80
:1006C30022E4FCFBFA2214FCFBFA22080808EAC025
:1006D300E0EBC0E086F0E7A4FA180986F0E7A42A65
:1006E300FA180986F0E7A42AFA180986F0E7A42A7B
:1006F300FA1986F0E7A4FBE5F02AFA190886F0E771
:10070300A42BFBE5F03AFA190886F0E7A42BFBE5E6
:10071300F03AFA18180986F0E7A4C5F02BFBE43A7F
:10072300FA1908E7C5F0C6A426F6E5F03BFBE43A60
:10073300FA1886F0E7A4F6E5F00826F6E43B08F697
:10074300E43A08F6D0E0FBD0E0FA22E4CFC0E0E4DC
:10075300CEC0E0E4CDC0E0E4CCC0E075F020E626F6
:10076300F608E633F608E633F608E633F618181803
:10077300EC33FCED33FDEE33FEEF33FFC3EC9709AF
:10078300ED9709EE9709EF97191919400FFFEC97A9
:10079300FC09ED97FD09EE97FE191906D5F0BFEC9C
:1007A300F709EDF709EEF709EFF7191919D0E0FC8E
:1007B300D0E0FDD0E0FED0E0FF222518C582C0E0E6
:1007C300E51934FFC583C0E0E518C3958224F8100A
:1007D300AF08858319858218800885831985821857
:1007E300D2AFCEF0A3E520F0A37808E608F0A3DEAD
:1007F300FAEFF0A3E58124FAF8E608F0A3E608F09F
:10080300A3E608F0A30808E608F0A3E608F0A3159A
:10081300811581D0E0FED0E0F8158115811581E8BE
:10082300C0E0EEC0E022C0D02518C582C0E0E519C3
:1008330034FFC583C0E0E518C3958224F310AF08E5
:100843008583198582188008858319858218D2AF1C
:10085300C8F0A3E9F0A3EAF0A3EBF0A37908E70952
:10086300F0A3D8FAECF0A3EDF0A3EEF0A3EFF0A31E
:10087300D0E0F0A3D0E0F0A3D0E0F0A3E520F0A314
:10088300E5F0F0A322E9799EC608CAC608CBC608DC
:10089300CCC6C370207996CACBCC7019798ECBCCD9
:1008A30070137986CC700EF9802ACA33CACB33CB46
:1008B300CC33CC331930E7F2CCCBCA3350147004A9
:1008C300EA30E00DE4CA3ACACB3BCBCC3CCC500275
:1008D30009C3E913C6CC182313C6CB18C6CA18C656
:1008E300F922851983851882E0C0E0A3E0F9A3E02B
:1008F300FAA3E0FBA37808E0F608A3DFFAE0FCA381
:10090300E0FDA3E0FEA3E0FFA3E0C0E0A3E0C0E0BE
:10091300A3E0F5D0A3E0F520A3E0A3F5F010AF0822
:100923008583198582188008858319858218D2AF3B
:10093300D082D083D0E0F8D0E032120F51181818CB
:1009430012074E120F4019191922120F40191919C3
:10095300080808E618181820E7E012074E120F518E
:1009630018181822090909E719191920E7DC0808DA
:1009730008E618181820E70302074E120F5118183B
:100983001812074E120F51181818120F401919197F
:1009930022121042B900030209D3E490030178F54F
:1009A30079188002F0A3D8FCD9FA7AF57B1A900063
:1009B3008678CD79018015E493A3AD82AE838A82D4
:1009C3008B83F0A3AA82AB838D828E83D8E9D9E788
:1009D3007582E37583AC7405120CF47582387583E4
:1009E300297400120CF4E4730375F0108E1A8F1B34
:1009F30085821F85831E851882851983E0CEA3E037
:100A0300CF851F82851E83EBC9EAC8EDCBECCAC331
:100A1300E833C8E933C9EA33CAEB33CBC3EA9EF5FB
:100A23001DEB9FF51CB35004AB1CAA1DEC33CCED9E
:100A330033CDD5F0DAAE1AAF1B22D083D082ECC00F
:100A4300E0EDC0E0E493A3FCE493A3FDED4C600D63
:100A5300120B15EC24FFFCED34FFFD80EFE493A3B0
:100A6300FCE493A3FDED4C600D120BB2EC24FFFCF0
:100A7300ED34FFFD80EFD0E0FDD0E0FCE493A3C0B4
:100A8300E0E493C0E022851983851882E0A3FEE0A9
:100A9300A3F5207808E0A3F608DFFAE0A3FFE0A3BC
:100AA300C0E0E0A3C0E0E0A3C0E0E0A3C0E0E0A3B7
:100AB300C0E010AF088582188583198008858218E5
:100AC300858319D2AFD083D082020CFAD083D0822F
:100AD300E9C0E0E493A3C386F0C5F095F0F908E418
:100AE30093A386F0C5F095F0700BE493A3C39940EC
:100AF30005E9048002A3E475F002A42582F582E5EA
:100B0300F03583F583D0E0F9E493A3C0E0E493C028
:100B1300E022C0E0C3E49396087401939618400F53
:100B2300E49366700808740193661870007019A343
:100B3300A3C3E49396087401939618A3A3400DD01E
:100B4300E0D0E0D0E0020A79A3A3A3A3A3A3D0E05B
:100B5300227404800474028000CCC0E0EDC0E0E5A0
:100B630018C39CCCAD1950011D10AF068C188D19FC
:100B730080068C188D19D2AF120C76D0E0FDD0E030
:100B8300FC2274028000CCC0E0EDC0E0E518C39CF9
:100B9300CCAD1950011D10AF068C188D1980068C31
:100BA300188D19D2AF120C54D0E0FDD0E0FC22C056
:100BB300E0C0F088F0E49366700808740193661847
:100BC3007000A8F0A3A3700BD0F0D0E0D0E0D0E089
:100BD300020A79A3A3D0F0D0E022D083D082CCC084
:100BE300E0E493A36006120C971470FAE493A360F5
:100BF30006120DDC1470FAD0E0FCE493A3C0E0E429
:100C030093C0E022C0E074F2120829121C067F018F
:100C13000208E5C0E074F2120829121C0C80EFC030
:100C2300E074F2120829121C1280E3C0E0C0D0E87D
:100C3300C0E0E9C0E0A9A8D2AFC2C7E9A2E7E433A4
:100C4300F8E9A2E792AFD0E0F9D0E0F8D0D0D0E055
:100C530032CAC0E0E493A3C582CCC582C583CDC5A7
:100C630083F0A3C582CCC582C583CDC583DAE5D025
:100C7300E0CA22CAC0E0E0A3C582CCC582C583CD49
:100C8300C583F0A3C582CCC582C583CDC583DAE60F
:100C9300D0E0CA22C0E0E493A3D39C5010E493A312
:100CA300C39C400AD0E0D0E0D0E0020BFAA3A3A398
:100CB300D0E0227009080808226016181818C6C365
:100CC30033C608C633C608C633C608C633C6D5E01E
:100CD300EA22C008C3E096F50808A3E09642080894
:100CE300A3E096420808A3E09645087001D3D00814
:100CF30022C09FF59FE473D09F22D083D082C09FF0
:100D0300E493C0E0740193C0E0740293F59F22253D
:100D130018F58210AF08F518400C15198008F5185E
:100D230040021519D2AF851983227404800A740313
:100D33008006740280027401C0E0F404120D12D024
:100D4300E0120FED2200C0D0251810AF08F518509F
:100D53000C05198008F51850020519D2AFD0D0221E
:100D6300BB0102E722C082C08389828A83BB00035E
:100D7300E08002E493D083D082226016080808C67C
:100D8300C313C618C613C618C613C618C613C6D5CA
:100D9300E0EA222518F8E43519F9222518FAE43592
:100DA30019FB222518FCE43519FD22C3E0C696F68B
:100DB30008A3E0C696F608A3E0C696F608A3E0C625
:100DC30096F622251810AF08F518400C151980085F
:100DD300F51840021519D2AF22C0E0E493A36C705A
:100DE30009D0E0D0E0D0E0020BFAA3A3D0E022E0E8
:100DF30066701008A3E066700A08A3E06670040832
:100E0300A3E06622E76670100809E766700A08091E
:100E1300E76670040809E76622C3E09608A3E09634
:100E230008A3E09608A3E096A2D265D03322C3E0DC
:100E330096F008A3E096F008A3E096F008A3E096E6
:100E4300F022181818E60846087009E62608700507
:100E5300E633F4220822191919E70947097009E74B
:100E630027097005E733F4220922C3E697F6080938
:100E7300E697F60809E697F60809E697F622C3E42B
:100E830093960874019396087402939608740393D7
:100E93009622E026F008A3E036F008A3E036F00837
:100EA300A3E036F022E627F60809E637F60809E656
:100EB30037F60809E637F622E493F608740193F649
:100EC30008740293F608740393F622700422600DEB
:100ED30018C6C333C608C633C6D5E0F41822E05695
:100EE300F008A3E056F008A3E056F008A3E056F09C
:100EF30022E657F60809E657F60809E657F6080901
:100F0300E657F622E056F608A3E056F608A3E056A5
:100F1300F608A3E056F622E026F608A3E036F60824
:100F2300A3E036F608A3E036F622E647F60809E61C
:100F330047F60809E647F60809E647F622E4C397A9
:100F4300F709E497F709E497F709E497F722E4C36D
:100F530096F608E496F608E496F608E496F622C6B2
:100F6300F4C608C6F4C608C6F4C608C6F4C622C347
:100F7300E7960809E7960809E7960809E79622C362
:100F8300E09608A3E09608A3E09608A3E0962275EE
:100F9300D00075813F75180175190300020994E6A5
:100FA300084608C3134608336002E633F422E70910
:100FB3004709C3134709336002E733F422600C087F
:100FC300C6C313C618C613C6D5E0F422E6F008A3B9
:100FD300E6F008A3E6F008A3E6F022E0F608A3E0B3
:100FE300F608A3E0F608A3E0F622CAC0E0E6F0A301
:100FF30008DAFAD0E0FA22E0FCA3E0FDA3E0FEA3C6
:10100300E0FF22EAF0A3EBF0A3ECF0A3EDF022E083
:10101300FAA3E0FBA3E0FCA3E0FD22E8F0A3E9F0E0
:10102300A3EAF0A3EBF022ECF0A3EDF0A3EEF0A320
:10103300EFF022E0F8A3E0F9A3E0FAA3E0FB22E556
:10104300C754F84401F5C77901222518F582E43520
:1010530019F58322E72719471947194722E6261866
:10106300461846184622C2AF75D69F0200002212C8
:101073000CFDAEA303120CFDCAA303120CFD3BA48B
:1010830003120CFD87A403120CFDD0A403120CFD64
:101093000EA503120CFD8FA503120CFD36A6031239
:1010A3000CFD05A803120CFD6AA803120CFD98A9F8
:1010B30003120CFDBEA903120CFD06AB03120CFDBB
:1010C30040AE03120CFD3EB003120CFD09B2031235
:1010D3000CFDA2B203120CFDA3B403120CFD58B510
:1010E30003120CFD91B503120CFDF7B503120CFDB1
:1010F30001B603120CFD2AB803120CFD69B90312E1
:101103000CFDC0B903120CFD6BBA03120CFD1BBC22
:1011130003120CFD68BD03120CFD88BD03120CFD08
:10112300DDBD03120CFDDEBE03120CFD06BF031270
:101133000CFD65BF03120CFD5DC003120CFDD4C092
:1011430003120CFDE7C103120CFD55C203120CFD83
:1011530054C303120CFDAEC503120CFDD7C5031215
:101163000CFD3DC703120CFDBFC803120CFD16C9CD
:1011730003120CFDC4C903120CFD69CA03120CFD52
:10118300C2CA03120CFD80CB03120CFD12CC031256
:101193000CFD71CC03120CFDB3CC03120CFDE4CC9B
:1011A30003120CFD3BCE03120CFD008002120CFD5A
:1011B300328002120CFD6B8002120CFD2982021296
:1011C3000CFDFF8202120CFD5E8302120CFD74847F
:1011D30002120CFDC08402120CFD4E8702120CFD9C
:1011E300288A02120CFD6F8B02120CFD078C02126F
:1011F3000CFD138C02120CFD5C8C02120CFD9E8DF7
:1012030002120CFD948E02120CFDBE8E02120CFD16
:10121300148F02120CFD6D8F02120CFDE08F02126F
:101223000CFD169202120CFD989302120CFD83948E
:1012330002120CFDCD9502120CFD059802120CFD55
:10124300029B02120CFD119B02120CFDA59B0212C4
:101253000CFD509C02120CFD939C02120CFDDC9CB5
:1012630002120CFD2C9D02120CFD909D02120CFD2E
:10127300029E02120CFD1E9E02120CFD199F021209
:101283000CFD96A102120CFDC8A202120CFDA0A334
:1012930002120CFD22A402120CFD57A802120CFD2F
:1012A30086A802120CFDE1A802120CFD14A9021279
:1012B3000CFD8CA902120CFDBFA902120CFD20AA81
:1012C30002120CFD70AA02120CFD3DAB02120CFDC2
:1012D300F6AB02120CFDBAAC02120CFD34AF0212D3
:1012E3000CFD96B002120CFDE7B102120CFD0BB31C
:1012F30002120CFD0EB302120CFD3DB302120CFDE3
:1013030035B502120CFDF4B502120CFD23B6021220
:101313000CFD41B702120CFD09B802120CFDC7B94E
:1013230002120CFDF9B902120CFD3BBA02120CFDBC
:101333003ABB02120CFDADBB02120CFDD6BD02126C
:101343000CFD35BE02120CFD89BE02120CFDB8C0A5
:1013530002120CFD9BC102120CFD57C202120CFDBE
:101363006BC202120CFD7FC202120CFDACC2021250
:101373000CFDDCC202120CFD97C402120CFDA9C5C0
:1013830002120CFDFEC502120CFD47C602120CFD33
:101393006EC602120CFD36C702120CFDDCC7021228
:1013A3000CFD62C902120CFDA9C902120CFD1BCA75
:1013B30002120CFD70CB02120CFD19CC02120CFDB3
:1013C3004DCC02120CFD65CC02120CFD08CD0212AD
:1013D3000CFD84CF02120CFD2CD102120CFD4AD15C
:1013E30002120CFD68D102120CFD34D202120CFD64
:1013F30082D502120CFD308101120CFD68810112AD
:101403000CFD688601120CFDAE8601120CFDE4870B
:1014130001120CFD498801120CFDBE8901120CFD5D
:10142300C88C01120CFDF18D01120CFD0498011200
:101433000CFD949801120CFD7E9B01120CFD8B9CFC
:1014430001120CFDEE9C01120CFD369E01120CFDE7
:10145300A4A001120CFD36A201120CFDC3A20112BD
:101463000CFDE2A301120CFD6FA401120CFD79A483
:1014730001120CFDA1A401120CFD41A501120CFDEA
:101483002CA601120CFDF9A601120CFD16A70112E0
:101493000CFD3FA701120CFD6CA701120CFDB3A9B3
:1014A30001120CFD82AA01120CFDC1AA01120CFD4E
:1014B30043AB01120CFDE4AB01120CFD16AC01129F
:1014C3000CFD5DAC01120CFD90AC01120CFDD4AC13
:1014D30001120CFD23AD01120CFD28AD01120CFD10
:1014E30084AD01120CFDC8AD01120CFDA2AE0112B8
:1014F3000CFD07AF01120CFD6DAF01120CFDE8AF3F
:1015030001120CFD50B301120CFD53B401120CFD7A
:10151300D1B501120CFDE7B801120CFD89B9011216
:101523000CFDD2BB01120CFD8DBC01120CFDCCBC19
:1015330001120CFDA4BE01120CFDC1BE01120CFD73
:10154300CABE01120CFDD3BE01120CFDDEBE011298
:101553000CFDFDBE01120CFDA1C001120CFDFEC06D
:1015630001120CFD08C101120CFD20C101120CFD7A
:1015730031C201120CFD7AC201120CFD34C30112F7
:101583000CFD4BC401120CFD20C501120CFD67C6F6
:1015930001120CFD6BC701120CFD64C801120CFD96
:1015A3007CC801120CFDB3C801120CFDBDC80112A9
:1015B3000CFDC8C801120CFDE6C801120CFD2EC9B2
:1015C30001120CFD8CC901120CFDB3C901120CFDF3
:1015D300C5C901120CFD7ACA01120CFDB3CA01126E
:1015E3000CFDD5CB01120CFD28CC01120CFD0ECD48
:1015F30001120CFD35CD01120CFDA5CD01120CFD20
:1016030021CE01120CFD7DCF01120CFDA4D00112DD
:101613000CFD66D101120CFD34D201120CFDF2D285
:1016230001120CFDDAD301120CFD84D401120CFD5E
:10163300ECD401120CFDA1D501120CFDFDD5011254
:101643000CFD55D601120CFD1BD701120CFD3ED724
:1016530001120CFDF9D701120CFD1BD801120CFD70
:101663007CD801120CFDACDA01120CFDA5DB0112D2
:101673000CFD51DC01120CFD72DE01120CFDBBDE10
:1016830001120CFD06DF01120CFD62DF01120CFDDD
:10169300C0DF01120CFDE4DF01120CFD08E00112B2
:1016A3000CFD3DE001120CFD65E001120CFDAAE00A
:1016B30001120CFDFEE001120CFD57E101120CFDBD
:1016C30051E201120CFDEFE301120CFD34E40112AF
:1016D3000CFD5DE401120CFDE6E401120CFD59E57D
:1016E30001120CFD67E501120CFD8BE501120CFDE7
:1016F300E1E501120CFDFCE501120CFDB7E6011258
:101703000CFDE3E601120CFD26E701120CFD89E74F
:1017130001120CFD97E901120CFDC3E901120CFD46
:101723007EEA01120CFD62EB01120CFDF6EB0112D5
:101733000CFD39D004120CFD71D004120CFD92D0B3
:1017430004120CFDD4D004120CFD38D104120CFD8C
:1017530042D104120CFD52D104120CFD89D10412A2
:101763000CFD32D504120CFDFAD604120CFDDED8A2
:1017730004120CFD80D904120CFD0ADA04120CFDCC
:10178300D13100120CFD7A3200120CFD59330012D4
:101793000CFD653400120CFD853400120CFDA735D9
:1017A30000120CFD573700120CFDC43700120CFD5C
:1017B300953800120CFD9B3900120CFD133A0012F0
:1017C3000CFD4E3A00120CFDA73A00120CFDE23A52
:1017D30000120CFD2B3B00120CFDBF3B00120CFD55
:1017E300553C00120CFD2A3D00120CFDFD3D00127C
:1017F3000CFD8B3E00120CFDB13E00120CFDDE3ED3
:1018030000120CFD0F3F00120CFDDC3F00120CFD1B
:10181300EC3F00120CFD3F4000120CFD4C40001247
:101823000CFD594000120CFD624000120CFDC64035
:1018330000120CFD244100120CFD6F4100120CFD3F
:101843008A4100120CFDB14100120CFDCE41001281
:101853000CFDDA4100120CFD6B4300120CFD8443B6
:1018630000120CFD004400120CFD134400120CFD89
:10187300234400120CFDC74400120CFD3346001232
:101883000CFD464700120CFDE64700120CFDF04725
:1018930000120CFD6F4800120CFD804800120CFD75
:1018A300BF4800120CFDED4800120CFDBA490012AE
:1018B3000CFD114A00120CFD4A4A00120CFDA04A0D
:1018C30000120CFDBE4A00120CFD0C4B00120CFD65
:1018D300D74B00120CFD254C00120CFD724C00126C
:1018E3000CFDF54C00120CFD1F4D00120CFD554D67
:1018F30000120CFD644D00120CFDC34D00120CFDD3
:101903003B4E00120CFD7C4E00120CFDCC4E00121F
:101913000CFDF74E00120CFD114F00120CFD2B4F66
:1019230000120CFD005000120CFD0A5000120CFDB9
:10193300455000120CFD555000120CFDA65000122C
:101943000CFDBA5000120CFDDC5100120CFDF151DC
:1019530000120CFD845200120CFDF85200120CFD13
:101963009D5300120CFDA85300120CFD0B550012E1
:101973000CFD275500120CFD735500120CFDE155AB
:1019830000120CFD135600120CFD2D5600120CFD17
:101993008D5600120CFD2C5700120CFD77570012C8
:1019A3000CFDCA5900120CFD625A00120CFDD95AE3
:1019B30000120CFD365D00120CFD4E5D00120CFD95
:1019C300515D00120CFD5D5D00120CFD715D001296
:1019D3000CFD795D00120CFDB05D00120CFDA45EE0
:1019E30000120CFD2E5F00120CFDB05F00120CFD07
:1019F300306000120CFD076100120CFD296100121A
:101A03000CFDC26100120CFD1F6200120CFD22626C
:101A130000120CFD916200120CFDDD6300120CFD3F
:101A2300F06400120CFD7B6500120CFD8E66001243
:101A33000CFD556700120CFD866700120CFDAC67A8
:101A430000120CFDB56700120CFDE46700120CFDDB
:101A5300946800120CFD446900120CFDB769001272
:101A63000CFD5A6A00120CFDCD6A00120CFD0C6BC2
:101A730000120CFD556B00120CFD71C504120CFD18
:101A8300DEC504120CFD2AC604120CFD7CC604122A
:101A93000CFDFCC604120CFDF9C804120CFD0CCBA2
:101AA30004120CFD45CE04120CFD74CE04120CFD81
:101AB30092CE04120CFDFCCE04120CFD24CF0412B2
:101AC3000CFD57CF04120CFD8CCF04120CFDEECF8E
:101AD30004120CFDABED03120CFD27EE03120CFDFB
:101AE30055EE03120CFD9AEE03120CFDFBEF0312ED
:101AF3000CFD17F003120CFD4DF003120CFDC6F0A4
:101B030003120CFD14F103120CFDA4F103120CFDDE
:101B13007CF203120CFDCDF203120CFD32F303121F
:101B23000CFDA5F303120CFDE9F303120CFD41F4C4
:101B330003120CFD63F403120CFDF3F403120CFD0A
:101B430084F503120CFDBCF503120CFDE5F503123D
:101B53000CFD26F603120CFDC7F703120CFDA9F8C2
:101B630003120CFD85F903120CFD4AB905120CFD95
:101B73005BB905120CFDFC7F00120CFDE9FF04129A
:101B83000CFDB2B605120CFDC2B605120CFDD4B69F
:101B930005120CFD3AB705120CFD0FB405120CFD2E
:101BA30093B405120CFDF9B405120CFDC2B705126E
:101BB3000CFDD3B705120CFDEDB705120CFDF8B7FC
:101BC30005120CFDE8FF03120CFDF8FF03120CFDD8
:101BD30012B905120CFDA59205120CFDB89305125E
:101BE3000CFD019405120CFD7E9405120CFDA49BC3
:101BF30003120CFD239505120CFD4D9505120CFDEA
:101C0300979505120CFDD79505120CFD3696051216
:101C13000CFD759605120CFD5FFA03120CFD8BFA91
:101C230003120CFD21FD03120CFD61FD03120CFDDB
:101C33009DFD03120CFDB1FD03120CFDCAFD031241
:101C43000CFDBBFE03120CFD6DFF03120CFD81FFA7
:101C530003120CFDD2AE05120CFDF6AE05120CFDFF
:101C63000FAF05120CFD4DAF05120CFD65A303125A
:101C73000CFDB6AF05120CFD22B005120CFD25B00C
:101C830005120CFD2FB005120CFD3CB005120CFD26
:101C930006A805120CFD29A805120CFD74A805124F
:101CA3000CFD92A805120CFDADA805120CFD13A99D
:101CB30005120CFD1FA905120CFD7CA905120CFDD4
:101CC300A0A905120CFD66AA05120CFD73AA051244
:101CD3000CFD84AA05120CFD3DB705120CFD55B78A
:101CE30005120CFD81B705120CFD738505120CFD61
:101CF300D78605120CFDE58605120CFDF986051243
:101D03000CFD168705120CFD2B8705120CFD3E8773
:101D130005120CFDC08705120CFD258805120CFD6C
:101D2300BB8805120CFD948905120CFDA4890512CC
:101D33000CFDB38905120CFD19B605120CFD3DB659
:101D430005120CFD65B605120CFD8DB605120CFDD2
:101D5300B2AA05120CFDD9AA05120CFDF7AA0512A9
:101D63000CFD6CAB05120CFD34A505120CFD4DA545
:101D730005120CFD64A505120CFD6DA505120CFDE5
:101D83008BA505120CFD95A505120CFD9FA505124B
:101D93000CFDB2A505120CFD38A605120CFDADA66F
:101DA30005120CFDDBA605120CFD2CA705120CFD7C
:101DB30078A705120CFD93A705120CFD9DA705122C
:101DC3000CFDAEA705120CFDF1A705120CFD9DFF3E
:101DD30003120CFDB9DA04120CFDE5DA04120CFD52
:101DE30008DB04120CFD1BDB04120CFD36DB0412B2
:101DF3000CFD9ADB04120CFDC8DB04120CFDD8DFCA
:101E030004120CFD2DE104120CFD5FE104120CFD24
:101E1300CAE104120CFD31E304120CFD59E3041270
:101E23000CFD6EE304120CFD7EE304120CFDBEE315
:101E330004120CFD00E404120CFD10E404120CFD6A
:101E430046B005120CFD56B005120CFD7AB0051212
:101E53000CFDA3B005120CFDCDB005120CFDF1B0C5
:101E630005120CFD08B105120CFD36B105120CFD6F
:101E730059B105120CFDB87F00120CFD399E0512F5
:101E83000CFD499E05120CFD679F05120CFD9B9FDF
:101E930005120CFDBD9F05120CFDE59F05120CFDFF
:101EA300FE9F05120CFD3AA005120CFD9CA0051225
:101EB3000CFDE1A005120CFD26A105120CFD53A19A
:101EC30005120CFD8BA105120CFDD7B205120CFDFA
:101ED300F7B205120CFDDCB305120CFDDFB30512DE
:101EE3000CFD52FF02120CFD88FF02120CFDA4FF31
:101EF30002120CFDE6FF02120CFDF6FF02120CFDAE
:101F030035ED04120CFD6FED04120CFDD8ED041237
:101F13000CFDF7ED04120CFD99EE04120CFDA2EE7C
:101F230004120CFDF3EE04120CFD1CEF04120CFD65
:101F330029EF04120CFD9AEF04120CFD28F0041291
:101F43000CFD76F004120CFDACF004120CFD0DF147
:101F530004120CFD35F104120CFDACF104120CFD5E
:101F630008F204120CFD4BF204120CFD88F2041269
:101F73000CFD9AF204120CFDACF204120CFDCBF230
:101F830004120CFDD4F204120CFDA2F304120CFD96
:101F9300EEF304120CFD2CF404120CFD91B10512A6
:101FA3000CFD86FD01120CFDBCFD01120CFD0BFEA8
:101FB30001120CFD64FF01120CFD8A6B00120CFD73
:101FC300BB6C00120CFDF76C00120CFDB16E00121D
:101FD3000CFDDB6E00120CFD547100120CFD9471AC
:101FE30000120CFD297300120CFDC87300120CFDC6
:101FF300207400120CFDA67400120CFDDE74001296
:102003000CFD207500120CFD917600120CFD117869
:1020130000120CFD527A00120CFD807A00120CFDA6
:10202300AC7A00120CFDB57A00120CFD0B7B00128A
:102033000CFD9B7B00120CFDD97E00120CFD5B7F17
:1020430000120CFD75B905120CFD8BB905120CFDC0
:1020530030B805120CFD8B8E05120CFDA08E0512F7
:102063000CFD538F05120CFD938F05120CFDAC8FE5
:1020730005120CFDDF8F05120CFD2C9005120CFDD3
:10208300609005120CFDA29005120CFD98920512AA
:102093000CFD12B505120CFD71B505120CFDAFB5A3
:1020A30005120CFDF0B505120CFDA0D502120CFDB6
:1020B300ACD502120CFD0ED602120CFD18D602127C
:1020C3000CFDABD602120CFDE7D602120CFDA2D713
:1020D30002120CFDB5D702120CFD1CD802120CFD26
:1020E300ACD802120CFDF0D802120CFD70D902120A
:1020F3000CFD21DB02120CFDF1DC02120CFD59DE9A
:1021030002120CFDFBDE02120CFD92E302120CFD27
:1021130091E402120CFD1EE502120CFD43E50212CE
:102123000CFDDDE502120CFDFBE502120CFD18E6C9
:1021330002120CFD8CE602120CFDA8E602120CFD45
:10214300D5E602120CFD56E802120CFD77E80212E6
:102153000CFDF8E802120CFD9EE902120CFDE5E904
:1021630002120CFD55EA02120CFDEFEA02120CFDFD
:1021730067EB02120CFDD2EB02120CFD71EC0212A2
:102183000CFDDEEC02120CFD19ED02120CFD7CEDD0
:1021930002120CFDD3EE02120CFD66EF02120CFDCF
:1021A3001DF002120CFDA1F102120CFD3AF2021213
:1021B3000CFDACF202120CFDA9F402120CFD55F653
:1021C30002120CFD82F602120CFD64F802120CFDE1
:1021D30053FA02120CFD59FB02120CFD8F9A0512E1
:1021E3000CFD019B05120CFD0F9B05120CFD209CA1
:1021F30005120CFD008005120CFD2C8005120CFD50
:10220300958005120CFD118205120CFD2D8205121D
:102213000CFD2F8405120CFD728405120CFD8484C1
:1022230005120CFD8E8405120CFDE88405120CFDCD
:1022330097CE03120CFD32CF03120CFD9DCF031278
:102243000CFD9BD003120CFD1AD103120CFD5FD2BF
:1022530003120CFD16D303120CFDC8D403120CFD9C
:10226300D4D503120CFDF1D503120CFDF5D60312E0
:102273000CFD9ED803120CFD48D903120CFD97DC0C
:1022830003120CFD9EDE03120CFD26DF03120CFD70
:1022930080DF03120CFDD3DF03120CFD5EE003129B
:1022A3000CFDE6E003120CFD22E103120CFD05E830
:1022B30003120CFD52EA03120CFDB8EB03120CFDE2
:1022C30092EC03120CFDCEB805120CFD40E404128F
:1022D3000CFD1BE504120CFDFEE604120CFDCFE71A
:1022E30004120CFD49E804120CFD62E804120CFD13
:1022F300BFE804120CFDF7E804120CFD17E9041201
:102303000CFD3CE904120CFD81E904120CFD1DEAED
:1023130004120CFD69EA04120CFDEAEA04120CFD36
:102323006DEB04120CFD18EC04120CFD3FEC0412CF
:102333000CFD7DEC04120CFDD8EC04120CFDF2EC48
:1023430004120CFD008004120CFD588004120CFDD5
:10235300E88004120CFD4D8204120CFD2A83041242
:102363000CFDA58304120CFDF68304120CFD678497
:1023730004120CFDAB8404120CFDC38404120CFD87
:10238300848704120CFD1A8804120CFD5188041270
:102393000CFD9A8804120CFDA08A04120CFDF08A2D
:1023A30004120CFDCA8B04120CFD038C04120CFDE9
:1023B300228C04120CFD6D8C04120CFD8D8C041206
:1023C3000CFD508D04120CFD468E04120CFDA18EE3
:1023D30004120CFDE18E04120CFD189004120CFD86
:1023E300949204120CFDBE9204120CFD4593041248
:1023F3000CFD6A9304120CFDEB9304120CFDD094B4
:1024030004120CFD1D9504120CFD819504120CFDA4
:10241300359604120CFD389604120CFD42960412F4
:102423000CFD4C9604120CFD4F9604120CFDC19644
:1024330004120CFDFA9604120CFD0D9704120CFD08
:102443003A9704120CFD619704120CFD8597041250
:102453000CFDC09704120CFD339804120CFD369842
:1024630004120CFD779804120CFDA09804120CFDC5
:10247300C09804120CFD099904120CFD4099041232
:102483000CFD409A04120CFD6F9B04120CFD8E9BF5
:1024930004120CFD80B805120CFD98B805120CFD52
:1024A300E48905120CFD228A05120CFDBB8A051274
:1024B3000CFDC68B05120CFD0E8E05120CFD58F497
:1024C30004120CFDA7F404120CFD65F604120CFDB6
:1024D30020F804120CFD5EF804120CFD53F90412EB
:1024E3000CFD5EFA04120CFD80FA04120CFDCAFA0C
:1024F30004120CFD4BFB04120CFDC19B04120CFDDA
:10250300E49B04120CFDE79C04120CFD399D04129C
:102513000CFD9B9D04120CFDED9D04120CFD359EDC
:1025230004120CFD9E9E04120CFD239F04120CFD4D
:102533009F9F04120CFDE59F04120CFDEAA30412F5
:102543000CFD4EA604120CFD00A704120CFD60A79F
:1025530004120CFD8DA704120CFD53A904120CFDEB
:102563006FAB04120CFD5BAC04120CFDE2AC041265
:102573000CFD19AE04120CFDA2AE04120CFDE7AF64
:1025830004120CFD26B004120CFDDAB004120CFD8B
:10259300B7EC01120CFD57ED01120CFDC4ED011255
:1025A3000CFD58EE01120CFDACEF01120CFD0BF00B
:1025B30001120CFDB9F001120CFD7CF301120CFDAC
:1025C30094F401120CFD0AF501120CFDECF6011254
:1025D3000CFD8EF701120CFD55F801120CFD8BF961
:1025E30001120CFD99FA01120CFD26FB01120CFDE0
:1025F30048FC01120CFD87B104120CFDF2B1041268
:102603000CFD3AB204120CFD7EB204120CFDD0B2E2
:1026130004120CFD2DB304120CFD68B304120CFD5F
:1026230007B404120CFD78B404120CFDF0B40412C8
:102633000CFD08B604120CFD30B604120CFD3CB7B9
:1026430004120CFD4DB704120CFD65B704120CFD0A
:1026530093B804120CFDC1B804120CFD8FB9041217
:102663000CFDB3B904120CFDD1B904120CFDEBB986
:1026730004120CFD0DBA04120CFDE7BA04120CFD92
:1026830041BB04120CFDB8BC04120CFD1ABD0412AC
:102693000CFD39BD04120CFD81BE04120CFD00BFFC
:1026A30004120CFD37BF04120CFD7BBF04120CFD9A
:1026B30075C004120CFD82C104120CFD7AC204120F
:1026C3000CFD88C204120CFD73C304120CFD15C467
:1026D30004120CFD85C404120CFD9AC404120CFDF3
:1026E3003BC504120CFDDFA105120CFD9AA30512D4
:1026F3000CFD59A405120CFDAEA405120CFDB596F4
:1027030005120CFDD39605120CFD179705120CFD4F
:102713003D9705120CFD649705120CFD7C9705127D
:102723000CFD949705120CFDAC9705120CFD4F9808
:1027330005120CFD919805120CFDB39905120CFDC1
:10274300BC9905120CFDC59905120CFDCE99051215
:102753000CFDD89905120CFD7BFB04120CFD6FFFD9
:1027630004120CFD7DFF04120CFD82FF04120CFD0C
:102773005FAD05120CFDCBFF01120CFD689B03122C
:102783000CFD4D9A03120CFDCE9903120CFDA0987B
:1027930003120CFD909803120CFD6E9703120CFDAF
:1027A3008C9503120CFD839503120CFD7695031291
:1027B3000CFD799403120CFDF3A203120CFDCFA2BE
:1027C30003120CFD069403120CFDEA9303120CFD95
:1027D300ABA203120CFDA0A203120CFDCC930312B7
:1027E3000CFDA79303120CFDB79203120CFD52923A
:1027F30003120CFDBB9103120CFD499103120CFD56
:10280300389103120CFD549003120CFD328F031206
:102813000CFDDD8E03120CFD0A8E03120CFD448D9C
:1028230003120CFD088D03120CFD9B8C03120CFD8F
:10283300938C03120CFD088C03120CFD988B03126E
:102843000CFDE98A03120CFDDE8A03120CFDCF8A0C
:1028530003120CFD3BA203120CFDAE8A03120CFD06
:1028630030A203120CFD08A203120CFDFDA10312FA
:102873000CFD90A103120CFD86A103120CFD6DA1AA
:1028830003120CFD63A103120CFD59A103120CFDED
:102893007A8A03120CFD4E8A03120CFD208903125F
:1028A3000CFD4FA103120CFD148703120CFDE586EA
:1028B30003120CFDC98603120CFD598603120CFD8D
:1028C3003BA103120CFD8C8503120CFD83AF051293
:1028D3000CFD108503120CFD688403120CFDC183EB
:1028E30003120CFD638303120CFD388303120CFDEA
:1028F300E98203120CFDAB8203120CFD89820312E1
:102903000CFD668203120CFD4D8203120CFD058241
:1029130003120CFD4F8103120CFDC38003120CFD47
:10292300578003120CFD7E9D03120CFD00800312E1
:102933000CFDA6940500000080FB000003002001AD
:102943002C810000000020012E81000004004201C0
:102953005A80000005004201388000000600420151
:1029630049800000070020012F810000100042036E
:102973004A1B00001100200351190000120010032C
:102983005B1B030000002103521903000100200117
:102993005419060000001001551908000000200119
:1029A3005C1B0800010021015619080010002103D7
:1029B3005D1B0800110020035F1B080012002103A8
:1029C300601B080013002103621B0800140020038E
:1029D3005819050B000021010000050B010021011E
:1029E3000000050B000123010000050B0101230179
:1029F3000000050B020123010000050B0301230165
:102A03000000050B040121010000050B0501210154
:102A13000000050B060121010000050B0701210140
:102A23000000050B080121010000050B090121012C
:102A33000000050B0A0121010000050B0B01210118
:102A43000000050B0C0121010000050B0D01210104
:102A53000000050B0E0121010000050B0F012101F0
:102A63000000050B100121010000050B11012101DC
:102A73000000050B120121010000050B13012101C8
:102A83000000050B140121010000050B15012101B4
:102A93000000050B160121010000050B17012101A0
:102AA3000000050B180121010000050B190121018C
:102AB3000000050B1A0121010000050B1B01210178
:102AC3000000050B1C0120010000050B1D0128015E
:102AD30000008F000100EB1A87000100BC1B3500CA
:102AE3000400811B25000200851B26000200871BB2
:102AF30027000200891B28000100931B2900010005
:102B0300941B84000400951B86000100991B2A0076
:102B130001009A1B2B0001009B1B2C0001009F1B33
:102B23002D000800D21A2E000100A01B2F00010067
:102B3300A11B30000100A21B31000100A31B3200C6
:102B43000100DA1A33000100DB1A34000100A41B70
:102B530036000100DC1A38000100A51B3900010012
:102B63009E1B83000200BA1B63000100E81A640085
:102B730001009C1B650001009D1B6D000100E91A0B
:102B830071000800CA1A66000100B91B4300010066
:102B9300AA1B44000200AB1B45000100AD1B46000D
:102BA3000200AE1B47000800E01A48000100B01BFA
:102BB3004B000100B11B04000100BD1BA10001007B
:102BC300C01B37000100BF1B88000100BE1B3C0077
:102BD3000100DD1A3D000100A61B49000200B21BE3
:102BE30067000100EA1A4D000200B41B4E00010009
:102BF300B61B4F000200B71B3E000100DF1A510055
:102C03000100A71B52000100A81B53000100A91BD0
:102C130054000100DE1A00000000000000013636F7
:102C23000101000102010001030100010401060684
:102C330005020000070100340801000F0904010127
:102C43000D0100FF0E08000017020000190100FF2C
:102C53001A0100011B0100FE1C0100081D020000F7
:102C63001F01000120010001210200002301000FC8
:102C7300240200002601000127010008280200FFAA
:102C83002A0100072B0102402C0100002D01000145
:102C93002E0100012F0100FF30010B1D3108000040
:102CA3003A0100083B01000F3C0100013D0100FF18
:102CB3003E04000042040000460400004A040000F1
:102CC3004E04000052040000560400005A040000A1
:102CD3000000210100010021020000012366000120
:102CE3000123670002012368000301236900040133
:102CF300216A000501216B000601212C0107012136
:102D03002D010801212E010901212F010A01213082
:102D1300010B012131010C0121C8000D0121C90062
:102D23000E0121CA000F0121CB00100121CC00119B
:102D33000121CD00120121CE001301213201140122
:102D4300213301150121CF0016012134011701217F
:102D5300D000180121D100190121D2001A0121D379
:102D630000010371030103010301030103010322B2
:102D73000302030103100300030003000300030025
:102D830003000300034203000324030603000300BC
:102D9300030403120325032303250323030403046A
:102DA30003000300030003440300030003230300A1
:102DB30003650321003503810300030503000300BA
:102DC30003000300032503230303007100300160A4
:102DD30000110070003102200350048000100061D4
:102DE30000000014006300730072006200430000DF
:102DF30000130006000000000004001200000000A1
:102E0300000000000004000400370037003C0244C7
:102E13000000000000000000006500000035008194
:102E230000000005000000830000000101710101A2
:102E330001010111010101310101010101800110B1
:102E43000161013B001400630173017201620143DC
:102E5300010001130106013D0135000401120100C7
:102E63000100010001000104010401330133013CAD
:102E73000144013201360000010001650100013502
:102E83000081010001050182018301000103027138
:102E9300023001600211027002010202020202808A
:102EA30002100261023A004100630273027202627D
:102EB300024302000213023800000200020402125D
:102EC300020002000200020002040204023700377B
:102ED300003C0244020002390000020002650200C5
:102EE300023502810200020502820283020002030C
:102EF3000471040204600411047004020402040156
:102F030004020410046104000414046304730472CF
:102F130004620443040004130406040004000404CC
:102F230004120400040004000400045104640000BB
:102F330004000400044404000400040004000465C5
:102F430004000435048104640005040004830400C0
:102F53000436000100060000000F0000000000001E
:102F63000000000000000003FFFF00000403FFFF58
:102F73000000FFFF0FF4010005C40403200001005B
:102F8300000B000000000000000003010F00000020
:102F9300000000000000000000000000000000002E
:102FA3000000000000000000000000000000008896
:102FB30021C4218E21C8209421CA219421D6219A8B
:102FC30021C8209421CA21A021C820A621C820AC51
:102FD30021C820B221C820B821C820BE21C82000A2
:102FE30000000000000000000000000000000000DE
:102FF30000000000000000000000000000000000CE
:1030030000000000000000000000000A00000002B1
:103013000000000400000008000000100000002071
:1030230000000040000000800000000001000000DC
:10303300020000000400000008000000100000006F
:10304300200000004000000000B425130054251F99
:10305300005A251F8060250100B4250200182503AE
:10306300001E250400242505002A250600362536E2
:10307300004825FFFF0000013214065C14085614B3
:103083000B7414105C11023814054A14073E140C17
:103093001A140D2614640C28FF000007ECFDFDFD37
:1030A300ECDCDCCCBCACAC9C9C8C7C7C6C6C5C5C4D
:1030B3005C4C4C3C3C2C2C1C1C03EAF5E5D5D5C5DB
:1030C300B5A595958585757565655555454535351D
:1030D300252515150500160F00000B150B02000220
:1030E300220F3300000E01030507090B0D0F000229
:1030F3000406080A0C0D5A6967426565416C6C69E0
:10310300616E63653039303017181921301B1D1F6C
:103113003000034A49434E181A25050200393D3F42
:10312300373C3C362C442D303016181920231A1CFA
:103133001E3000011916181616182303000C0E0270
:103143000B040B0A0708000F020402010101010925
:103153000200BE040AE80300007F000000E8030E3B
:10316300000000030809000A0C28FF1E1E0C0508B6
:10317300090404001003010C050833150410E004CE
:10318300123A01A2E792AF22E4F0A3F0A3F022A344
:1031930012318BA3F0227F0C020A89E0F508E4F5D3
:1031A30009F50AF50B227401F090060CE0640F2276
:1031B3007409120D487F04020A89A3A3E024F5C30E
:1031C30094132290062C125CF17A147B0022C082A5
:1031D300C08390041174E0F0A37417F0A374F2F0A9
:1031E300A37417F090041574C8F0A37417F0A374B4
:1031F300C2F0A37417F0A374FEF0A37417F0A374C2
:1032030004F0A37418F0A374F8F0A37417F0A37474
:10321300B0F0A37417F090042174D4F0A37417F0E2
:10322300A374DAF0A37417F0A374CEF0A37417F0A9
:10323300A3740AF0A37418F090043212527E60064D
:103243001254E8121FB490042F1249AA7408F0A371
:10325300E4F0A3F09004D2F0900434F07C0BFDF979
:103263007A357B04121F0C7C0B7D0079007A407B3E
:1032730004121F0C0249B374F71207BD74F7120D41
:10328300C6EAFEEBFF1247D174051233477403F00D
:10329300EE2402FAE43F123321242DFCE43FFD8C9B
:1032A300828D8312345F1233306008123BA974FF9E
:1032B300F0A3F0EE242BE43F1C1CFD8C828D83A332
:1032C300E0C0E08A828B831247E2D0E01233308879
:1032D300828983124FDA2403125ABB1220A4740882
:1032E30012104D7403F0900621120B587402120D44
:1032F300A67903EEFAEFFB12199C7402120D48E94A
:10330300F5087007EEFAEFFB121882A90874090298
:103313003BB9F582E43FF583126726124FCFFB8A50
:10332300828B8312333FE8F0A3E9F0EE22125D0FA4
:1033330012333FE8F0A3E912628BE02212342A8AA7
:10334300828B8322F0A3E4F012334F22EE240DF597
:1033530082E43FF5832274F11207BDEAFEEBFF8C92
:10336300088D09890A1234348A828B8312342A74B1
:103373000F12104D12344DE824FF18E934FFF98879
:10338300828983E50A12343F90062612343C900664
:103393002512343C741112104D12344DEE2404FCEA
:1033A300E43FFD880B8A828B83E0F50C8C828D834E
:1033B300E0250CC3950B125D0BE8F0A3E912473E21
:1033C300A3A3A3A3A3A3A3A3E064037008124A9A2D
:1033D300F0A3E4800312374012334A7409F0750CEA
:1033E30035750D04750E00780C120D311237341239
:1033F3001F007403120D48750CFF750DFF780C1236
:103403000D35AC08AD097903EEFAEFFB12199C7484
:1034130002120D48E9F5087007EEFAEFFB12188265
:10342300A9087F07020A89E024FFF8A3E034FFF923
:1034330022EE2402FAE43FFB2212345F12344322C9
:10344300F0E824FF18E934FFF922E0F50CA3123465
:103453005F12344388828983E50CF022E0888289F5
:103463008322C082C083900451E0C3940840047453
:10347300078001E08A828B83F033333354F8F902F7
:1034830049B374F01207BDEAFEEBFF890C8C0E8D75
:103493000F750A00A2AFE433F50BC2AF90044B8063
:1034A3003F12356D503712357E64037030EE24F9C8
:1034B300FEEF34FFFF850882850983A3A3E024057B
:1034C300FCA3E03400FDEEFAEFFB1220A4EE24FF90
:1034D3001EEF34FFFF7410250AF50A150C12470B73
:1034E300126722E50C6006E508450970B4E50BA2F6
:1034F300E092AFA2AFE433F50BC2AF90044B802C44
:103503002402FAE43509FB8A828B83125CFA2406CF
:10351300F582E438F58312358B8A828B83123573F7
:10352300A3A312358B050A150C12470B1247206013
:103533002212357E640270F112356DE50840C11226
:10354300386EA2E550E3850E82850F837401F0E5A2
:103553000C70D6E50BA2E092AF8E828F83E50AF062
:10356300EE24FFFAEF34FFFB8035123879A2E6220E
:10357300123577221260EFA3A3A32285088285095F
:10358300831260E912572322E08E828F83F0EE24A8
:10359300FF1EEF34FFFF22121A687404120D487FD6
:1035A30008020A8974EC1207BD74F5120DC689135B
:1035B3008A128B0F851882851983E4F004120D9EFD
:1035C300121792E9F890060BE0292434F508FA7BE8
:1035D30000121F1E8A0A8B0BAE0AAF0BEE4F70034D
:1035E300023728EE2402F50AE43FF50BA808EE287B
:1035F300F8E43FF9850A82850B831233292404F505
:1036030010E43FF511851082F583E4F090060BE09A
:10361300FCF8C3E498F895E0F9850A82850B83E00A
:1036230028F508A3E039F5099006091259B3750E78
:1036330000780C120D317D00AA08AB09121F00742B
:1036430003120D48AC18AD19740112104DE0F9E5E1
:103653000824FFFAE50934FFFB1217988A828B834B
:10366300E4F0EA24FFF508EB34FFF509E50FC45451
:10367300F0F99004D3E0C4333354C0F8900605E066
:10368300A2E0E43313134849440F123748E512C448
:1036930054F04513850882850983F0A808850A82BA
:1036A300850B83E0FA851082851183E02AC398F0A5
:1036B300850A82850B83E8F0A3E509F012374012EF
:1036C300334AE4F0740A12104DE4F07508407509AA
:1036D30004F50A7808120D31123734121F007403EF
:1036E300120D48851882851983E06009EE240E12B5
:1036F30048674408F0121984E9F9E4F508F50978F4
:1037030008120D357404120DA6EEFAEFFB12199C84
:103713007402120D48E97006EEFAEFFB800BEEFA25
:10372300EFFB121F247A007B00740B120D48023149
:10373300997C0B7D00EE2418FAE43FFB221247D557
:10374300E4F0A322E085088285098312375222F030
:103753001259872274F31207BD8A0A8B0BA2AFE4B6
:1037630033F50CC2AF75080075090090044B802C2B
:103773001239955024850A82850B83A3A3126B4FBC
:103783008E828F83A3A31254EB12198AE9600A1263
:1037930037BBC2E6F08E088F0912398A123C437098
:1037A300CFE50845096006123875D2E6F0E50CA2AC
:1037B300E092AF7F05020A891237BF221259A0E0B7
:1037C3002274F01207BDEAFEEBFF8C0C8D0D750E13
:1037D30000A2AFE433F50FC2AF750800750900907E
:1037E300044B8020850A08850B09123875D2E4F052
:1037F300E50812386ED2E7F0E50A24FBF582E50B03
:1038030034FFF583E0F50AA3E0F50BE50A450B6009
:1038130043E50A1245F6350BF583E0A2E750D98557
:103823000A82850B83A3A3120B58AC0CAD0DEEFAE1
:10383300EFFB1219907402120D48E960BBE50845CD
:103843000960A1E508240D1238816401700612385D
:103853008AD2E4F0E50FA2E092AFE50845096006DD
:1038630012187C750E01A90E0235A21246201238D9
:10387300842212387922E508241112388122F58234
:10388300E43509F583E0228508828509831260E91E
:10389300E02274F21207BD74FE120DC6750C00759A
:1038A3000D00851882851983E4F0A3F0A2AF33F5E8
:1038B3000AC2AF90044BE0FEA3E0FF8035EE24FB89
:1038C300F582EF34FF126720780C120D35EEFCEF12
:1038D300FD7A4B7B04121F547402120D48EEFCEF69
:1038E300FDAA18AB19121F42AE08AF09900451E0AC
:1038F30014F0EE4F6027123995501DEE240BF8E4B7
:103903003FF988828983E024FFF0A3E034FFF08845
:1039130082898312527E60A51239868099E50AA2B4
:10392300E092AF900451E0603190060CE0640F60C8
:10393300069004D2E070237A297B04121A749080D3
:10394300DE120B547A297B04121A687404120D4890
:10395300800874F0124BD1121870AA18AB19121FF9
:10396300488A0A8B0BAE0AAF0BEE4F60131217A4F3
:103973001237BBA2E28E828F83A350D674E980D420
:10398300023C4B8E0C8F0DEE24FBF582EF34FFF5DA
:1039930083221237BFA2E72274F71207BDEAFEEBB8
:1039A300FF1217A41247DF1209E9E9640190062800
:1039B300700AE02401F8A3E034008004E0F8A3E0F7
:1039C300F9124E2D1251D6900451E0702190060C3D
:1039D300E0640F70197A297B04121A749080DE1246
:1039E3000B547A297B04121A687404120D48A9A88F
:1039F300C2AF900451E004123A01A2E7800DF0E94E
:103A0300A2E7E433F8E922E508A2E092AF024C6DA5
:103A130074F71207BDEAFEEBFF123A48F01217A43F
:103A2300EEFCEFFD7A4B7B04121F4EA9A8C2AF90A8
:103A3300045112318190060CE0640F70057908126D
:103A4300193C024C6D1237BFC2E42274F71207BD52
:103A530074EA120DC6EAFEEBFF900605E0604085AE
:103A630018828519837401F012104DE4123B201261
:103A7300104DAA82AB831220A48E828F83123890BA
:103A8300C0E0740A12104DD0E0125D20740B1210C6
:103A93004DAA82AB831219B4AA18AB191227587412
:103AA30016023BB974F71207BDEAFEEBFF12178645
:103AB300E9F974DC69601E74DD69601974E4696096
:103AC3001474F369600F74DE69600A74DF6960055A
:103AD30074DB697007EEFAEFFB121942024C6D7446
:103AE300F71207BD74EB120DC6EAFEEBFF851882D1
:103AF3008519837406123B2012104DAA82AB8312E0
:103B030020A4125D25740A12104DAA82AB831219E8
:103B1300B4AA18AB191227587415023BB9F0EE2456
:103B230013FCE43FFD74022274F71207BD74F7120D
:103B33000DC6EAFEEBFFEE242D12486760651243C3
:103B4300F8AA18AB191220A4740812104D7403F0CC
:103B5300900621120B58123BA9120B58900634E021
:103B6300F97404120DA6EEFAEFFB12178C7404120B
:103B73000D48E9F974DC69602374DD69601E74E43F
:103B830069601974F369601474DE69600F74DF6926
:103B9300600A74E869600574DB697007EEFAEFFB8D
:103BA300121942023310EE123BAE22242BF582E4AB
:103BB3003FF583227403120D48024C6D74F2120711
:103BC300BD8A088B09750C00750D00750AE7A2AF55
:103BD300E433F50BC2AF90044B8003123986123CD9
:103BE30043603512399550F3124864640170ECEE6A
:103BF300242FF582E43F123DF2E06870DE780C1268
:103C03000D35EEFCEFFD7A4B7B04121F5474021248
:103C13000D48900451E014F0E50BA2E092AFEE4F93
:103C23006013EEFAEFFB1217A479F0EEFAEFFB1232
:103C33001942750A00A90AAA08AB09121942800D94
:103C4300E0FEA3E0FFEE4F227402120D487F06024E
:103C53000A8974F41207BD74F7120DC6EAFEEBFF6E
:103C63008E828F83A3E064F37003023CFF8E828F06
:103C730083A3E064DF7003023CFF8E828F83A3E0A3
:103C830064E860788E828F83A3E064DB606E121732
:103C9300E6E9F508705EEE240E1248676056123DA1
:103CA3000912182EEA4B604C740812104D123D1382
:103CB300120B587508FF7509FF7808120D358E82AF
:103CC3008F83A3A3A3A3A3A3A3A3E0F97404120D57
:103CD300A612178C7404120D48E9F50874F36508ED
:103CE300601274DF6508600C74E86508600674DBB5
:103CF3006508700F8E828F83A3E508F0EEFAEFFB61
:103D03001217F20231B3EE240FFAE43FFB790922D2
:103D130074021264E874FFF0A3123D2022123D24C2
:103D230022124FE3A3A32274F51207BD8A088B095D
:103D33007E008A828B83A3A3A3A3A3A31231BD40D6
:103D4300027EE88A828B83A3A3A3A3A3A3A3A3A333
:103D5300A3E0C3941040047EE880138A828B83A37C
:103D6300A3A3A3A3A3A3A3A3A3E0640F600A900444
:103D7300AFE0540870027EE8EA240BF582E43509CB
:103D8300123DF2A3A3A3A3A3A3A3A3E0C398500C40
:103D9300EA240B123881640F60027EE8900625E066
:103DA300F47003A3E0F470027EEC7A237B00121F0D
:103DB300AE9004321254FB90043212527E60298575
:103DC3000882850983A3A3A982AA8389088A09751E
:103DD3000A007808120D317C237D001254E8121F6B
:103DE300007403120D4880027E1AEEF9026689F50B
:103DF30083E0F88A828B83A3A32274F51207BDEABA
:103E0300FEEBFF8E828F83A3A3A3A3A3A3A3A3E0AD
:103E130090060C1263CB9006271263B1900607122B
:103E230063D09004D3F0F9121D7A9004D3E06018A4
:103E3300EE2404FAE43FFB7950121D62EE2406FAE5
:103E4300E43FFB79E1121D629004D21231A96004B0
:103E53007401800274009004341263B7120D317C34
:103E63000B7D007A357B04121F007403120D48EE9C
:103E73002418F508E43FF5097808120D317C0B7D11
:103E8300007A407B0402668174F71207BDEAFEEBF9
:103E9300FF8E828F83A3E070061254E81217EC8E14
:103EA300828F83742C124BD112194E024C6D74F70E
:103EB3001207BDEAFEEBFF90043212527E600D1230
:103EC30054E8900432E4F0A3F0121FB48E828F837F
:103ED3007408124BD1122758024C6D74F61207BDA9
:103EE3009004D2E06013900434E0700D123EFF1290
:103EF300179EEA4B600312188202602B900607E0BC
:103F0300FB900627E0FA90060CE0F92274F41207FE
:103F1300BD74E7120DC6EAFEEBFF750B018E828FAF
:103F230083A3A3A3A3A3A3A3E0A2E25068EE242B3D
:103F3300F582E43F126B4D123FCD1217AAE970557B
:103F43009080A6E064017005750B008048123FD590
:103F5300120D317C0B7D007411120D9E121F007423
:103F630003120D48121984E9FA740E120D9688088B
:103F730089097808120D357508307509007808121B
:103F83000D35123BA9120B58125CC179011219A20B
:103F93007406120D488518828519837410123B200C
:103FA30012104DAA82AB83122098123BA9125CED2A
:103FB300740B12104D1251D6740D12104DE50B12E5
:103FC3004A4412275874190231B5EE2413FAE43F18
:103FD300FB22EE24081263BF22C082C0839004D365
:103FE300E060031219F60249B3C082C0839004CA89
:103FF3007411F0A37404F0A37415F0A37404F0A374
:104003007421F0A37404F0901B0874F2F0A3742ECF
:10401300F09004B47480F0A37417F090045674B64F
:10402300F0A37417F090045874BCF0A37417F090C5
:1040330004AFE044028001E4F00249B3C082C083CC
:10404300EAFCEBFD790302504FC082C083EAFCEB2C
:10405300FD790502504FC082C08379080261BCC05C
:1040630082C08374FE120DC690045E746AF0A3745A
:1040730018F09004607464F0A37418F0800D7A4B08
:104083007B04121F48124A3A12197290044B1252BF
:104093007E70EB90044D12527E600F7A4D7B0412BA
:1040A3001F48124A3A12197280E990044BE4F0A3B4
:1040B300F090045112318C740280027411120D4875
:1040C3000249B374F61207BDE9FF741F29F582E4B0
:1040D3003431F583E493FEFA7B00121F1EEA4B6032
:1040E30011EA2E1251CC8A828B83A3A3A3A3E4F0FB
:1040F300802C7A027B00121F1EEA4B601D74092F6D
:10410300F582E43431F583E4938A828B83F0A374DC
:104113001AF09004AAE0F9121F2A7A007B000260C9
:104123002BE9FC740629F8EAA2E0501EE875F00AB0
:1041330084E5F0F96014740A28C399F8E9C3940577
:104143004004740A28F8740B28F8ECC39413400451
:104153007A1480027A06EA2879002409F8500109C2
:104163007A0A7B001205DEE8F9020CFAC082C083EA
:104173009004AFE05402600A12275EE960047901FB
:10418300800279000249B3C082C0839004AFE05437
:10419300026016900451E0700C12527B600BE0C871
:1041A30012471850047901800279000249B3C08292
:1041B300C0839080A3E0F8900453E0C398500512A5
:1041C3001F1E80047A007B000249B3C082C08312A1
:1041D300197279000249B374F71207BD74FE120D08
:1041E300C6851882851983EAF0A3EB124349A3A37A
:1041F300A3A3A3E0600A14606024FE60690242CABC
:1042030090060CE0640F6018121948E970128518C3
:10421300828519831254EB90045A1247E21209E97A
:10422300900634E0C0E0851882851983124FADD023
:10423300E012434974141264E4126B4F7A4D7B0409
:10424300121F42A8A8C2AF900453E004125501798B
:104253002012193C7402023BB98518828519831216
:1042630060F1741580D085188285198312432CA3BD
:10427300A3E06053851882851983E02402F8A3E044
:104283003400F988828983126922E0C0E0851882AC
:10429300851983E0FCA3E0CC2406F582E43CF58396
:1042A300D0E0125D2D888289831254FB85188285A4
:1042B30019831246148518828519836013124331BA
:1042C30060051243394043AA18AB1912197280844E
:1042D30012433160F2124339501C124728FA8518F1
:1042E30082851983124333F8744A1251C73431F566
:1042F30083E4936A601485188285198312433164B9
:104303000870C4124728640870BD1247281412436A
:1043130051240AC0E08518828519831247E2D0E050
:1043230012435104024239E0F8A3124FFA22E0F893
:10433300A3E012435822851882851983125CFE126A
:104343004359C3940A22124363F58388822212439A
:104353006312435822C82406F582E438F583E02229
:104363001264E8E0F8A3E022C082C08390046212E2
:10437300527E60081260F21209E980027900024954
:10438300B374F71207BDEAFEEBFF12334F7401F06B
:10439300EE2430F582E43FF583125A5B123329246D
:1043A30032124867C0E0EE2413F582E43FF583D070
:1043B300E0F0EE2433124867C0E0EE2414F582E403
:1043C3003FF583D0E0F0EE242CF582E43FF5831231
:1043D3000B581243F8EE242E124867F912199C74F5
:1043E30002120D48E9F5087007EEFAEFFB12188286
:1043F300A908024C6DEE2423FCE43FFD22C082C0D9
:1044030083121948E960047920800279010249B3D3
:10441300C082C083EA1245F61244B7D2E002403BA1
:10442300C082C0831244B1640170111244BC400CB9
:104433008A828B83A3E0F9121942806FEA24101257
:1044430044B4A2E650128A828B83A3E0F990045C01
:104453001247E21209E980531244B16401700D124C
:1044630044BC50088A828B83743080368A828B8363
:10447300A3E0641B8A828B83700474228024A3E0EC
:10448300700D1244B1F8742A1251C73431800B12E3
:1044930044B1F874091251C73431F583E4938A8225
:1044A3008B83F09004AAE0F9121F2A0249B3EA248D
:1044B3000DF582E43BF583E022EA1246203BF583C7
:1044C300E0A2E32274F71207BDE9FE12527B7003E8
:1044D3000245EDEE6011741B6E7013E0C81245F0D7
:1044E300640570030245B81260E1E40245BC74E957
:1044F3006E706212460C700B122764E96005124657
:1045030026606279EE121CE490045412460990046A
:1045130054603B124629900454700B12460914F060
:10452300121E9A0245ED124614C2E7124734124591
:10453300F06403700C125CF71245F612435ED2E28C
:10454300F079ED121CE41245FC1209E98075126042
:10455300E474E9806474E16E703E122764E9605587
:10456300124626705090062EE0C0E0125CF724122B
:10457300F582E438F583D0E0F090061DE0C0E090CA
:10458300045412432A12432AD0E0F090061DE0049B
:10459300F07901121E828052741C6E7018900454BC
:1045A3001254EB9004641247E21209E9900454E4B4
:1045B300F0A3F080351260E1EEF09004541254EB56
:1045C300121870125CF7125CC9E0548060109006F8
:1045D30034E0F9121D9E900633E0F9121D92900407
:1045E30054E4F0A3F0791012193C024C6D240D121F
:1045F300435B222411F582E4229004541254EF9079
:1046030004581260EB22E0F8A3E0C8241212435BC3
:1046130022E0F8A3E0C812462012435E222410F5DC
:1046230082E422900454125CFE125CCDE054042216
:1046330074F41207BD750A00750B00A2AFE433FFD3
:10464300C2AF12527B60030246F01247DF1209E940
:10465300E94410F890044B800985080A85090B1278
:10466300470B12472070030246F0123875586870E2
:10467300E8780A120D35AC08AD097A4B7B04121F9A
:10468300547402120D48900454E508F0A3E509128E
:104693004734124718405D900452E014F0EFA2E053
:1046A30092AF900454E0240EF8A3E03400F9880894
:1046B30089098882F5831254EB90045412472EF92A
:1046C300121834E990044FF012473CE054809004F0
:1046D300546026125CFA241312435BF9121D9E12D6
:1046E3005CF7241412435BF9121D928018EFA2E0C9
:1046F30092AF801190045180A1124614A2E1B3E459
:1047030033F9121E820231B8E50824FBF582E5096C
:1047130034FFF58322241112435BA2E7221267269A
:10472300E508450922851882851983123577A3E0A8
:1047330022F0900454125CFE22A3E4F085088285E3
:1047430009832274F71207BDEAFEEBFF12196CEE20
:104753002410124867A2E3400C12486464017005F8
:104763009080A180039080A2E0F9EEFCEFFD7A4BEC
:104773007B04121F5AE96046EEFAEFFB90045E12C7
:1047830047E21209E9EE240E12486754047020A888
:10479300A8C2AF900452E0041254E1FAE8A2E792EF
:1047A300AF1247D1A3E05401702112187C801CEE94
:1047B300FAEFFB9004561247E21209E9800D8E824C
:1047C3008F83A374F1124BD1121870024C6D1247F0
:1047D300D522EE240EF582E43FF583229004601285
:1047E30060EB22C082C08312187C0249B374F712B3
:1047F30007BDEAFEEBFF79009004AFE05402700CB2
:10480300EE24301248675404600279E89004AFE064
:104813005460700CEE24301248675402600279E849
:104823008E828F83A3A3A3A3E0F89080A7E0C3980D
:10483300500279E8EE242E124867700CEE242B12F6
:104843004867700479F5800BE9700512185EE9F981
:10485300E96007EEFAEFFB121942024C6D34FFF5E3
:1048630009EE240DF582E43FF583E022C082C08384
:104873008A828B83740DF01227580249B3C082C019
:10488300838A828B83E4F0A3F0EA24301244B45485
:10489300049080A17012E0F8900452E0C398401293
:1048A30079F11219420249B3E0F8900451E0C39838
:1048B30050EE9004AAE0F9121F2A80E974F6120759
:1048C300BDE9FE244CFAE43400FB121F1EEA4B60E0
:1048D30012EE8A828B83A3A3A3A3F0EA244C125182
:1048E300CC80047A007B0002602BC082C0839004DA
:1048F3006674CAF0A37418F0A374FAF0A37418F0E2
:10490300A374D0F0A37418F0A374D6F0A37418F0B2
:10491300A374F4F0A37418F0A374E8F0A37418F06C
:10492300A374E2F0A37418F0A37400F0A37419F055
:10493300A37406F0A37419F0A3740CF0A37419F014
:10494300A37418F0A37419F0A374DCF0A37418F023
:10495300A374C4F0A37418F0A374BEF0A37418F086
:1049630090048274EEF0A37418F0A37412F0A3748D
:1049730019F0A3742CF0A3741AF0A3741EF0A3749B
:1049830019F0A37424F0A37419F09004A6E4F09032
:1049930004A9F09004921249AA7402F090049B12A5
:1049A30049AA740102403B743CF0A37419F0A3229A
:1049B300D083D082020CFA74F51207BD74F1120D84
:1049C300C68518828519837402F0740112104DE9AB
:1049D300F060047AFF7BFF740212104D1254FB75D2
:1049E300089E750904750A007808120D317C0B7D49
:1049F30000740712104DAA82AB83121F00740312B6
:104A03000D48AA18AB19122758740F02668674F75B
:104A13001207BD74FD120DC6851882851983740AA9
:104A2300F0740112104DE9F0740212104DEA124AAB
:104A330044122758023BB7851882851983EAF0A3ED
:104A4300EBF0AA18AB192274F61207BD74F7120D16
:104A5300C6EAFEEBFF124A9A1233477402124BC2A4
:104A6300AA18AB19122098EE242E123315243012F3
:104A73005AC8120D357402120DA679831A1AEFFB68
:104A830012199C7402120D48E9F5087007EEFAEF4B
:104A9300FB1218820260241247D574012274F012AB
:104AA30007BD12656F120FDE7808790C1206CE78F7
:104AB30008120D2D7A957B0402359A74F41207BD02
:104AC30074C6120DC690060CE0640F601085188240
:104AD300851983742E124A4412194E80277A8C7BCF
:104AE30004121A741231C61205E688088909E4F51E
:104AF3000AF50B7808120D2D7A8C7B04121A687450
:104B030004120D48743A0231B574F51207BDEAFE7A
:104B1300EBFF8E828F83A3E0F86003024BABEE249E
:104B23002D12486764026007E06403600278E8EED0
:104B33002423F582E43FF5831231BF400478E880F3
:104B43006AE87064EE2423FAE43FFB79E1121D6204
:104B5300EE242EFAE43FFB7950121D62EE242D124F
:104B630048676402700E125CB7125CED90061B126C
:104B730051D6801290061B74FEF0A304124BC27A26
:104B8300127B061220A4EE2418123FD8120D317C9A
:104B93000B7D007A9E7B04121F007403120D48EEF6
:104BA300FAEFFB1218B8E9F8E86011E88E828F83F8
:104BB300A3125F197417124BD112194E026689F0B2
:104BC300EE2425FCE43FFD228E828F837429F0EED0
:104BD300FAEFFB2274F61207BD74F7120DC69004A8
:104BE300A9E0703B7401F0F9121E4CAA18AB19121C
:104BF300197E75089E7509047808120D357508012C
:104C03007509007808120D35900621120B587406A9
:104C1300120DA67A0379051219A27406120D480221
:104C2300602674F71207BDEAFEEBFF7901121E52EC
:104C33008E828F83E064207004A374EBF09004A948
:104C4300E0A2E25003C2E2F0E0A2E15008124E6F8C
:104C53001218B2800C8E828F83742A124BD11219D0
:104C63004E8007EEFAEFFB1219EA7F01020A8974FC
:104C7300F41207BD74FE120DC6EAFEEBFF790112B2
:104C83001E527A8C7B04121A747A957B04121A745E
:104C9300124FB9851882851983124FEDE0F50B7019
:104CA3000FAA18AB197953121D62126716121D62EF
:104CB300123FD5120D317C0B7D007A9E7B04121FAF
:104CC300007403120D488518828519831254EBA9C9
:104CD3000B1218AC9004A9E0A2E1500C7A008E826A
:104CE3008F83A3E0F91218B29004A9E4F0740202CE
:104CF30031B574F71207BDEAFEEBFF8E828F83A3F3
:104D030074EBF09004A9E0A2E150077A0079EB126A
:104D130018B2EEFAEFFB1218E8024C6D74F71207A3
:104D2300BDEAFEEBFF7901121E527A8C7B04121A44
:104D3300747A957B04121A749004A6E4F09004A983
:104D4300F07AFF7BFF8E828F83A3E0F91218AC0207
:104D53004C6D74F71207BDEAFEEBFF1218E2024C2A
:104D63006674F71207BDEAFEEBFF7901121E528E3D
:104D7300828F83A3A3A3A3E060047400800274EB77
:104D8300124DB65003C2E2F0E0A2E15008124EB851
:104D93001218B28014A2E050108E828F83742AF00E
:104DA300A374EB124BD112194EEEFAEFFB121894C7
:104DB300024C6D8E828F83A3F09004A9E0A2E222BD
:104DC30074F61207BDEAFEEBFF9004A9E0D2E1F00E
:104DD3007901121E4C8E828F83A3E0703C121984DA
:104DE300E9FAEE240DF508E43FF5097808120D35CC
:104DF3007508017509007808120D35124E2D120B36
:104E030058EE2402FCE43FFD79051219A274061240
:104E13000D48E98E828F83A3F08E828F83A3E06097
:104E2300067A00F91218B202602B124E3122EE24D8
:104E33000BF582E43FF5832274F71207BDEAFEEB1C
:104E4300FF7901121E528E828F83E064207004A3C7
:104E530074EBF09004A9E0A2E25003C2E2F0E0A2F6
:104E6300E15006124E6F1218B2024C6DC2E1F07A95
:104E7300008E828F83A3E0F92274F71207BDEAFE46
:104E8300EBFF7901121E527A8C7B04121A748E8204
:104E93008F83A3A3A3A3E060047400800274EB12C6
:104EA3004DB65003C2E2F0E0A2E15006124EB81232
:104EB30018B2024DACC2E1123D20A3E0A2E4E433F8
:104EC300FA8E828F83A3E0F92274F71207BDEAFEFC
:104ED300EBFF7901121E528E828F83A374EB124D66
:104EE300BB5003C2E2F0E0A2E15006124E6F12186B
:104EF300B2024C6D74F71207BDEAFEEBFF7A8C7BAE
:104F030004121A74EEFAEFFB12190C024C6674F7D2
:104F13001207BDEAFEEBFF7A8C7B04121A74EEFAD9
:104F2300EFFB12190C024C6D74F71207BD74EF12EC
:104F33000DC6EAFEEBFF125CC17A127B06122092C9
:104F4300E960628518828519837409F0740112106F
:104F53004D74EFF0124FB9F8740212104DE8124F6E
:104F6300EDA3A3E0C0E0740412104DD0E0124FDAB9
:104F7300640870158E828F83A3A3124FADE0C0E047
:104F8300740512104DD0E08006740512104DE41222
:104F93005D20740612104DAA82AB831219B4AA18AD
:104FA300AB191227587411023BB9125CFE2407F5A2
:104FB30082E438F58322124FCFFB8A828B83125C03
:104FC300F188828983E0FCA3E0F9EC22EE2402F865
:104FD300E43FF9E8FAE922124FDE22124FE3E0221E
:104FE300F08E828F83A3A3A3A322F0A3E9125D0F04
:104FF300124FF722E0F8A31260F2A3A322C082C0EB
:10500300831219F60249B3C082C0839004C6746642
:10501300F0A37404F0A37482F0A37404F0901B0251
:10502300742EF0A3742EF0A37490F0A3742EF0905A
:1050330004B274A6F0A37418F09004AFE044010224
:10504300403BC082C083EAFCEBFD790212195A028D
:1050530049B374F61207BD74FE120DC69004AB1269
:10506300527E60077AAB7B041219729004B1E4F0AC
:105073009018FE12527E60268007AA18AB191219E7
:10508300729004AAE0F9121F368A088B09A808A9AE
:10509300098518828519831251D6E84970DC740298
:1050A30002602874F71207BDE9FA7B009004AAE0B6
:1050B300F9121F60024C6D74F71207BD74F0120DE4
:1050C300C6EAFCEBFDE9FE8C828D83E0F8744012A6
:1050D30051C73431F583E493C0E0740112104DD00D
:1050E300E0F0640B700DEE8C828D83A3F01219D85F
:1050F3000251BAE070030251BA640C60030251AB6F
:10510300741A6E700B740412104DE4F0A30251AACA
:10511300740412104DECF0A3EDF0EC242F1251BFE8
:10512300C0E0740312104DD0E01262821210367484
:105133000612104D12101E8C828D83125CE4740AC9
:1051430012104D1251D6EC240E1251BF54106009A7
:10515300851882851983E48013EC24121251BFF859
:1051630090062EE0C398851882851983F0E0C0E08D
:10517300740C12104DD0E0F0EC24151251BFC0E0B6
:10518300740D12104DD0E0F0EC24161251BFC0E0A4
:10519300740E12104DD0E0F0EC24171251BFC0E092
:1051A300740F12104DD0E0F0740212104DEEF07433
:1051B30001120D9E1227587410023BB9F582E43D8B
:1051C300F583E02228F582E422F8E43BF98A828B16
:1051D30083A3A3E8F0A3E9F022C082C0839004B1C3
:1051E300E0640370047901800279000249B374F723
:1051F3001207BD9004B1E0125268126B4D8A828B84
:1052030083E0C2E7F025E0F8EC1251C73DF583A334
:10521300E493FE125268F58312527E6005EE900409
:10522300B1F08A828B83E0125274EC28F582ED3957
:10523300F583E493FCC4540F25E0F874C01251C7FE
:105243003404F58312527E70051219C68014EC548F
:105253000F25E0FCE82CF582E439F5831247E212CE
:1052630009E9024C6D125274740028F582741B39DB
:105273002225E0F8E433F922900454125CF1E84962
:105283002274F11207BD74FE120DC6890AEAFEEB01
:10529300FF125380FA7B00121F1E8A088B09EA450E
:1052A3000960388A828B83E50AF0A3E4F08E0C8FC1
:1052B3000DF50E780C120D31A80A12538DEA240253
:1052C300FAE43509FB121F007403120D48AA08AB58
:1052D300099004AAE0F9121F2A8012851882851901
:1052E30083E50AF0791AAA18AB191219427402124B
:1052F3000D4802342574F21207BD74FE120DC689DF
:105303000B8A088B09125380F50AFA7B00121F1EC1
:105313008A0C8B0DAE0CAF0DEE4F604A8E828F83DD
:10532300E50BF0A3E4F0A80AEE28F8E43FF98E8237
:105333008F831251D48E828F83A3A3A3A3E4F0F5AA
:105343000A7808120D31A80B12538D123738121F29
:10535300007403120D48EEFAEFFB9004AAE0F91271
:105363001F2A79008014851882851983E50BF0794B
:105373001AAA18AB19121942791A023C4B74142950
:10538300F582E43431F583E49322743528F582E41D
:105393003431F583E493FC7D0022C082C083E9901D
:1053A30004AA02403B74F61207BD74FE120DC6EA4E
:1053B300FEEBFFEE542070378040A8A8C2AF9004E4
:1053C30053E0141254E1F508E8A2E792AF8A828B06
:1053D300831254D89004AD1254FB12194E851882CF
:1053E300851983E0641560077AAD7B041219727A1C
:1053F3004D7B04121F48EA4B70C0EF54807012803B
:105403001C9004AD1254FB12194E7AAD7B04121991
:10541300729004AAE0F9121F36EA4B70E4EE5410BE
:10542300600E851882851983742D124A4412194E11
:10543300EEA2E0500E8518828519837424124A4423
:1054430012194EEE5402600E851882851983742555
:10545300124A4412194EEE5404600E8518828519BF
:10546300837426124A4412194EEE5408600E8518AE
:10547300828519837428124A4412194EEE544060EF
:1054830010740112104D1264E3742C124A44121961
:105493004EEE54806010740112104D1264E3742FA9
:1054A300124A4412194E9004AB12527E6020A8A8EF
:1054B300C2AF9004AB1254EB9004ABE4F0A31255CB
:1054C300011254FA12194E7AAD7B041219727A0042
:1054D3007B000250A1E0851882851983F022F0E851
:1054E300A2E7E433229004321254EF22E0FAA3E05D
:1054F300FB22A3A3A3A3A3A3EAF0A3EBF0221254DA
:10550300E1FEE8A2E792AF22C082C0839004AD120D
:105513005CEDEA687002EB6970079004ADE4F0A3F8
:10552300F00249B374F71207BDEAFEEBFFEE4F70CA
:1055330003121B76A2AFE433F508C2AF8E828F83CA
:1055430012527E6028E824FBFAE934FFFB9004AD95
:10555300126B4FE86C7002E96D70079004ADE4F0D4
:10556300A3F08E828F83E4F0A3F0121FB4023A0AF1
:10557300C082C0839004D474BAF0A37419F0A374E6
:10558300CCF0A37419F0A374D2F0A37419F0A3742C
:105593008EF0A37418F0A374D8F0A37419F0A37455
:1055A30088F0A37418F0A37494F0A37418F0900413
:1055B300E27408F0A3741AF0A374DEF0A37419F074
:1055C300A374E4F0A37419F0A374F0F0A37419F0B6
:1055D300A374EAF0A37419F09004D302403AC08292
:1055E300C08390061BE064FE7003A3E0F470097CA3
:1055F300127D0612209880158A828B83A3A3A3A30E
:10560300A3A3A3A37402F01257631251D60249B3A2
:10561300C082C083900625C3E094FEA3E094FF40BC
:10562300047903800279020249B3C082C08312570E
:105633006E8C828D83125723687039740268701CD4
:105643008A828B8312567CE06870298A828B83A3BB
:1056530012567CA3E068701C7901801A7403687089
:1056630013EC2405FC50010DEA2405FA50010B123A
:10567300209E800279000249B3A3A3A3A3A3E0F869
:105683008C828D83A3A3A3A3A32274F61207BD7EEA
:1056930000740A12104DE0125717FF8A828B83A3FE
:1056A300A3A3A3A3A3A3A3E06F706474026F704EBC
:1056B3008A828B83C082C08388828983A3A3A3A3A6
:1056C300A3E0F50888828983A3A3A3A3A3A3E0FB94
:1056D300AA08D083D082E06A7003A3E06B7030889D
:1056E300828983A3A3A3E0FA88828983A3A3A3A3C4
:1056F300E0F9EA6C7002E96D70157E0180117403A4
:105703006F700CE82405FCE439FD12209EE9FEEEDF
:10571300F902602BF8A3E0F98882898312572322C8
:10572300A3E01313543F540322C082C0838A828BA5
:1057330083A3A3A3A3A3A3A3A3E064027014125798
:1057430063E0687003A3E06970047901800F790056
:10575300800BEAFCEBFD7A127B061220920249B31E
:1057630090061B125CF18A828B83228A828B8312BE
:105773005723F82274EC1207BDEAFEEBFF8C128D5F
:1057830013750A008C828D83A3A3A3A3A3A3A3A34E
:10579300E0F510E9A2E75008750CFF750DFF8006D0
:1057A3009006211259B3E9C2E7F511EE240E12480F
:1057B300675420600712599474088004125994E4C2
:1057C3001259BB5404600712599C74808005125906
:1057D3009C74101259BB5410600612596CE4800B70
:1057E30090062EE0C0E012596CD0E01259BBA2E043
:1057F3005003750A20540860067410450AF50A8E92
:10580300828F83A3A3E024FFF508A3E0124860C3BB
:105813009402E0400B640B6005E0141237487403F4
:10582300450AF50A750B00900641E0640170118E7C
:10583300828F83A3A3A3A3E0C394674003750B10D4
:1058430085110E750F00740E780E120ECEE50F45FE
:105853000BF50B741412104DE0F50EA3E0F50F7465
:10586300026511700E9006261237479006251259CD
:10587300AA80137403651170121259767C357D0664
:10588300AA08FB1220A41259838004E5116028E5BD
:10589300106014E50E650C7004E50F650D70087457
:1058A30040450AF50A8010850882850983E50D12B3
:1058B30059C1E50C12374E85100C750D00740A782A
:1058C3000C120ECEE50D450BF50B74026510701529
:1058D300851282851383A31237478512828513832A
:1058E3001259AA8013740365107012125976AC1200
:1058F300AD13AA08FB1220A41259838004E510609B
:1059030010850882850983E50F1259C1E50E123708
:105913004EA808A909E824FFF508E91248607005B4
:10592300900611800390061DE0FA04F0EA8882894C
:105933008312473EE50B1259C1E50AF0EE2404F841
:10594300E43FF9123434AC088A828B83E0F50A8889
:10595300828983E0250AC39C125D0BECF0A3E50961
:10596300125E87E4F0F9023199EE2412F582E43FE6
:10597300F58322E50824F9F508E50934FFF5092242
:1059830012598722E50824FFF508E50934FFF509D4
:1059930022EE1246203FF583221259A022EE241153
:1059A300F582E43FF58322E0850882850983F022AE
:1059B300E0F50CA3E0F50D22F01247D5E0221237F3
:1059C30052850882F5832274EE1207BD890A8A0B79
:1059D3008C108D11750C1A741612104D126722AAB1
:1059E30008FB12182E8A0E8B0FAE0EAF0FEE4F6010
:1059F30060741412104D125A5BE8F0A3E912334A93
:105A0300E50AF085080C85090D750E00780C120D5A
:105A130031123734121F007403120D48741212101E
:105A23004D120B58AC10AD11A90BEEFAEFFB121986
:105A33009C7402120D48E9F50C7016E50A24F9600E
:105A4300031470061237BBD2E5F0EEFAEFFB12181F
:105A530082A90C7F0A020A891261001247D62274B6
:105A6300F61207BD74F7120DC6EAFEEBFF7801EEDE
:105A7300242F124867600278051247D1E812334792
:105A83007404125ABB122098EE242C123315242EC0
:105A9300125AC8120D357402120DA679031A1AEFA1
:105AA300FB12199C7402120D48E9F5087007EEFA0F
:105AB300EFFB121882026024F0EE2423FCE43FFD86
:105AC300AA18AB1922F582E43FF58312345F124F13
:105AD300DE04F078082274F21207BD8A088B09EC01
:105AE300FEEDFF8A828B837405F0EE243212486741
:105AF3008A828B83A3A3F0EA2403F50AE43509F52C
:105B03000B850A82F5831259B3125CB7121036E57E
:105B13000C1245F6350DF58312101E125CC1AA0C4A
:105B2300AB0D122098850A82850B831260F8FAA3C5
