:020000040000FA
:06000000020EE5020541BD
:03002B00020B9233
:03004B00020B6B3A
:030053000204762E
:03005B00020B7A1B
:03006300020B8607
:100083000204D5010105030101FF0F10FEFF9028B3
:1000930000000000C62700000000FF000000FF0072
:1000A300010020FD0008000000000001CB8001CD0D
:1000B3008008E905C61A000206FFFF0101010400DA
:1000C3003319000000E8030000FFFFFF19E80300F5
:1000D3000064006400B801A0BB0D00A0BB0D0002CA
:1000E30002000800000502070401051E02051E02A6
:1000F3000A0A0102080803B80B02803E0102FEFF50
:10010300E8030A050001FFFF010A1401E0120EF5DE
:10011300700418181822120F04700D74FFF61819C2
:10012300F61819F61819F622E7548066F6120FB37B
:10013300700F120FAA70F014F608F608F608F6808E
:10014300D1120FAA700CF608F608768008E6447FF1
:1001530080EC120D98700C120DC060BFE65480F64F
:10016300E480BB120DC0700519191980A5E86970E8
:100173000C763F18768018F618F6E8F922E6CDC01B
:10018300E018ECC0E0E633CD33CDD313F6E719FC2A
:10019300E7191933CC33C3947F400ECD9D50240807
:1001A300E65480F6E418F6800FF4043D1450140866
:1001B300E6447FF6187680E418F618F6D0E0FCD013
:1001C300E0FD22CCD313CCFD18E4C6CBC0E018E489
:1001D300C6CAC0E00808ED08C633E613F618E433D0
:1001E300C675F003C3CA97CA09CB97CB199C4004C1
:1001F3007D08802EBD00030202B916B6FF05060670
:10020300081618C3CA33CACB33CB33CA27CA09CBA0
:1002130037CB193CC37D08803E187D0820E75CC6B8
:1002230033C6CA33CACB33CB33DDF1D5F0EB30E77A
:100233007BCA97CA09CB974ACB199C406F4B702551
:10024300E620E0218066187D08C3CA97CA09CB97C8
:10025300CB199CD3C633C6CA33CACB33CB3350C9AD
:10026300DDE7D5F0E1D3E4C636C608C636C608C610
:1002730036C608C636C61818188031C3CA97CA09C5
:10028300CB97CB199CB34097C633C6CA33CACB337B
:10029300CB33DD34D5F02EC6A2E0C640C8CA27CA88
:1002A30009CB37194A70BECB3CB480B90808E63392
:1002B30008E633601F181818D0E0FAD0E0FBD0E04E
:1002C300FCD0E0FD22187D08CA27CA09CB37CB1919
:1002D3003CD3808013F618E4B67F11F618B6FF0EF0
:1002E300F618C60470D20808768080CAF618F61885
:1002F300F680C500120EF5604F120F046012E7542A
:100303008066F6120DBD7011120FAA703B09090920
:10031300F4F618F618F618F622120D957015120F4A
:10032300B308080860EAE6447FF618768018E4F616
:1003330018F622120FB36016120FAA7012E4F60811
:10034300F608F608E65480F609090918181822EA8F
:10035300C0E0EBC0E0ECC0E0EDC0E0E687F0A4FB5A
:10036300ACF008E687F0A42CFCE435F0FA1809E6B3
:1003730087F0A42C4B60027401CA35F0FCE433FB14
:1003830009E687F0D2F7A42CCB35F0FC1908E687F1
:10039300F0A42BCC35F0FBE433FD0819E687F0D24B
:1003A300E7A42C4ACB35F0CD3400FC09E687F0D224
:1003B300E7A42DCC35F0FDE433FA0918E687F0D233
:1003C300F7A42CCD35F0CA3400FC08E687F0D2E759
:1003D300D2F7A42ACC35F07A7E20E70B0ACB33CBB5
:1003E300CD33CDCC33CC33CB3350147004ED30E06C
:1003F3000ED2F1E4CD3DCDCC3CCC3B5005DA05C269
:10040300F1EB547FC63308E63392F0FBE73309E799
:1004130033C39A502D2B70190C0D4C4D70151806C3
:10042300E608C333700D20F10AA2F013F6E4188036
:100433000B4024E4F630F002768018F618F618F62E
:100443008024D33B14501074FFA2F013F618768067
:10045300E418F618F6800FA2F013F618E63303F645
:1004630018ECF618EDF6D0E0FDD0E0FCD0E0FBD0C0
:10047300E0FA22C0E074F11207E7A2AFE433F50912
:10048300D2AF85A708AFA1EF5508FE74105E6006D2
:10049300121BDD75A1EF74085E6008121BE375A1E2
:1004A300F78024EFA2E092F0E508A2E082F0501773
:1004B300906198E0F89005F7E0C398A2D265D03335
:1004C3005002E8F075A1FEE509A2E092AF7F0202B7
:1004D30008A3C0E074F21207E7A2AFE433FED2AF81
:1004E3009061A4E0F8759B00E59158540860087585
:1004F30091F7121C2B8023E59158541060087591D5
:10050300EF121C318014E591A2E092F0E8A2E082A0
:10051300F05007E0C2E0F0121D7B9061A3E0F8E524
:10052300E9585404600E121D5175E9FB906193E084
:10053300A2E640F2EEA2E092AF7F010208A3C0E080
:1005430074F21207E7A2AFE433FED2AF9061A5E0E5
:10055300F8E5BF585404600675BFFB121D9380D4A1
:10056300C3E498F8E499F91205A48026C3E49AFA3F
:10057300E49BFBE920E7E91205A4E498F8E499F980
:1005830022C3E498F8E499F91205A4E498F8E499ED
:10059300F9C3E49AFAE49BFB22EB20E7CFE920E7D7
:1005A300E0B90010BB0008E88AF084F8AAF022E45E
:1005B300FBC8FA22EB70227B10C833C8C933C93396
:1005C3005007C39AC3DBF280069A50012ADBEAC8BC
:1005D30033F4C8C933F4C9FA2275F008E4C833C840
:1005E300C933C933C99AC99B5004C92AC93BD5F039
:1005F300ECFBC833F4C8E4C9FA2212063D20F01418
:1006030030E72B74FFFCFBFA747F8022E4FCFBFAD7
:100613007480801AB48008BC00F2BB00EF800F50D6
:10062300EBF9E4C39AFAE49BFBE49CFCE499C6CCA3
:1006330018C6CB18C6CA18C6F922E4C9C608CAC662
:1006430008CBC6D3330308CCC63392F0C3947F40A0
:100653002E94184019C9B90704CACBCC225025C31C
:1006630009CA33CACB33CBCC33CC33D9F422F460AD
:100673000DC9CCC313CB13CBCA13CAD9F6CC22E40E
:10068300FCFBFA2214FCFBFA22080808EAC0E0EBA0
:10069300C0E086F0E7A4FA180986F0E7A42AFA185E
:1006A3000986F0E7A42AFA180986F0E7A42AFA19BA
:1006B30086F0E7A4FBE5F02AFA190886F0E7A42BF5
:1006C300FBE5F03AFA190886F0E7A42BFBE5F03ACC
:1006D300FA18180986F0E7A4C5F02BFBE43AFA19D7
:1006E30008E7C5F0C6A426F6E5F03BFBE43AFA18A2
:1006F30086F0E7A4F6E5F00826F6E43B08F6E43ACC
:1007030008F6D0E0FBD0E0FA22E4CFC0E0E4CEC0AC
:10071300E0E4CDC0E0E4CCC0E075F020E626F608C6
:10072300E633F608E633F608E633F6181818EC3322
:10073300FCED33FDEE33FEEF33FFC3EC9709ED978A
:1007430009EE9709EF97191919400FFFEC97FC0968
:10075300ED97FD09EE97FE191906D5F0BFECF709E1
:10076300EDF709EEF709EFF7191919D0E0FCD0E01E
:10077300FDD0E0FED0E0FF222518C582C0E0E519D8
:1007830034FFC583C0E0E518C3958224F810AF0891
:100793008583198582188008858319858218D2AFCD
:1007A300CEF0A3E520F0A37808E608F0A3DEFAEF85
:1007B300F0A3E58124FAF8E608F0A3E608F0A3E63F
:1007C30008F0A30808E608F0A3E608F0A3158115CE
:1007D30081D0E0FED0E0F8158115811581E8C0E0F5
:1007E300EEC0E022C0D02518C582C0E0E51934FF71
:1007F300C583C0E0E518C3958224F310AF08858351
:10080300198582188008858319858218D2AFC8F0AC
:10081300A3E9F0A3EAF0A3EBF0A37908E709F0A3B7
:10082300D8FAECF0A3EDF0A3EEF0A3EFF0A3D0E041
:10083300F0A3D0E0F0A3D0E0F0A3E520F0A3E5F02F
:10084300F0A322E9799EC608CAC608CBC608CCC65F
:10085300C370207996CACBCC7019798ECBCC701328
:100863007986CC700EF9802ACA33CACB33CBCC330A
:10087300CC331930E7F2CCCBCA3350147004EA30CE
:10088300E00DE4CA3ACACB3BCBCC3CCC500209C303
:10089300E913C6CC182313C6CB18C6CA18C6F92247
:1008A300851983851882E0C0E0A3E0F9A3E0FAA3E9
:1008B300E0FBA37808E0F608A3DFFAE0FCA3E0FD81
:1008C300A3E0FEA3E0FFA3E0C0E0A3E0C0E0A3E059
:1008D300F5D0A3E0F520A3E0A3F5F010AF088583DE
:1008E300198582188008858319858218D2AFD08232
:1008F300D083D0E0F8D0E032120F95B9000302099B
:100903003AE490030178A479188002F0A3D8FCD9C3
:10091300FA7AA47B1A900086788B79018015E49388
:10092300A3AD82AE838A828B83F0A3AA82AB838D2D
:10093300828E83D8E9D9E77582F97583C37404126B
:100943000C587582C17583257400120C5875F0100C
:100953008E1A8F1B85821F85831E851882851983B6
:10096300E0CEA3E0CF851F82851E83EBC9EAC8EDE5
:10097300CBECCAC3E833C8E933C9EA33CAEB33CB98
:10098300C3EA9EF51DEB9FF51CB35004AB1CAA1DD7
:10099300EC33CCED33CDD5F0DAAE1AAF1B22D083D6
:1009A300D082ECC0E0EDC0E0E493A3FCE493A3FDAC
:1009B300ED4C600D120A79EC24FFFCED34FFFD8051
:1009C300EFE493A3FCE493A3FDED4C600D120B162F
:1009D300EC24FFFCED34FFFD80EFD0E0FDD0E0FC24
:1009E300E493A3C0E0E493C0E022D083D082E9C0C3
:1009F300E0E493A3C386F0C5F095F0F908E493A36C
:100A030086F0C5F095F0700BE493A3C3994005E914
:100A1300048002A3E475F002A42582F582E5F03593
:100A230083F583D0E0F9E493A3C0E0E493C0E0222C
:100A3300851983851882E0A3FEE0A3F5207808E0FA
:100A4300A3F608DFFAE0A3FFE0A3C0E0E0A3C0E061
:100A5300E0A3C0E0E0A3C0E0E0A3C0E010AF0885DE
:100A630082188583198008858218858319D2AFD0AF
:100A730083D082020C5EC0E0C3E4939608740193B2
:100A83009618400FE4936670080874019366187013
:100A9300007019A3A3C3E49396087401939618A353
:100AA300A3400DD0E0D0E0D0E00209DDA3A3A3A3CF
:100AB300A3A3D0E0227404800474028000CCC0E0BD
:100AC300EDC0E0E518C39CCCAD1950011D10AF0675
:100AD3008C188D1980068C188D19D2AF120BDAD0B1
:100AE300E0FDD0E0FC2274028000CCC0E0EDC0E069
:100AF300E518C39CCCAD1950011D10AF068C188DA1
:100B03001980068C188D19D2AF120BB8D0E0FDD026
:100B1300E0FC22C0E0C0F088F0E49366700808743B
:100B2300019366187000A8F0A3A3700BD0F0D0E077
:100B3300D0E0D0E00209DDA3A3D0F0D0E022D0833F
:100B4300D082CCC0E0E493A36006120BFB1470FACE
:100B5300E493A36006120D401470FAD0E0FCE49312
:100B6300A3C0E0E493C0E022C0E074F21207E712EE
:100B73001B3B7F010208A3C0E074F21207E7121BBC
:100B83004180EFC0E074F21207E7121B4780E3C015
:100B9300E0C0D0E8C0E0E9C0E0A9A8D2AFC2C7E98D
:100BA300A2E7E433F8E9A2E792AFD0E0F9D0E0F8A6
:100BB300D0D0D0E032CAC0E0E493A3C582CCC582D2
:100BC300C583CDC583F0A3C582CCC582C583CDC5FE
:100BD30083DAE5D0E0CA22CAC0E0E0A3C582CCC56F
:100BE30082C583CDC583F0A3C582CCC582C583CD21
:100BF300C583DAE6D0E0CA22C0E0E493A3D39C50D5
:100C030010E493A3C39C400AD0E0D0E0D0E0020BF1
:100C13005EA3A3A3D0E022C008C3E096F50808A30F
:100C2300E096420808A3E096420808A3E096450828
:100C33007001D3D00822700908080822601618181A
:100C430018C6C333C608C633C608C633C608C63378
:100C5300C6D5E0EA22C09FF59FE473D09F22D083DC
:100C6300D082C09FE493C0E0740193C0E074029308
:100C7300F59F222518F58210AF08F518400C1519B9
:100C83008008F51840021519D2AF85198322740420
:100C9300800A74038006740280027401C0E0F404C5
:100CA300120C76D0E0120F402200C0D0251810AFEE
:100CB30008F518500C05198008F51850020519D2CB
:100CC300AFD0D022BB0102E722C082C08389828ACF
:100CD30083BB0003E08002E493D083D082226016BA
:100CE300080808C6C313C618C613C618C613C61801
:100CF300C613C6D5E0EA222518F8E43519F92225EA
:100D030018FAE43519FB222518FCE43519FD22C332
:100D1300E0C696F608A3E0C696F608A3E0C696F6E4
:100D230008A3E0C696F622251810AF08F518400C64
:100D330015198008F51840021519D2AF22C0E0E456
:100D430093A36C7009D0E0D0E0D0E0020B5EA3A3C4
:100D5300D0E022E066701008A3E066700A08A3E002
:100D630066700408A3E06622C3E09608A3E0960831
:100D7300A3E09608A3E096A2D265D03322E766707B
:100D8300100809E766700A0809E76670040809E7AE
:100D93006622191919E70947097009E72709700538
:100DA300E733F4220922C3E096F008A3E096F008A3
:100DB300A3E096F008A3E096F022181818E6084678
:100DC300087009E626087005E633F4220822C3E416
:100DD3009396087401939608740293960874039388
:100DE3009622C3E697F60809E697F60809E697F60A
:100DF3000809E697F622E026F608A3E036F608A3EC
:100E0300E036F608A3E036F622E627F60809E637C9
:100E1300F60809E637F60809E637F6227004226079
:100E23000D18C6C333C608C633C6D5E0F41822E688
:100E330047F60809E647F60809E647F60809E647CC
:100E4300F622E056F608A3E056F608A3E056F608A5
:100E5300A3E056F622E657F60809E657F60809E630
:100E630057F60809E657F622E026F008A3E036F025
:100E730008A3E036F008A3E036F022E056F008A31A
:100E8300E056F008A3E056F008A3E056F022E493FE
:100E9300F608740193F608740293F608740393F644
:100EA30022E4C396F608E496F608E496F608E49678
:100EB300F622C3E09608A3E09608A3E09608A3E011
:100EC3009622C6F4C608C6F4C608C6F4C608C6F415
:100ED300C622C3E7960809E7960809E7960809E7D3
:100EE300962275D00075813F7518017519030002AC
:100EF30008FBE6084608C3134608336002E633F4EA
:100F030022E7094709C3134709336002E733F42291
:100F1300600C08C6C313C618C613C6D5E0F422E690
:100F2300F008A3E6F008A3E6F008A3E6F022E0F653
:100F330008A3E0F608A3E0F608A3E0F622CAC0E09F
:100F4300E6F0A308DAFAD0E0FA22E0FCA3E0FDA37E
:100F5300E0FEA3E0FF22EAF0A3EBF0A3ECF0A3EDA5
:100F6300F022E0FAA3E0FBA3E0FCA3E0FD22E8F01B
:100F7300A3E9F0A3EAF0A3EBF022ECF0A3EDF0A3D6
:100F8300EEF0A3EFF022E0F8A3E0F9A3E0FAA3E088
:100F9300FB22E5C754F84401F5C77901222518F56A
:100FA30082E43519F58322E72719471947194722A0
:100FB300E62618461846184622C2AF75D69F020089
:100FC3000022120C614FA202120C6198A202120CB1
:100FD30061B4A202120C6125A302120C6171A30277
:100FE300120C61BAA302120C61F8A302120C61790C
:100FF300A402120C6120A502120C61EFA602120CCE
:101003006154A702120C6182A802120C61A8A80203
:10101300120C61F0A902120C612AAD02120C6128B4
:10102300AF02120C61F3B002120C618CB102120C0C
:10103300618DB302120C6142B402120C617BB402E3
:10104300120C61E1B402120C61EBB402120C6114D4
:10105300B702120C6153B802120C61AAB802120C47
:101063006155B902120C6105BB02120C6152BC023C
:10107300120C6172BC02120C61C7BC02120C61C873
:10108300BD02120C61F0BD02120C614FBE02120CC4
:101093006147BF02120C61BEBF02120C61D1C002D4
:1010A300120C613FC102120C613EC202120C619824
:1010B300C402120C61C1C402120C6127C602120CD5
:1010C30061A9C702120C6100C802120C61AEC8020A
:1010D300120C6153C902120C61ACC902120C616A91
:1010E300CA02120C61FCCA02120C615BCB02120C25
:1010F300619DCB02120C61CECB02120C6125CD0295
:10110300120C61862B00120C61B82B00120C61F1DA
:101113002B00120C61AF2D00120C61852E00120CF6
:1011230061E42E00120C61FA2F00120C61463000AC
:10113300120C61D43200120C61AE3500120C61F551
:101143003600120C618D3700120C61993700120CB6
:1011530061E23700120C61243900120C611A3A0063
:10116300120C61443A00120C619A3A00120C61F3BA
:101173003A00120C61663B00120C619C3D00120C9C
:10118300611E3F00120C61094000120C61534100C3
:10119300120C618B4300120C61884600120C61979C
:1011A3004600120C612B4700120C616E4700120CB3
:1011B30061ED4700120C616A4A00120C619C4B00FE
:1011C300120C61744C00120C61F64C00120C612B72
:1011D3005100120C615A5100120C61B55100120CEE
:1011E30061E85100120C61605200120C61935200CD
:1011F300120C61F45200120C61445300120C611181
:101203005400120C61CA5400120C618E5500120C6A
:1012130061085800120C616A5900120C61BB5A0034
:10122300120C61DF5B00120C61E25B00120C6111B6
:101233005C00120C61095E00120C61C85E00120CA6
:1012430061F75E00120C61156000120C61DD600035
:10125300120C619B6200120C61CD6200120C610FD3
:101263006300120C610E6400120C61816400120CA5
:1012730061AA6600120C61096700120C615D6700C8
:10128300120C618C6900120C616F6A00120C612BE5
:101293006B00120C613F6B00120C61536B00120C5C
:1012A30061806B00120C61B06B00120C616B6D00FE
:1012B300120C617D6E00120C61D26E00120C611B68
:1012C3006F00120C61426F00120C610A7000120C65
:1012D30061B07000120C61367200120C617D7200F5
:1012E300120C61EF7200120C61447400120C61ED78
:1012F3007400120C61217500120C61397500120C17
:1013030061DC7500120C61587800120C61007A00E0
:10131300120C611E7A00120C613C7A00120C6108F7
:101323007B00120C61567E00120C61D08001120CFE
:1013330061088101120C61088601120C614E86015D
:10134300120C61848701120C61E98701120C615E42
:101353008901120C61688C01120C61918D01120CD0
:1013630061A49701120C61349801120C611E9B0158
:10137300120C612B9C01120C618E9C01120C61D624
:101383009D01120C6144A001120C61D6A101120C43
:101393006163A201120C6182A301120C610FA4010B
:1013A300120C6119A401120C6141A401120C61E138
:1013B300A401120C61CCA501120C6199A601120CB7
:1013C30061B6A601120C61DFA601120C610CA70124
:1013D300120C6153A901120C6122AA01120C616162
:1013E300AA01120C61E3AA01120C6184AB01120C75
:1013F30061B6AB01120C61FDAB01120C6130AC01A3
:10140300120C6174AC01120C61C3AC01120C61C803
:10141300AC01120C6124AD01120C6168AD01120C18
:101423006142AE01120C61A7AE01120C610DAF0156
:10143300120C6188AF01120C61F0B201120C61F35E
:10144300B301120C6171B501120C6187B801120C62
:101453006129B901120C6172BB01120C612DBC012F
:10146300120C616CBC01120C6144BE01120C61616F
:10147300BE01120C616ABE01120C6173BE01120C33
:10148300617EBE01120C619DBE01120C6141C0015F
:10149300120C619EC001120C61A8C001120C61C044
:1014A300C001120C61D1C101120C611AC201120CEC
:1014B30061D4C201120C61EBC301120C61C0C401FF
:1014C300120C6107C601120C610BC701120C6104F7
:1014D300C801120C611CC801120C6153C801120C23
:1014E300615DC801120C6168C801120C6186C801F4
:1014F300120C61CEC801120C612CC901120C61538C
:10150300C901120C6165C901120C611ACA01120CDE
:101513006153CA01120C6175CB01120C61C8CB0176
:10152300120C61AECC01120C61D5CC01120C6145D9
:10153300CD01120C61C1CD01120C611DCF01120C42
:101543006144D001120C6106D101120C61D4D101A6
:10155300120C6192D201120C617AD301120C612434
:10156300D401120C618CD401120C6141D501120C0F
:10157300619DD501120C61F5D501120C61BBD60139
:10158300120C61DED601120C6199D701120C61BBFA
:10159300D701120C611CD801120C614CDA01120C38
:1015A3006145DB01120C61F1DB01120C6112DE01FA
:1015B300120C615BDE01120C61A6DE01120C6102EA
:1015C300DF01120C6160DF01120C6184DF01120C78
:1015D30061A8DF01120C61DDDF01120C6105E0017E
:1015E300120C614AE001120C619EE001120C61F7DA
:1015F300E001120C61F1E101120C618FE301120CA5
:1016030061D4E301120C61FDE301120C6186E40174
:10161300120C61F9E401120C6107E501120C612B54
:10162300E501120C6181E501120C619CE501120CCC
:101633006157E601120C6183E601120C61C6E601F3
:10164300120C6129E701120C6137E901120C616385
:10165300E901120C611EEA01120C6102EB01120C8A
:101663006196EB01120C61008004120C6138800456
:10167300120C61598004120C619B8004120C61FFEF
:101683008004120C61098104120C61198104120C8B
:1016930061508104120C61F98404120C61C1860447
:1016A300120C61A58804120C61478904120C61D1E4
:1016B3008904120C61508003120C61F98003120C2F
:1016C30061D88103120C61E48203120C6104830369
:1016D300120C61268403120C61D68503120C61433C
:1016E3008603120C61148703120C611A8803120C0F
:1016F30061928803120C61CD8803120C6126890361
:10170300120C61618903120C61AA8903120C613EF8
:101713008A03120C61D48A03120C61A98B03120C85
:10172300617C8C03120C610A8D03120C61308D03F2
:10173300120C615D8D03120C618E8D03120C615BC3
:101743008E03120C616B8E03120C61BE8E03120C9E
:1017530061CB8E03120C61D88E03120C61E18E03F0
:10176300120C61458F03120C61A38F03120C61EEFF
:101773008F03120C61099003120C61309003120C59
:10178300614D9003120C61599003120C61EA9103AD
:10179300120C61039203120C617F9203120C61928B
:1017A3009203120C61A29203120C61469303120C72
:1017B30061B29403120C61C59503120C6165960323
:1017C300120C616F9603120C61EE9603120C61FF0B
:1017D3009603120C613E9703120C616C9703120C73
:1017E30061399803120C61909803120C61C9980334
:1017F300120C611F9903120C613D9903120C618B4A
:101803009903120C61569A03120C61A49A03120CE9
:1018130061F19A03120C61749B03120C619E9B038A
:10182300120C61D49B03120C61E39B03120C614203
:101833009C03120C61BA9C03120C61FB9C03120CF7
:10184300614B9D03120C61769D03120C61909D0305
:10185300120C61AA9D03120C617F9E03120C618915
:101863009E03120C61C49E03120C61D49E03120CDE
:1018730061259F03120C61399F03120C615BA00366
:10188300120C6170A003120C6103A103120C6177A7
:10189300A103120C611CA203120C6127A203120CF8
:1018A300618AA303120C61A6A303120C61F2A303C2
:1018B300120C6160A403120C6192A403120C61ACBC
:1018C300A403120C610CA503120C61ABA503120C4B
:1018D30061F6A503120C6149A803120C61E1A80388
:1018E300120C6158A903120C61B5AB03120C61CD44
:1018F300AB03120C61D0AB03120C61DCAB03120C13
:1019030061F0AB03120C61F8AB03120C612FAC0353
:10191300120C6123AD03120C61ADAD03120C612FE8
:10192300AE03120C61AFAE03120C6186AF03120C4F
:1019330061A8AF03120C6141B003120C619EB003A6
:10194300120C61A1B003120C6110B103120C615CA3
:10195300B203120C616FB303120C61FAB303120CDE
:10196300610DB503120C61D4B503120C6105B60306
:10197300120C612BB603120C6134B603120C6163B3
:10198300B603120C6113B703120C61C3B703120C35
:101993006136B803120C61D9B803120C614CB90358
:1019A300120C618BB903120C61D4B903120C61D50B
:1019B300EE03120C6142EF03120C618EEF03120C63
:1019C30061E0EF03120C6160F003120C615DF2033E
:1019D300120C6170F403120C61A9F703120C61D8A5
:1019E300F703120C61529A02120C6160F803120C95
:1019F3006188F803120C61BBF803120C61F0F80361
:101A0300120C6152F903120C6121E203120C619D65
:101A1300E203120C61CBE203120C6110E303120C1C
:101A23006171E403120C618DE403120C61C3E403DE
:101A3300120C613CE503120C618AE503120C611A76
:101A4300E603120C61F2E603120C6143E703120C86
:101A530061A8E703120C611BE803120C61DDA1020C
:101A6300120C61B7E803120C61D9E803120C616927
:101A7300E903120C61FAE903120C6132EA03120C56
:101A8300615BEA03120C619CEA03120C613DEC03F7
:101A9300120C611FED03120C61FBED03120C61CFFD
:101AA300CF04120C61E0CF04120C61FB7F00120C17
:101AB30061FACF04120C6143CD04120C6153CD04BF
:101AC300120C6165CD04120C61CBCD04120C6107BD
:101AD300CA04120C618BCA04120C61F1CA04120C01
:101AE3006153CE04120C6164CE04120C617ECE04E9
:101AF300120C6189CE04120C61E87F00120C61F8AC
:101B03007F00120C61BDFF01120C6120AB04120CAB
:101B13006133AC04120C617CAC04120C61F9AC04AB
:101B2300120C6121AD04120C619EAD04120C61C84C
:101B3300AD04120C6112AE04120C6152AE04120C0D
:101B430061B1AE04120C61F0AE04120C610BD0044F
:101B5300120C61E8C504120C6166C604120C618C98
:101B6300C604120C61C8C604120C61F6C604120C3A
:101B73006137C704120C619DF903120C61C9F903A3
:101B8300120C615FFC03120C619FFC03120C61DBFE
:101B9300FC03120C61EFFC03120C6108FD03120C31
:101BA30061F9FD03120C61ABFE03120C61BFFE036E
:101BB300120C61747E00120C61987E00120C61B1EC
:101BC3007E00120C61EF7E00120C61257F00120C67
:101BD30061587F00120C61C47F00120C61C77F0043
:101BE300120C61D17F00120C61DE7F00120C61D7F1
:101BF300BC04120C61FABC04120C6145BD04120C46
:101C03006163BD04120C617EBD04120C61E4BD046A
:101C1300120C61F0BD04120C614DBE04120C617113
:101C2300BE04120C6137BF04120C6144BF04120CD2
:101C33006155BF04120C61CECD04120C61E6CD04D4
:101C4300120C6112CE04120C6195A204120C61F9FC
:101C5300A304120C6107A404120C611BA404120C4C
:101C63006138A404120C614DA404120C6160A40435
:101C7300120C61E2A404120C6147A504120C61DD8D
:101C8300A504120C61B6A604120C61C6A604120CBC
:101C930061D5A604120C6111CC04120C6135CC047D
:101CA300120C615DCC04120C6185CC04120C61C86A
:101CB300C104120C61EFC104120C610DC204120CB9
:101CC3006182C204120C6105BA04120C611EBA04CB
:101CD300120C6135BA04120C613EBA04120C615C39
:101CE300BA04120C6166BA04120C6170BA04120CC5
:101CF3006183BA04120C6109BB04120C617EBB043C
:101D0300120C61ACBB04120C61FDBB04120C6149E3
:101D1300BC04120C6164BC04120C616EBC04120C92
:101D2300617FBC04120C61C2BC04120C61C9CE04F5
:101D3300120C61808A04120C61AC8A04120C61CF0C
:101D43008A04120C61E28A04120C61FD8A04120CEB
:101D530061618B04120C618F8B04120C619F8F04E1
:101D6300120C61F49004120C61269104120C61911F
:101D73009104120C61F89204120C61209304120C6A
:101D830061359304120C61459304120C618593042D
:101D9300120C61C79304120C61D79304120C616691
:101DA300FE02120C6176FE02120C619AFE02120C04
:101DB30061C3FE02120C61EDFE02120C6111FF02FF
:101DC300120C6128FF02120C6156FF02120C61799A
:101DD300FF02120C615FCF04120C610AB304120CF0
:101DE300611AB304120C6138B404120C616CB404AC
:101DF300120C618EB404120C61B6B404120C61CFE0
:101E0300B404120C610BB504120C616DB504120C11
:101E130061B2B504120C61F7B504120C6124B60467
:101E2300120C615CB604120C61CFC804120C61EF92
:101E3300C804120C61D4C904120C61D7C904120C72
:101E430061AACC04120C61E7CC04120C6129CD0405
:101E5300120C6139CD04120C612A9B04120C6164CB
:101E63009B04120C61CD9B04120C61EC9B04120CBD
:101E7300618E9C04120C61979C04120C61E89C0413
:101E8300120C61119D04120C611E9D04120C618FD2
:101E93009D04120C611D9E04120C616B9E04120CB6
:101EA30061A19E04120C61029F04120C612A9F041B
:101EB300120C61A19F04120C61FD9F04120C61407E
:101EC300A004120C617DA004120C618FA004120CFB
:101ED30061A1A004120C61C0A004120C61C9A0048A
:101EE300120C6197A104120C61E3A104120C61218D
:101EF300A204120C6189C704120C6114CF04120CE2
:101F03006183BF04120C61B9BF04120C6108C004E1
:101F1300120C6161C104120C6109BA03120C613A1B
:101F2300BB03120C6176BB03120C6130BD03120CB0
:101F3300615ABD03120C61D3BF03120C6113C003BA
:101F4300120C61A8C103120C6147C203120C619FFA
:101F5300C203120C6125C303120C615DC303120C8F
:101F6300619FC303120C6110C503120C6190C60379
:101F7300120C61D1C803120C61FFC803120C612B50
:101F8300C903120C6134C903120C618AC903120C10
:101F9300611ACA03120C6158CD03120C61DACD0326
:101FA300120C61DCFF03120C61F2FF03120C6106D9
:101FB300A704120C611BA704120C61CEA704120C18
:101FC300610EA804120C6127A804120C615AA8041C
:101FD300120C61A7A804120C61DBA804120C611D8A
:101FE300A904120C6113AB04120C610ACB04120C8A
:101FF3006169CB04120C61A7CB04120C61E8CB041A
:10200300120C6181CD02120C61D9CD02120C6169EF
:10201300CE02120C61CECF02120C61ABD002120CB5
:102023006126D102120C6177D102120C61E8D10250
:10203300120C612CD202120C6144D202120C610503
:10204300D502120C619BD502120C61D2D502120C7F
:10205300611BD602120C6121D802120C6171D802E5
:10206300120C614BD902120C6184D902120C61A3C8
:10207300D902120C61EED902120C610EDA02120CB3
:1020830061D1DA02120C61C7DB02120C6122DC029D
:10209300120C6162DC02120C6199DD02120C6115F3
:1020A300E002120C613FE002120C61C6E002120C66
:1020B30061EBE002120C616CE102120C6151E2026D
:1020C300120C619EE202120C6102E302120C61B671
:1020D300E302120C61B9E302120C61C3E302120CB6
:1020E30061CDE302120C61D0E302120C6142E402FF
:1020F300120C617BE402120C618EE402120C61BBD0
:10210300E402120C61E2E402120C6106E502120C15
:102113006141E502120C61B4E502120C61B7E502FC
:10212300120C61F8E502120C6121E602120C614106
:10213300E602120C618AE602120C61C1E602120C7D
:1021430061C1E702120C61F0E802120C610FE902AF
:10215300120C61B1FF02120C61C9FF02120C61D3B0
:10216300FE03120C61079404120C61569404120CC2
:1021730061149604120C61CF9704120C610D98043C
:10218300120C61029904120C610D9A04120C612F56
:102193009A04120C61799A04120C61FA9A04120CD3
:1021A3006142E902120C6165E902120C6168EA02FC
:1021B300120C61BAEA02120C611CEB02120C616E82
:1021C300EB02120C61B6EB02120C611FEC02120C53
:1021D30061A4EC02120C6120ED02120C6166ED02A7
:1021E300120C616BF102120C61CFF302120C6181CC
:1021F300F402120C61E1F402120C6109F502120CF3
:1022030061CFF602120C61EBF802120C61D7F902EE
:10221300120C615EFA02120C6195FB02120C61C68C
:10222300FC02120C6105FD02120C61B9FD02120CD5
:102233006157EC01120C61F7EC01120C6164ED01C2
:10224300120C6123EE01120C6182EE01120C61305B
:10225300EF01120C61F3F101120C610BF301120C8B
:102263006181F301120C6163F501120C6105F60142
:10227300120C6156F701120C6164F801120C61F142
:10228300F801120C6111FA01120C6137CE03120C22
:1022930061A2CE03120C61EACE03120C612ECF03AE
:1022A300120C6180CF03120C61DDCF03120C611895
:1022B300D003120C61B7D003120C6128D103120CA6
:1022C30061A0D103120C61B8D203120C61E0D203F6
:1022D300120C61ECD303120C61FDD303120C6115D4
:1022E300D403120C6143D503120C6171D503120C94
:1022F300613FD603120C6163D603120C6181D603CE
:10230300120C619BD603120C61BDD603120C6197AC
:10231300D703120C61F1D703120C6168D903120CB5
:1023230061CAD903120C61E9D903120C6131DB03D1
:10233300120C61B0DB03120C61E7DB03120C612B9F
:10234300DC03120C6125DD03120C6132DE03120C77
:10235300612ADF03120C6138DF03120C6123E003EF
:10236300120C61C5E003120C6135E103120C614AE2
:10237300E103120C61EBE103120C61B0B604120C21
:10238300616BB804120C612AB904120C617FB904A1
:10239300120C6130AF04120C614EAF04120C619247
:1023A300AF04120C61B8AF04120C61DFAF04120C5E
:1023B30061F7AF04120C610FB004120C6127B00473
:1023C300120C61CAB004120C610CB104120C612E20
:1023D300B204120C6137B204120C6140B204120C45
:1023E3006149B204120C6153B204120C614FFB0138
:1023F300120C6143FF01120C6151FF01120C615673
:10240300FF01120C6175C404120C61A3CF04120CFA
:1024130061CE9902120C61A09802120C619098028D
:10242300120C616E9702120C618C9502120C61837F
:102433009502120C61769502120C61799402120CCA
:1024430061069402120C61EA9302120C61B9A102B3
:10245300120C6195A102120C61CC9302120C61A7BC
:102463009302120C618AA102120C6125A102120CC3
:1024730061B79202120C61529202120C61BB91027B
:10248300120C61499102120C61389102120C6154D1
:102493009002120C61328F02120C61DD8E02120C5B
:1024A300610A8E02120C61448D02120C61088D02C6
:1024B300120C619B8C02120C61938C02120C61084A
:1024C3008C02120C61988B02120C61E98A02120CC5
:1024D30061DE8A02120C61CF8A02120C611AA10218
:1024E300120C61AE8A02120C61F2A002120C61E7B7
:1024F300A002120C617AA002120C6170A002120CED
:102503006157A002120C614DA002120C6143A0029C
:10251300120C6139A002120C617A8A02120C614E0C
:102523008A02120C61208902120C6125A002120C8E
:1025330061148702120C61E58602120C61C98602DE
:10254300120C61598602120C61689C02120C618C98
:102553008502120C615FE803120C61108502120CF4
:1025630061688402120C61C18302120C61638302ED
:10257300120C61388302120C61E98202120C61AB06
:102583008202120C61898202120C61668202120CB1
:10259300614D8202120C61058202120C614F8102AD
:1025A300120C61C38002120C61578002120C618EFF
:1025B3009A02120C61008002120C61F6F70300000C
:1025C3000080FBE4738F0001009A1A870001002941
:1025D3001B35000400EE1A25000200F21A26000241
:1025E30000F41A27000200F61A28000100001B2934
:1025F300000100011B84000400021B860001000689
:102603001B2A000100071B2B000100081B2C0001E3
:10261300000C1B2D000800811A2E0001000D1B2F3A
:102623000001000E1B300001000F1B3100010010E0
:102633001B32000100891A330001008A1A34000199
:1026430000111B360001008B1A38000100121B39E0
:102653000001000B1B83000200271B63000100978E
:102663001A64000100091B650001000A1B6D0001CB
:1026730000981A71000800791A66000100261B43AE
:10268300000100171B44000200181B450001001A3B
:102693001B460002001B1B470008008F1A4800015D
:1026A300001D1B4B0001001E1B040001002A1BA17F
:1026B3000001002D1B370001002C1B880001002B9B
:1026C3001B3C0001008C1A3D000100131B49000252
:1026D300001F1B67000100991A4D000200211B4EC9
:1026E300000100231B4F000200241B3E0001008E4B
:1026F3001A51000100141B52000100151B53000165
:1027030000161B540001008D1A0000000000000099
:102713000136360101000102010001030100010439
:1027230001060605020000070100340801000F0935
:102733000401010D0100FF0E08000017020000193B
:102743000100FF1A0100011B0100FE1C0100081D0E
:102753000200001F010001200100012102000023EB
:1027630001000F24020000260100012701000828B0
:102773000200FF2A0100072B0102402C0100002D5B
:102783000100012E0100012F0100FF30010B1D315B
:102793000800003A0100083B01000F3C0100013D25
:1027A3000100FF3E04000042040000460400004A0A
:1027B3000400004E04000052040000560400005AB6
:1027C3000400000103710301030103010301030179
:1027D30003220302030103100300030003000300A9
:1027E3000300030003000342030003240306030062
:1027F3000300030403120325032303250323030414
:102803000304030003000300034403000300032342
:10281300030003650321003503810300030503005F
:1028230003000300030003250323030304710402CD
:10283300046004110470040204020401040204107D
:102843000461040004140463047304720462044303
:102853000400041304060400040004040412040026
:102863000400040004000451046400000400040094
:102873000444040004000400040004650400043557
:10288300048104640005040004830400040300714C
:1028930000300160001100700031022003500480F9
:1028A30000100061000000140063007300720062F6
:1028B30000430000001300060000000000040012A3
:1028C300000000000000000000040004003700378F
:1028D300003C02440000000000000000006500000E
:1028E30000350081000000050000008300000001A6
:1028F3000171010101010111010101310101010115
:10290300018001100161013B001400630173017236
:1029130001620143010001130106013D0135000479
:10292300011201000100010001000104010401334F
:102933000133013C0144013201360000010001650D
:1029430001000135008101000105018201830100BD
:1029530001030271023001600211027002010202DE
:102963000202028002100261023A00410063027314
:1029730002720262024302000213023800000200E4
:102983000204021202000200020002000204020416
:1029930002370037003C0244020002390000020003
:1029A30002650200023502810200020502820283EF
:1029B30002000236000100060000000F00000000C4
:1029C30000000000000000000003FFFF00000403FC
:1029D300FFFF0000FFFF0FF4010005C40403200004
:1029E3000100000B000000000000000003010F00C5
:1029F30000000000000000000000000000000000D4
:102A030000000000000000000000000000000000C3
:102A1300000A00000002000000040000000800009B
:102A230000100000002000000040000000800000B3
:102A33000000010000000200000004000000080084
:102A43000000100000002000000040000000004FC4
:102A5300221300FB211F0001221F80072201004FC8
:102A6300220200BF210300C5210400CB210500D1B0
:102A7300210600DD213600EF21FFFF00000167136F
:102A8300069113088B130BA91310B510026D1305D0
:102A93007F130773130C4F130D5B13649524FF000F
:102AA3000007ECFDFDFDECDCDCCCBCACAC9C9C8CF1
:102AB3007C7C6C6C5C5C5C4C4C3C3C2C2C1C1C038C
:102AC300EAF5E5D5D5C5B5A595958585757565658E
:102AD300555545453535252515150500160F0000B7
:102AE3000B150B020002220F3300000E5A696742D6
:102AF3006565416C6C69616E636530390103050777
:102B0300090B0D0F00020406080A0C0D00034A49C5
:102B1300434E181A25050200011916181616182314
:102B230003000C0E020B040B0A0708000F303016CB
:102B3300181920231A1C1E3000393D3F373C3C3600
:102B43002C442D303017181921301B1D1F3002045F
:102B530002010101010902E803000000BE040A00AA
:102B63000000007F00E8030E00100C0A03050809AB
:102B73000908000CFF1E1E280508030404041500A1
:102B830001030CC082C083121A09900328741BF03E
:102B9300A37411F090032A7421F0A37411F090032D
:102BA3002C7427F0A37411F090032E742DF0A374EA
:102BB30011F0025EF074F712077BE9FE90031AE44A
:102BC300F0EE900319F0901B1B12528C125BDB7C0E
:102BD3008F7D1A7A1D7B03121FFD901B1DE090034E
:102BE30025F09003267479F0A3741A023A9674F0D0
:102BF30012077B8A088B09EB54807003022D4990DE
:102C03000319E0F9121E8F8A0A8B0BAE0AAF0BEE83
:102C13004F7003022D40125061707EEE241F125339
:102C2300D664137002A3E070708E828F83A3A3E037
:102C3300F50EA3E0F50F9003381258DC750A007502
:102C43000B00800D12390D125BDB121F13AA0CABA4
:102C53000DEA4B60448A828B83E0650E7004A3E027
:102C6300650F70288A828B83A3A3A3A3125074E5F4
:102C73000A450B8A828B83A3A3A3A360C71247C30E
:102C8300850A82850B83A3A3A3A380BB8A0A8B0B2C
:102C93008A828B831258D880B8EE242A1253D6F92D
:102CA300126955900338123D88A3A3A3A3A3A3A33A
:102CB300A3E0640270378A828B831258DC80078C0E
:102CC300828D83123FE8EC4D60208C828D83E06A15
:102CD3007003A3E06B70E88C828D83A3A3E069701B
:102CE300DE901B231249F9F0804C1211578E828F0C
:102CF30083E064017034EE2418122DA7120C9D1288
:102D03004710120AB8EE2412122DA7120C9D124777
:102D130004120C991263ED120ABCEE241712471821
:102D23001219C7740A120CAC800CE064027007EE2F
:102D3300FAEFFB121265EEFAEFFB121E7DAA08E50D
:102D4300096480FB805BEAA2E050149003301257C1
:102D5300F36006126D281225C6E508640180395414
:102D630002600C901AA97401F0EA6402FA8032EA54
:102D7300540860291211518B0BEA450B701690030E
:102D83003AE4F0A3F0A3F0A3F07A08FB900319E070
:102D9300F9121FD3E5086408FAAB0980047A007BB3
:102DA3000002414E1250E2F50A780A2274F4120727
:102DB3007B8A088B098A828B8312664912460838FC
:102DC300F583E02409FA7B00121E778A0A8B0BAE87
:102DD3000AAF0BEE4F7003022E738E828F83740241
:102DE300F0A3E4126E6EA3A3A3A3E8F0A3E9126910
:102DF3007DA3A3A3A3A3A3A3F0E5082403F8E435C9
:102E030009125B7E1246083AF583123D81F0EE24E7
:102E130009FAE43FFB8E828F83A3A3126284F583B6
:102E23008882E0A2E58E828F83A3A3A3A3A3500489
:102E330074018001E4F0E5082403F8888289831291
:102E430058DCEA1245FC3BF583122E78120C95EA06
:102E530024101263F58E828F831258DA121E59746E
:102E630003120CACEEFAEFFB900319E0F9121E8388
:102E73000237DDA3A3E0F508A3E0F509750A00789E
:102E8300082274F212077B8A088B09ECFAEDFB74B3
:102E93000E120FA0E0FC121A398A0C8B0DAE0CAF88
:102EA3000DEE4F6030AC08AD09121A27E96026AC6D
:102EB30008AD09EEFAEFFB121A2DE970148E828F1A
:102EC300831247B7FAEFFB121A21AA08AB09121AA9
:102ED300517900800279B48003120CAC7F06020A98
:102EE3003374EE12077B74F7120D2A8A0A8B0BECEC
:102EF300FEEDFF750CB3750D00750E008002050E17
:102F0300902B7EE493F8E50EC3984003022FF3AAB7
:102F13000E7B00121A758A088B09EA450960DF8A5D
:102F2300828B83A3A3A3A3A3E0250DF50DF8C3E52B
:102F33000A98E50B940050C67C157D007900EEFAE3
:102F4300EFFB121E65850882850983A3A3A3A3A3B0
:102F5300E0F8E50AC3950D2825E0F8E433F9E50820
:102F630028F582E50939F583123B57125BDB12140E
:102F7300698A0A8B0BAC0AAD0BEEFAEFFB121FFD4D
:102F8300850882850983A3E06401700B12471074DE
:102F9300011279EBA3803DAC18AD19850882850930
:102FA300831258DA122555E9602D7408120FA0E038
:102FB300C0E0124710D0E0F07408120FA0E06403E1
:102FC300700CAC18AD19123D79121FFD80098518DC
:102FD30082851983125BCF8508828509831241306C
:102FE300A3A3126E2CC0E012433FD0E0F0750C0097
:102FF300A90C740902721574F712077BE9FE8A8221
:103003008B83A3A3A3A3A3A3E0540860338A828B77
:1030130083A3A3A3A3A3A3E0540260218A828B8387
:10302300A3A3A3A3A3A3A3A3A3E06406600F74E9CC
:103033006E600A74CD6E600574F06E700312113900
:10304300024C6F74E812077B74F8120D2A7406128F
:103053000FA01250B3ECFEEDFF8917751500123265
:10306300B8121A458A0A8B0BEA450B7003023265C4
:10307300EE24101253D6FAA90A121A5D8A128B1380
:10308300EA45137003023265EE2403F50CE43FF5C1
:103093000DEE2406F508E43FF5097C00850882124D
:1030A300465C121A4B8A108B11850C82850D831294
:1030B30032AD12595D851282851383A3A3A3A31294
:1030C30054C31232ADA3A3A3A3125803851282855E
:1030D3001383A3A3A3A3A3A312720D126E11120C45
:1030E30095EE1246083F1263F9851282851383A376
:1030F3001258D4121E597403120CAC7428120FA068
:103103001247C3E5121249EB3513125BD9742A1225
:103113000FA0E0C0E0E5121245FC3513F583D0E0C3
:10312300F07514007423120FA0E0F5167424120F27
:10313300A0780C120F310231EC85108285118312B5
:1031430058DA121A63850882850983A3EAF0A3EB90
:103153001232CFA3A3126A3E1232C9A2E6500F85E0
:103163000882850983A3A3A3A3A3E0D2E1F0E51515
:1031730070668508828509831247C290036EE068F2
:103183007003A3E0697051850882850983A3A3A313
:10319300123F187510007810120C9D780C120C91C8
:1031A300E516F5107810120C9D7426120FA0120A62
:1031B300BC90037B120ABC79007410120FA0126931
:1031C3005D1212A7740A120CAC850882850983A3C9
:1031D300A3A3A3A3E04405F074012514FC1232B8A1
:1031E300121A4B8A108B110514E5104511604EC35A
:1031F300E514950AE4950B5044E51475F006A4F81C
:10320300A9F0E51228F8E51339F9E8240FF508E4E5
:1032130039F509850882F583E4127E0BE0640160C9
:103223000302313C751501850882850983740112F7
:1032330032CF125336A3E8F0A3E9023153AA12ABFB
:1032430013120FC57812120C99AD167424120FA025
:10325300E0FCA917EEFAEFFB1211337402120CAC67
:10326300803E8E828F83A3A3A3E0C0E07403120F7A
:10327300A0D0E0F0EE24121253D6C0E07404120F73
:10328300A0D0E0F0E50A450B70097405120FA07495
:10329300B980077405120FA074101264021212A1F0
:1032A3007408120CAC7F10020A33E0851282851376
:1032B30083A3A3A3228E828F831258E08E828F83EF
:1032C300A3A3A3E0F922A3126AFCE022127E0FA3B8
:1032D3002274E812077B74F2120D2AE9851882859D
:1032E3001983F08A0C8B0D8C168D177426120FA080
:1032F3001257C1AA08FB122453E9F514AA08AB0913
:1033030012244DE9F515E514700302359175130088
:10331300800F8E828F83A3A3A3A3A3E0D2E3F00540
:1033230013124349E0F8E513C3984003023588E5D7
:10333300147003023588E51375F006A4F8A9F0E5C7
:103343000828F8E50939F9E8240FFEE439FF8E82ED
:103353008F83A3A3A3A3A3E0A2E040C3750E008EB3
:10336300828F83E070431258DB1224D78A0A8B0BB7
:10337300A80AA90BE849603188828983A3A3A3A380
:10338300E06401600D88828983A3A3A3A3E064039F
:1033930070178E828F83A3A3A3A3A3E0D2E7F07554
:1033A3000E01E5157003023322750F00750A0875C7
:1033B3000B00E5176003750F207C087D007900740E
:1033C30001120D02121E658E828F83E0604490030A
:1033D300BEE06401701CE50FD2E3F50F750B10120C
:1033E30047BE7401120FA0E8F0A3E91247DA74FF95
:1033F300803E430F0C750A0C8E828F83A31235A473
:10340300A3A3A3A3125BDB7401120FA074FFF0A3A9
:10341300801E851882851983E06009E50FD2E6F5E1
:103423000F750A0A1247BE7401120FA0E8F0A3E950
:10343300F07403120FA0E50FF0124606350DF58365
:10344300E0C0E07405120FA0D0E0F07406120FA0E4
:103453007401F0120D0212126B740D120FA0E060D2
:10346300030235637409120FA01259498E828F83A8
:10347300A3A3A3A3F07409120FA012509CE50AF0B2
:10348300A3E50BF0125057E5161232CA60119003F0
:10349300BEE0C0E07409120FA012508CD0E0F074AB
:1034A30009120FA0124359A3A3A3123596241C1289
:1034B30050AD12727512359612504EEAF0A3EB120C
:1034C3006D55C0E0125044D0E0126E1DC0E0740987
:1034D300120FA0124B8BD0E012669FC0E07409124A
:1034E3000FA0124B7FD0E0F07409120FA01235A485
:1034F300124B6E1236E5123596242C1250ADE50CA4
:103503001249CB350DF583E0C0E0124B66D0E0F0F5
:103513007409120FA01258DC850C82850D831235B5
:103523009B2428F582E43B125BD9E50C1245FC355C
:103533000DF5831272257512007810120C95124640
:1035430006350D1263F9EA12661E3BF5831258DC49
:10355300121E597403120CAC7401120D0212127173
:103563008E828F83A3A3A3A3A3E0D2E0F0740D12F2
:103573000FA0E06003023315E50EA2E0500215151B
:1035830015140233227900AA08AB0912113F740EF5
:103593000232A51258E6E822A3A3A3A31247C7EA5F
:1035A300221247C7850C82850D832274EE12077B96
:1035B30074E9120D2A8A088B09890A8A828B83A3EC
:1035C300A3A3A3A3A3A3A3E0F9120FDD8A0C8B0D7E
:1035D300EA450D700302367412578D124003E50A53
:1035E30060030236797C04850882850983A3A3A33B
:1035F300A3A3A3A3A3E0F9120FE3EE4F60738E829C
:103603008F83A3A3A31247C27406120FA01262678B
:103613001247C27408120FA01260D4C0E0741012D3
:103623000FA0D0E01236E51247C2740E120FA0129B
:103633005BDB7411120FA0E412594EC8241FF582EC
:10364300E438F58312558AC413135403FC70027CC7
:10365300048E828F83E0F9780C120C99742059FD43
:10366300744059F97402120D021211337402120CD0
:10367300AC74170272157C08850882850983A3A39D
:10368300A3A3A3A3A3A3E0F9120FE38B0FEA450FB0
:1036930070030235FDEE4F60D8E50AF50B780B1287
:1036A3000C9D850C82850D83A3A3A3A3A3A3A3E0F1
:1036B300F50B780B120C9D8A828B83A3A3A3E0FBEB
:1036C3008A82850F83123FEB8A82850F83E0FA8E0D
:1036D300828F83A3A3E0F91219C17402120CAC0206
:1036E3003601F0850C82850D83A3A3A3A3A3A3A313
:1036F300A32274F712077B74FA120D2AE9FE7C01E8
:103703007D017F0080037D000F1253CBE0F8EFC3F0
:10371300985028EF75F006A4F885F008A908EA2860
:10372300F8EB39F9E82414125D69A2E050D8540C7F
:1037330060D4E0A2E250D17C0080CD8A828B83A347
:10374300A3A3A3A3A3E0703DEDA2E0400574016E23
:1037530070338A828B83A3A3A3A3A3A37401124A06
:1037630033E0C0E07403120FA0D0E0124A2BE0C094
:10377300E07404120FA0D0E0F07405120FA0EC1255
:1037830064021212A17406024C6CC082C0837901D8
:1037930012113F025EF074F412077BEA4B901AA9F0
:1037A3006022E4F08A088B09F50AF50B7808120CFD
:1037B300917A027B00900319E0F9121FC774041277
:1037C3000CAC800F7401F07A027B00900319E0F9CE
:1037D300121FD380057402120CAC7F04020A3374E7
:1037E300E812077B74FC120D2A7402120FA0E4F096
:1037F300A3F0900338124003851882851983E4F0FF
:10380300A3F0751401900368E0A2E3500302389912
:10381300121FE58A088B098C0A8D0B8A0C8B0D8C81
:103823000E8D0F90033A780C120D12123914781082
:10383300790C120ED550077A017B00023908850CEA
:1038430014850D15850E16850F1778147910120738
:103853000CA814A915901B23E0C398E4995003E026
:103863008001E8F514123914780C791012070CE46E
:10387300F512F51378087910120DE590033A7808DC
:10388300120F22801112390D125BDBEEFAEFFB12DD
:103893001F13AE08AF09EE4F60638E828F83A3A31D
:1038A300A3E0F8E514C3985029EE2403F582E43F1E
:1038B300F583A814E0C398F060217402120FA012DC
:1038C30047D112510DEEF0A3EF1266A4FEA3E0FF61
:1038D30080C48E828F83A3A3A3E4F08E828F83128E
:1038E30057BD8518828519831257F38E828F83A360
:1038F300A3A3A3609012696F125B99808B74021269
:103903000FA01258DC74040232A51247C790033883
:1039130022901B21E0F510A3E0F511E4F512F51355
:103923002274F212077B8A0A8B0BE9FE7A007B0072
:103933009003381257C19003381257F3601E0A855B
:103943000882850983A3A3A3A31257F3600E0AEA8F
:1039530070010B88088909E8450970E3901B24125C
:1039630047C3C3EA98EB994003023A177A067B00F0
:10397300121F0D8A0C8B0DA80CA90DE849700302C8
:103983003A1788828983E50AF0A3E50BF0EE888273
:103993008983A3A3F0901B23125DDBA3A3A3124A85
:1039A3005BA3A3A3E4F0A3F09003381247CB600F0B
:1039B300850882850983A3A3A3A3125BDB801F90E1
:1039C3000338125BDB900368E0A2E34011121FE5AA
:1039D300EAF8EBF9ECFAEDFB90033A120F7190035E
:1039E30068E0A2E3502E7A087B00900319E0F912F5
:1039F3001FD9EA4B4C4D701C901B2112784F78084D
:103A0300120C917A087B00900319E0F9121FCD7410
:103A130004120CAC022EDFC082C083E9901AAAF014
:103A23009003327475F0A37411F09003347487F02B
:103A3300A37411F09003367499F0A37411F0025E2D
:103A4300F074F712077BEAFEEBFF8908EE4F700371
:103A5300121AAB90033E1257F3700890033E802274
:103A63001247C388828983A3A3A3A3A3A3A3A3A366
:103A73001247CB88828983A3A3A3A3A3A3A3A3A34E
:103A830070DEEEF0A3EF126A5AA3A3A3E4F0126A66
:103A930059E508F0024C6F74F712077B90033E80E0
:103AA3000D8E828F83A3A3A3A3A3A3A3A3A31240D7
:103AB30003EE4F60348E828F83A3A3A3A3A3A3A398
:103AC300E06970DD8E828F83A3A3A3A3E06A7003F2
:103AD300A3E06B70CC8E828F83A3A3A3A3A3A3E0E5
:103AE3006C70BEEEFAEFFB80047A007B00024C6F31
:103AF30074F712077B90033E12400390033E123586
:103B03009F687002EB69701EE0C82409F582E438EF
:103B1300F5831247C390033E125BDB90033E1240D2
:103B2300038027123FF6EE4F60208E828F83A3A37C
:103B3300A3A3A312359B687002EB6970E68A828B9C
:103B430083A3A3A3123B57125BDB121F13EEFAEFFF
:103B5300FB024C6FA3A3A3A3A3A3124365A3A3A335
:103B6300A3A32274F012077B74FA120D2A8A088B1E
:103B7300098A828B83A3A3A3A3A3A3A3A3E0603394
:103B83006401602F8A828B831258DC1214EDE97072
:103B930022850882850983A3A3A3A3A3A3A3A3E0E8
:103BA300640370147404120D0AAA08AB091211F30A
:103BB300E970167902023D628508828509831247FE
:103BC300C37404120FA0125BDB126FF4243412626D
:103BD30052121F0D8A0A8B0BAE0AAF0BEE4F700306
:103BE300023D607C347D007900121E657402120D63
:103BF30002850882850983A3A3A3A3A3A3A3A3A3E5
:103C0300E0F9121A037402120FA0E0C0E0123D7132
:103C1300D0E0F0EE242EF50AE43FF50B7403120F07
:103C2300A0E0850A82850B83F07901EEFAEFFB129F
:103C3300116385080C85090D750E00780C120C951F
:103C43007C1E7D00123D79121E597403120CACEEDA
:103C530024321241262434F8E43FF98A828B8312FA
:103C63005BDBE5082411F8E43509F9E8FCE9FD8C90
:103C7300828D831250A82430125BD512411E127B11
:103C830002120C958C828D83123D881258DC121E11
:103C9300597403120CAC7404120FA0124361125B2B
:103CA300DB90031A123D81A3A3A3F090031AE0044F
:103CB300F0121FE58E828F831250F7242C124631A7
:103CC300750D00850A82850B83E0780C120E1F8A1E
:103CD300828B83E50CF0123D67E50C12510DE4F085
:103CE300E5082415126FF8A2E074015007120FA023
:103CF30074018004120FA0E4F0EE24291257B4AA31
:103D030018AB191219EBE924FE850882850983F0A3
:103D1300EE2430F8E43FF9E8FCE9FD123D9012058A
:103D2300A4E88E828F83A3A3A3A3A3A3A3A3F012C8
:103D33003D901205A48B09EA4509600F8E828F839B
:103D4300A3A3A3A3A3A3A3A3E004F0EE24201253ED
:103D5300D6440812467D121EB97900800279107488
:103D63000602414BEE242BF582E43FF58322EE124B
:103D7300661E3FF58322EE240BFAE43FFB22126911
:103D830085A3A3A322123FF08A828B83228C828D88
:103D93008312533AE0FA7B002274F412077BEAFEA3
:103DA300EBFF121FE58E828F831250B3901B17E037
:103DB300F8EE242D1253D6C3984003023EFD12465B
:103DC3003D7012EE242D1253D604125409C0E01292
:103DD3003D67D0E0F0EE242A1253D6FC790080012F
:103DE30009EE242E1253D6F8E9C39850267508011C
:103DF300750900E97808120E1F12463D550860E068
:103E0300E92CFC750801750900E97808120E1FE01A
:103E13004508F0EE24291253D6FAEE2430F582E455
:103E23003FF583EC8AF0A4F8ABF0E42BF9E098F8C3
:103E3300A3E099F9C3E89AE99400EE4031242912EA
:103E430053D6F812463D602C123D71123F18A3E47D
:103E5300F0EC7047EE24201253D644201260D8C0F1
:103E6300E01253F7D0E0125401FAA3E08052123D5E
:103E73006874FFF090035EE0FA901B1A123F0FABD9
:103E8300F075F064A4FAADF075F064EBA42DFB8E2D
:103E9300828F83A3A3EAF0A3EB80B5EE2420125311
:103EA300D654DF1253F2ECF0FAEE2429F582E43F04
:103EB300F583123F0FFAABF0EE12503E3F1246531A
:103EC300FB126DF5EAF0A3EB126A69C0E0EE24255C
:103ED300F582E43FF583D0E01250C4E81258039012
:103EE30003401257F3600BECF9126D281225C6E953
:103EF3007017123D791211C9800F7BE912413C12F0
:103F030019BBEEFAEFFB12116F0237DDE0F508EA99
:103F13008508F0A422126985A3F02274F412077BAA
:103F230090033E124003121FE58A0A8B0B78FF7938
:103F3300FF8020E0C39AFCA3E09BFDC3EC98ED99BE
:103F4300500E8E828F83A3A3E0C39AF8A3E09BF95C
:103F5300123FF6EE4F605C8E828F831258DCE50AC7
:103F6300C39AFAE50B9BFB8E828F83123FEAC3EA67
:103F73009CEB9D8E828F83A3A340B8A3A3A3A3E04E
:103F83006402701AEE240B124640600912461C129A
:103F930058DC121E7DEEFAEFFB12116F8007EEFA6A
:103FA300EFFB12117B7A017B00901AAAE0F9121E33
:103FB300B9802974FF68700374FF69601F880889DA
:103FC30009E4F50AF50B7808120C917A017B00904D
:103FD3001AAAE0F9121FC77404120CAC0237DDA34E
:103FE300A3A3A3A3A3A3A3A3A3123FF022E0FCA331
:103FF300E0FD228E828F83A3A3A3A3A3A3A3A3A3E2
:10400300E0FEA3E0FF2274F012077B8A088B09EC21
:10401300FAEDFB890A7C01126FF4F91211698A0C1B
:104023008B0DAE0CAF0DEE4F7003024112E50A602B
:104033000302411212411E1241346860030241120D
:1040430012411EE0FAEE242E1253D6F8EA28FAE4BF
:104053003400FB8E828F83A3A3A3A3A3A3A3A3E014
:10406300F8EA98EB9400C365D033401CE5082414A8
:10407300126FF8F470127B0012413C1219BBEEFA76
:10408300EFFB12116F024112E5082414126FF8F4CA
:104093007042EE242B124126242EF8E43FF9E8FC6B
:1040A300E9FD7508FF7509008C828D83E07808129D
:1040B3000E1F8A828B83E508F0124114E508F08C09
:1040C300828D8312413428F0EE242DF582E43FF5EE
:1040D30083E4801BE5082414F8E43509F9E0C0E023
:1040E300124114D0E0126279C0E0123D67D0E0F0D3
:1040F300121FE58E828F831250F7123D72124130E8
:10410300A31258037A01FB901AAAE0F9121EB98090
:104113003AEE242CF582E43FF58322E508241312BA
:10412300435122F8E43FF9E8FAE9FBEE22126985EC
:1041330022E0F8EE125D80E022EE24221250E2FA31
:10414300EE24141250E2F922120CAC7F08020A3357
:1041530074EC12077B74FE120D2A8A0A8B0B8C0EE9
:104163008D0F89108A828B83A3A3E0F91219DF8A4A
:10417300088B09AE08AF09EE4F70077A007B000287
:1041830043357A127B00121F0D8A088B09EA450911
:1041930070030243317C127D007900121E65AA1858
:1041A300AB19850A82850B83A3A3E0F9121A03E5F1
:1041B30008240FF50CE43509F50D7401120FA0E086
:1041C300850C82850D83F07902AA08AB091211636D
:1041D300850E82850F831243591243771245F012DD
:1041E3006A35F07512FF751300850C82850D83E027
:1041F3007812120E1F127275E512124B97126D266A
:10420300E0C0E0124349D0E0F0124612F50CE50895
:10421300240D127279E50CF0E50A124624850CF0A0
:10422300A4A9F02427FAE439FB121E778A0C8B0D1C
:10423300AE0CAF0DE508126CFEEEF0A3EFF0EE4FFF
:1042430070030243248E828F83741A1258038E8262
:104253008F83A3A3F0A312437D124361125BDBACF4
:104263000EAD0F126DFF1219FD850A82850B83A314
:10427300A3A3E0C0E0125580D0E0F090037B12507E
:10428300A82410124371125096350B1250A61263D4
:10429300E4E8F0A3E912437DA3A3A3A31250A82447
:1042A30012125BD5850A82850B83A3A3E0C0E012BB
:1042B300433FD0E0F0E50A1249EB1245F7E0C0E0D6
:1042C300126755D0E0F07416120FA0126D2EC0E0E5
:1042D300126FE2D0E0126A54C0E0126D04D0E01213
:1042E3006D37C0E0126D0ED0E01250B9E510F074D6
:1042F30018120FA0120F89EE241AF582E43FF583FA
:10430300120F71EE2427F8E43FF9EE2422124371D1
:1043130012623E1245F7E0C0E0126E07D0E0F08073
:104323000DAA08AB0912116F750800750900AA08D8
:10433300AB097402120CAC7F0C020A33EE2414F5A1
:1043430082E43FF5832212434D22E508240BF582D4
:10435300E43509F5832212533AA3A3A3A3221243FC
:104363006522126B118E828F83A3A3A3A322F582EE
:10437300E43FF583125125E50A22F0850A82850B75
:1043830083A3A3A3A3A3A32274ED12077B8A0A8B9F
:104393000B8C108D118912750900EA124624F50859
:1043A3009003401257F3600EA908126D281225C618
:1043B300E960030245EB7C02851082851183125864
:1043C300DCE50A1245F0E0F91211698A0C8B0DAE97
:1043D3000CAF0DEE4F7054850A82850B83A3E0A2C8
:1043E300E040030245EB7415120FA0120AB87417CC
:1043F300120FA0120ABCA912AC10AD11AA0AAB0B82
:1044030012118D7406120CAC8A0C8B0DAE0CAF0D11
:10441300EE4F70030245EB8E828F83A3A3A3A3A366
:10442300A3A3A3E50812467D121EB9A8088E828FA6
:1044330083A3A3A3A3A3A3A3A3E024FFFAE434FFCA
:10444300FBEA684B7003750901EE240B12464070BA
:10445300030245A0850A82850B83A3E0A2E05003F3
:1044630075080012466AE5089AE49BC365D0334099
:104473001CE0F8EE240E1253D628F0750CFF750DD0
:1044830000E8780C120E1F125FF4E50CF0E50A1237
:1044930045FC1245F7126E45120C95E50A124608C3
:1044A300350B1263F9EE240D1253D6F50CE508858E
:1044B3000CF0A4FAABF012461C12664C2422F582CF
:1044C300E438124653FB121E597403120CAC750CDC
:1044D30001124645780C120E1F1253D3450CF0E51A
:1044E30009A2E05063EE240C1246311246450478CB
:1044F3000C120E1F8A828B83E0450C1250D785085D
:104503000C850CF0A4F8A9F0124612FCE82CFCE48C
:1045130039FD12461C12664C2420F582E438F583DB
:10452300ECF0A3ED1250FEF4701EEE240BF50CE438
:104533003FF50DEE1246083F12465C121E83850CB2
:1045430082850D8374FF8054121FE58E828F831240
:1045530050B390035EE0FA901B1AE0F50CEA850C69
:10456300F0A4FAABF0F8EBF9901B17E0F50CE88533
:104573000CF0A4F8ACF0850CF0E9A42CF9EA28F8C7
:10458300EB39F9E875F064A4F8AAF075F064E9A4CE
:104593002AF98E828F83A3A3E8F0A3E9F0A8081277
:1045A300466AEA24FF1AEB34FFFBEA687001EB600A
:1045B3000EEE240C1246406006E509A2E05029E500
:1045C3000A124629ECF01253D3C0E0E50A2414F58D
:1045D30082E41245F7D0E0F0AC0AAD0B851082857A
:1045E30011831258DC1211B77F0B020A331249CB25
:1045F3001245F722350BF5832212460022240EF5CD
:1046030082E422E50C12460C222410F582E422E512
:104613000A12460C1245F7E022EE12460C3FF583D0
:1046230022124629E0221249C5350BF58322F8E40C
:104633003FF9E8FAE9FB750CFF22EE242B1250E256
:10464300F422750D001250DFF5F0E50884E5F02241
:10465300F583E02AFAA3E03B22F5831258E6850CA2
:1046630082850D83E0F922EE240E1250E2FC1250F3
:10467300DFFAEC2AFAE43400FB22F07A017B0090A3
:104683001AAAE0F922C082C083901AAAE0F9121E86
:1046930083025EF074F412077B8A088B09EB548063
:1046A300703BEAA2E05053121181E5086401FAABB2
:1046B30009804B8E828F83E06401701A12471012B7
:1046C3000AB8124704120C99EE2412124718121159
:1046D300937406120CACEEFAEFFB121E7D901AAA2D
:1046E300E0F9121E8F8A0A8B0BAE0AAF0BEE4F70E6
:1046F300C2AA08E5096480FB80047A007B000237C4
:10470300DDEE240FF50AE43FF50B780A22EE124999
:10471300C53FF583221250E2F9EE2402FCE43FFD8B
:10472300EE2419FAE43FFB22C082C0839003428047
:10473300048C828D83123FECEC4D60288C828D8338
:10474300A3A3E069600574FF6970E68C828D83A37F
:10475300A3A3E06A7003A3E06B70D6EC2403FAE42E
:104763003DFB80047A007B00025EF074F712077B46
:10477300E9FD74FE6D70047C0180027C00900342AD
:1047830080096D70027C01888289831257F3601F50
:1047930088828983A3A3A3E06A7003A3E06B70E715
:1047A300ECA2E088828983A3A3E050D6F980027942
:1047B300FE024C6FA3A31257C5EE228E828F83A3F2
:1047C3001247C722126B11221258E6EA4B22E02449
:1047D30001F0A3E03400221247DE221247E2221244
:1047E30047E622126AFCA3A3A32274F612077B8C6A
:1047F300828D83A3A3124A21F0EA2417F582E43BB6
:10480300F583E0C0E01249F1D0E0F01249D112473C
:10481300C31249DB124A21A3F0A3F0EA241FF58255
:10482300E43BF583124003EC1250963DF583EEF022
:10483300A3EFF0EA125FEE3BF583124A02A3A3A3B0
:10484300A3A3A3EEF0A3EF126279FE8C828D8312F1
:104853004A4B74035EFEC3940340030249B8EE60FF
:104863000574026E70798C828D83E0540CFE740C97
:104873006E700302491FE0A2E4400D88828983E041
:104883008C828D83A3124A5374086E600302491FFE
:104893001249E37401F08A828B83A3A3A3A3A31217
:1048A3005AA670148C828D83E0440C124A2BA3A366
:1048B300124A02EEF0A3EFF08C828D83E0A2E44073
:1048C3001E124A10124A3C500109124A10A3A312A5
:1048D3004A3C500109888289831249F9124A4B885C
:1048E300828983E0C0E0EC1249CB3DF583D0E0122E
:1048F3004A4B8C828D83E0A2E7507888828983E0DB
:10490300FE8C828D83124A5374FC5E700C8C828DF4
:1049130083A3E054036403701B0249B81249E3E420
:10492300F0740C6E6003024899124A10124A3E500A
:10493300870980848C828D83A3E054036038888246
:104943008983E0C0E0EC1249C53DF583D0E0124A0B
:10495300548C828D83E054036402701A88828983A5
:10496300E0C0E0EC2414F582E43DF583D0E0124A84
:10497300548003A3E4F0EC1245FC3D125BD9EC2414
:1049830010FEE43DFF1249D1E0F5088E828F83E0EB
:10499300C3982508F508F0EA2417F8E43BF9888260
:1049A3008983E0C39508C0E01249DBD0E012627945
:1049B300C39508500A1249DBE4F01249F1E4F0020E
:1049C3004A652413F582E4222411F582E422EA24C1
:1049D3001DF582E43BF58322EC125FEE3DF5832265
:1049E300EC1249EB3DF58322240CF582E422EC1210
:1049F300460C3DF58322E08C828D83A3A3A322E0A2
:104A0300FEA3E0FF8C828D83A3A3A3A322888289C4
:104A130083E0F508A3E0FFE5088C828D8322E4F0B0
:104A23008C828D83A3A3A322124A33A3A3A3A3221D
:104A3300F08A828B83A3A3A322A3A3A3A3A3A3F09C
:104A4300A3EFF0E82402F822124A5BA882A983228A
:104A5300A3124A5B08A9832212627EA32274021264
:104A63000CAC7F02020A3374F412077B74F3120D49
:104A73002A8A0A8B0BECFEEDFF8E828F83E0540CA7
:104A8300F508E0A2E75006E508D2E7F508E508D205
:104A9300E1F508125AA67006E508D2E4F508E0A28B
:104AA300E55006E508D2E5F5087C087D007900AA03
:104AB30018AB19121E657402120FA0E508124B976A
:104AC300C0E07403120FA0D0E012510DE50AF0A369
:104AD300E50BF07405120FA012640012126B740C34
:104AE300120FA0E070787408120FA012664C1262C5
:104AF3003E38126B21C0E07408120FA0124B8BD00A
:104B0300E012669FC0E07408120FA0124B7FD0E042
:104B1300F07408120FA0125258124B6E1260D81282
:104B230050EA24111253D6C0E0124B66D0E0F0EEE7
:104B330024141253D6C0E07408120FA012664C243A
:104B430035F582E438F583D0E01250CFC0E0740825
:104B5300120FA0125080D0E0126402121271740D71
:104B63000237DAE812503E39F583221258E0E8247E
:104B73002AF582E439F583EAF0A3EB2212669A243C
:104B830027F582E438F5832212669A2426F582E417
:104B930038F58322126AF7E02274F712077B7E004E
:104BA3008A828B83A3A3A3A3A3A3A3A3A3E06404E5
:104BB3006003024C48125962E06003024C48124CF5
:104BC3004C3B1257F1607E88828983E054037075F1
:104BD300E8240C125D69FA8C828D83A3A3E0FBA306
:104BE300E0CB1249CB3BF583E06A70598882898315
:104BF300A3A3A3A3A3124C57E06A7003A3E06B70B3
:104C03004488828983124C57A3A3125D962406120B
:104C130053D66A7003A3E06B702B88828983A3A3A6
:104C2300E0F88C828D83A3A3E0F9A3E0F583898266
:104C3300A3A3E068600D8C828D83125588540C64A5
:104C43000470027E01EEF98023EA124C5122240FF4
:104C5300F582E422A3A3A3A31258E68C828D8322B8
:104C6300740C120FA0E0F9740D120CAC7F01020A50
:104C73003374F612077B74FC120D2AEAFEEBFFEC89
:104C8300FAEDFB8A828B83A3E0540360169003340E
:104C93001257F360597900EEFCEFFD126D281225CF
:104CA300C6804B851882851983EEF0A3EFF074025A
:104CB300120FA01250B3AC18AD197ABD7B111214A8
:104CC300038A088B09A808A909E849602188828911
:104CD30083A3A3A3A3A3A3A3A3A37406F07A008827
:104CE30082898312664C126624E0F912134374041A
:104CF300024A6274F212077B74F3120D2AEAFEEB86
:104D0300FF8E828F83A3A3A3A3A3A3A3A3A3A3E041
:104D1300F50A901AA9E0700579BA025039750801AD
:104D2300750900750C00750D007C087D007900AADB
:104D330018AB19121E657405120FA07401125105E8
:104D4300540460127402120FA0E0D2E6125105540B
:104D5300087003750803E05410600674404508F5B5
:104D630008E0540860227402120FA0E044C01251FC
:104D7300055420600A7403120FA0E0D2E080087487
:104D830003120FA0E0D2E1F0EE24151253D6125015
:104D9300687003740169700674084508F5088E820B
:104DA3008F83A3A3A3A3A3A3A3A3E0701612146FDB
:104DB3008518828519831250B37402120FA0E0D2B2
:104DC300E2802C640F70107402120FA0125115743C
:104DD300044508F508807B8E828F83A3A3A3A3A336
:104DE300A3A3A3E064028E828F8370061260CCF0CB
:104DF3008060A3A3A3A3A3A3A3A3E06403700DAC48
:104E030018AD19EEFAEFFB1211F380468E828F83F1
:104E1300A3A3A3A3A3A3A3A3E0640170359003BE3C
:104E2300E060107402120FA0125115750910750A73
:104E3300FF80187402120FA0E0440C12510D74FD90
:104E4300F0A374FFF074044508F5088E828F831273
:104E53005074EE24151253D6A2E0503F7402120F81
:104E6300A0E0540C701B8E828F831258DC12232D0A
:104E7300E9700579BB0250397402120FA0E0D2E544
:104E8300F0EE24151253D6A2E050107402120FA0B4
:104E9300E0540C64047004E0D2E5F0EE24111253E4
:104EA300D6C0E07404120FA0D0E012640212126B99
:104EB300740C120FA0E060030250327408120FA0AA
:104EC30012509CE508F0A3E509F0EE24181253D61E
:104ED300C0E0125057D0E01250B9E0C0E07408129D
:104EE3000FA012664C1249C538F583D0E01260D882
:104EF300640170119003BEE0C0E07408120FA012A9
:104F0300508CD0E0F07408120FA01250A82417128E
:104F130053D6FAE8241CF582E439F583EA125803E0
:104F2300EE2415FAE43FFB8A828B83123FECE812EE
:104F3300504EECF0A3ED1250C4E0C0E0125044D048
:104F4300E01250FE12506870037401697013740804
:104F5300120FA0125949FAEE241D1253D6F9120F5B
:104F6300E98E828F83A3A3A3A3A3A3A3A3A3E0C0D8
:104F7300E07408120FA0124B8BD0E0F07408120FEC
:104F8300A0124B7FE50AF07408120FA01257D12428
:104F930028F582E439F583E50CF0A3E50D1250D72B
:104FA300FAA3E0FBE8242A1250F1240F1253D6127D
:104FB30050EA24171253D6C0E0E82433F582E439CB
:104FC300F583D0E0F0125061C0E07408120FA01214
:104FD3005080D0E0F0EE241A1253D6C0E0740812C9
:104FE3000FA012664C12503E38F583D0E01250CF1A
:104FF300122E79120C95126CF6123FEC740B120FF1
:10500300A01260AA121E597403120CACEE241512DE
:1050130053D65440601290034E1257F3600AAA18F5
:10502300AB19126D281225C6AA18AB191212717486
:105033000C120FA0E0F9740D022EDC2432F582E489
:1050430022E82420F582E439F58322241EF582E444
:1050530039F58322E82412F582E439F58322EE241C
:105063001B1250E2225480F8A3E05401F9748068C3
:105073002212507822E0F50CA3E0F50D2212669A75
:105083002434F582E438F5832212669A1250963856
:10509300F583222415F582E4221257D5124C513997
:1050A300F58322F5831247C7EE22F582E439F583AF
:1050B300EAF0A3EBF022F0EE2419F582E43FF58346
:1050C30022F0EE241CF582E43FF58322F0EE241354
:1050D3001250E222F0EE240D1250E222EE240FF5DC
:1050E30082E43FF583E022FAA3E0FBE8242CF58277
:1050F300E439F583EAF0A3EBF0EE22F08A828B83A6
:10510300E022F0EE24151250E222F0851882851970
:105113008322E0D2E3126F1412511F228518828575
:105123001983E8F0A3E9F02274F712077B7E638A00
:10513300828B83E0600C7905121313E9F87456C36C
:1051430098FE900366E0600CF9121313E9F8EEC3BE
:105153009824F2FE024C4874F612077B74FE120D7B
:105163002A8518828519831250B3E9FEECFAEDFB08
:1051730090052C1257F36035A818A91988088909D6
:105183007808120C997D01740E120FA0E0FCEEF961
:1051930090052C1266401225C67402120CAC8B09C2
:1051A300EA450960047900800679B2800279B60283
:1051B3004A6074F712077BE9FE9003281257F360E5
:1051C3001F7409120FA0E0F5087808120C9DEEF980
:1051D3009003281266401225C67401120CAC80029B
:1051E30079B6024C6F74F712077B8908ECFEEDFF6A
:1051F30079B5E508245F600C14603114601224F85B
:105203006045804E90031B125258E8F0A3E98019C1
:1052130090052E1247CB603A90052E126640122558
:10522300C68E828F83EAF0A3EBF0802490032A12C8
:105233003FECEC4D601CEEFCEFFD90032A12664040
:105243001225C6E9F9800B90032612695D121FFD32
:105253007900024C6F1247C78E828F832274F71234
:10526300077BE979B5245F600624F6600E80178C0E
:10527300828D8312528C125BDB80099003261258B5
:10528300DC121FFD7900024C6F1247C790031B22EB
:1052930074F212077B8A088B09ECFEEDFF750A0195
:1052A30090036EE065087004A3E06509701412149E
:1052B300698A088B09AC08AD09EEFAEFFB121FFDF2
:1052C300802A1214758A0C8B0DE508650C7004E5B1
:1052D30009650D7009EEFAEFFB12147B800EEEFCEC
:1052E300EFFDAA08AB0912257FE9F50AA90A022EE8
:1052F300DF74F212077BEAFEEBFF8C088D09750A57
:10530300011214698A0C8B0DAC0CAD0DEEFAEFFB98
:10531300121FF7E96401700B90036E125336125B90
:10532300DB800EAC08AD09EEFAEFFB122579E9F547
:105333000A80B912533A22126B11850882850983B8
:105343002274F612077BEAFEEBFF7A0D7B00121F35
:105353000DEA4B6070EE2424126F36F0EE24251212
:105363006F36A31253F2126F3CA3A3126D3D125377
:10537300DAF0EE125D7C1247C38A828B83A3A3A368
:10538300A3E8F0A3E91254091253E3125BDBEE2402
:105393002EF582E43FF5831253DAA3A3A3A3A3F06C
:1053A300EE24331253D6C0E01253CBD0E0126B2558
:1053B3001253E3A3A3A3E8F0A3E9125401C0E0123C
:1053C3005962D0E0F0024A65EA125D763BF583222A
:1053D300EE240C1250E222E08A828B83A3A3A32241
:1053E300F8A3E0F98A828B83A3A3A3A3A3A322F048
:1053F3001253F722EE2426F582E43FF58322F0EEE2
:1054030024321250E222F0EE242C1250E22274F4E1
:1054130012077B74FE120D2AECFEEDFFEE2416122A
:1054230053D664057010EE2406FCE43FFD1211ED23
:10543300E970030254BEAC18AD19126DFF12233389
:105443008518828519831257F3606C8E828F83E0EF
:1054530064017059E875F009A4F8AAF075F009E938
:10546300A42AF9745028F8740839F9E8FAE9FB8A90
:10547300828B837808120F31126D187808120EB5DB
:1054830040278518828519831250A812558112541A
:10549300C37808120F3190808F7808120DF98A8231
:1054A3008B837808120F22800A79A28010EE240FD2
:1054B300125BD57900800679A1800279C80237D8BA
:1054C300125125126D1C2274F012077B8A088B0976
:1054D300ECFEEDFF125580E4F0A3F0908087780C8A
:1054E300120F31126D18780C120D56700302557895
:1054F300EE240E1253D66401703678B3900365E040
:10550300702A900397E064017022EE24111253D69F
:10551300F91212FB8A088B09A808A909EE240F12B5
:105523005BD5E84960047800800278A1880A804846
:10553300E070171211FFE9F50A603D8E828F83A395
:10554300A31255885403700E802E64027015121135
:10555300FFE9F50A6022EEFCEFFDAA08AB0912236E
:10556300458008E0640370081211FFE9F50A80081A
:10557300750AA18003750AA3A90A02414EEE124CD3
:10558300513FF58322A3A31264762274F012077BA2
:1055930074F5120D2AEAFEEBFFEE240AF508E43F48
:1055A300850882F5831257C11257957403120D0AA9
:1055B3008E828F831258DC1211EDE9700302567D3F
:1055C3007401120D0A7403120D02122333740112B3
:1055D3000FA01257F3700302567DE875F009A4F883
:1055E300AAF075F009E9A42AF9744C28F87408396B
:1055F300F9E8FCE9FD12721DE4F004120FA0124752
:10560300C3E508124C4D3509125BD98C828D831288
:105613000F891257A1120F7190808F7808120F31E2
:105623008C828D837808120E6B8C828D837808129E
:105633000F3190806B780C120F317808790C1207B8
:105643000CE50C450D450E450F702F7401120FA08C
:105653001257D175F009A4F8AAF075F009E9A42A44
:10566300F9745428F582740839F5837401F07A00CB
:105673007B08901933E0F9121EB91257A9E02406EA
:10568300FCA3E03400FD8E828F831258DC1211EDEF
:105693008508828509831257E8705212591D121F1B
:1056A300F7E9701D1214698A088B09AC08AD0990DB
:1056B30003261258DC121FF7E97006121295E960EF
:1056C3002C8E828F83123FE28E828F831258DC12DC
:1056D300234BE960138E828F83A3A3126644124C7B
:1056E3004D38F583E4F0A3F0125BB2E4F01257DA1D
:1056F30060030257888E828F83A3A3A3A3A3A3125D
:1057030057BD900365E07072900397E06401706A7F
:10571300750A3A750B00780A120C997402120CFA86
:10572300880A890B780A120C997C017D007A007B28
:10573300001216377404120CACE9703B12721D741C
:105743000112510DE0C0E0E5082411127279D0E096
:10575300F012578D743A125803900350120F8912A6
:1057630057A1120F7190808F7808120F3190035058
:105773007808120E6B80031257951257DA700612CF
:105783005FF474A1F0740B02414BE508240F12433C
:105793005122E508240F124351E4F0A3F022E50857
:1057A300241212435122EE240A1257B48882F5833D
:1057B30022F8E43FF98808890922A3A3A3A3125777
:1057C300C522E0F508A3E0F509228C828D831257E8
:1057D300D522126B11E8228E828F83A3A3A3A3A3E6
:1057E300A3A3A3A3A312669A240FF582E438F58337
:1057F3001257D5492212669A124C5138F583740414
:10580300F0A3E4F02274F612077BEAFEEBFFEE242A
:105813000A1257B47A187B00121F0D850882850976
:1058230083EAF0A3EB12595DE84970030258C9EE0D
:10583300FAEFFB12120B1257DA607412593B640130
:105843008E828F83A3A3A3A3A3A3700712590D74FE
:105853000E80201257F3700F12591D121FF7E970B3
:1058630006121295E96007125903740D8005125947
:10587300037405126B255403640170071258EC740A
:1058830005800B900366E0C0E01258ECD0E012599B
:105893004EF5838882A3E0F91213138508828509E4
:1058A3008312664C2417F582E438F583E9801A8560
:1058B30008828509831258DC121F13850882850923
:1058C30083E4F0A3800312662BF0024A658E828F75
:1058D30083A3A3A3A3A3A3A3A31258E622A3A3A3CF
:1058E300A3A3A3E0FAA3E0FB228E828F83A3A3A347
:1058F300A3A3A3A3A31258FC22A3A312600DA32264
:105903008E828F83A3A3A3A3A3A3A3A3A3A312669C
:105913009A2416F582E438F58322900326123FF089
:105923008E828F83A3A3A3A3A3A3A3A3A3A3E024F0
:1059330006FAA3E03400FB228E828F83A3A3A3A3E2
:10594300A3A3A3A3A3A3125BC4E02212595222125E
:10595300595622127001F8A3E022125952F922EA91
:105963001249EB3BF5832274F112077B8A0A8B0BF6
:105973008C088D097A187B00121F0D8A0C8B0DAED3
:105983000CAF0DEE4F7003025A9F12146F8A0C8BEB
:105993000DA80CA90DE5082415126FF8687003A370
:1059A300E0698E828F837004740280027401F0E5D3
:1059B30008240DF8E43509F988828983E0FAC3E401
:1059C3009AFA95E0FBE5081245FC3509124653FBAC
:1059D3008E828F83A3A3A3A31262758E828F83A368
:1059E300A3F0EEFAEFFB1212C58508828509831234
:1059F3005AA670098E828F83A3740580069003666E
:105A0300124130F0EE2417F8E43FF9880C890D8E2B
:105A1300828F83A3E0F9121313E9850C82850D832A
:105A2300F0EE2416F8E43FF9E508240EFAE435090C
:105A3300FB8882898312665CE5082410FAE4350941
:105A4300FB850C82850D83E0FC88828983E0F88ADC
:105A5300828B83E0C398C39CF81247DAF0EEFCEF25
:105A6300FDAA0AAB0B121205E9F5088E828F83E0BB
:105A7300640270111214698A0A8B0BAC0AAD0B1203
:105A83006DFF121FFDE508700AEEFAEFFB1212D14B
:105A9300E9F508EEFAEFFB121F138003750810A94E
:105AA30008800BE05403640122740D120CAC7F07D1
:105AB300020A337901020C5E74F412077BEAFEEBEF
:105AC300FF8E828F831266442424F582E438F583A3
:105AD300125AA6702A12593B7025125B9FE0640587
:105AE300701D125B9FA3E0F874016860057406687B
:105AF3007007125BB274028005125BB27403F0127A
:105B030057A9126640E4F0EE2408125B7B2431F5BA
:105B130082E43AF583E0C0E0125B89D0E012627957
:105B2300FAA3E0CA242EF582E43AF583E0C0E0123A
