:020000040000FA
:06000000020A6D0201DBA3
:03002B0002074287
:03004B0002071B8E
:0300530002011097
:03005B0002072A6F
:030063000207365B
:1000830002016F010105030101FF0F10FEFFE023D1
:1000930000000000162300000000FF000000FF0026
:1000A300010020FD0008000001000001C38001C51C
:1000B3008008E905C61A000206FFFF0101010400DA
:1000C3003319000000E8030000FFFFFF19E80300F5
:1000D3000064006400B801A0BB0D00A0BB0D0002CA
:1000E30002000800000502070401051E02051E02A6
:1000F3000A0A0102080803B80B02803E0102FEFF50
:10010300E8030A050001FFFF010A1401E0C0E074DF
:10011300F11203F2A2AFE433F509D2AF85A708AF1A
:10012300A1EF5508FE74105E600612176B75A1EF00
:1001330074085E600812177175A1F78024EFA2E0BE
:1001430092F0E508A2E082F05017906198E0F890F1
:1001530005F7E0C398A2D265D0335002E8F075A149
:10016300FEE509A2E092AF7F02020451C0E074F2FF
:100173001203F2A2AFE433FED2AF9061A4E0F875AC
:100183009B00E59158540860087591F71217B980E0
:1001930023E59158541060087591EF1217BF80142E
:1001A300E591A2E092F0E8A2E082F05007E0C2E01D
:1001B300F01219099061A3E0F8E5E9585404600EC0
:1001C3001218DF75E9FB906193E0A2E640F2EEA21C
:1001D300E092AF7F01020451C0E074F21203F2A275
:1001E300AFE433FED2AF9061A5E0F8E5BF58540405
:1001F300600675BFFB12192180D4C3E498F8E49913
:10020300F912023E8026C3E49AFAE49BFBE920E755
:10021300E912023EE498F8E499F922C3E498F8E479
:1002230099F912023EE498F8E499F9C3E49AFAE4DE
:100233009BFB22EB20E7CFE920E7E0B90010BB00EE
:1002430008E88AF084F8AAF022E4FBC8FA22EB70EB
:10025300227B10C833C8C933C9335007C39AC3DBE1
:10026300F280069A50012ADBEAC833F4C8C933F492
:10027300C9FA2275F008E4C833C8C933C933C99A27
:10028300C99B5004C92AC93BD5F0ECFBC833F4C859
:10029300E4C9FA22080808EAC0E0EBC0E086F0E708
:1002A300A4FA180986F0E7A42AFA180986F0E7A445
:1002B3002AFA180986F0E7A42AFA1986F0E7A4FBBC
:1002C300E5F02AFA190886F0E7A42BFBE5F03AFAE1
:1002D300190886F0E7A42BFBE5F03AFA181809860B
:1002E300F0E7A4C5F02BFBE43AFA1908E7C5F0C61A
:1002F300A426F6E5F03BFBE43AFA1886F0E7A4F609
:10030300E5F00826F6E43B08F6E43A08F6D0E0FB0D
:10031300D0E0FA22E4CFC0E0E4CEC0E0E4CDC0E018
:10032300E4CCC0E075F020E626F608E633F608E6EE
:1003330033F608E633F6181818EC33FCED33FDEE0C
:1003430033FEEF33FFC3EC9709ED9709EE9709EFFF
:1003530097191919400FFFEC97FC09ED97FD09EE6A
:1003630097FE191906D5F0BFECF709EDF709EEF77B
:1003730009EFF7191919D0E0FCD0E0FDD0E0FED069
:10038300E0FF222518C582C0E0E51934FFC583C00C
:10039300E0E518C3958224F810AF08858319858298
:1003A300188008858319858218D2AFCEF0A3E52083
:1003B300F0A37808E608F0A3DEFAEFF0A3E58124C2
:1003C300FAF8E608F0A3E608F0A3E608F0A30808A5
:1003D300E608F0A3E608F0A315811581D0E0FED06E
:1003E300E0F8158115811581E8C0E0EEC0E022C078
:1003F300D02518C582C0E0E51934FFC583C0E0E508
:1004030018C3958224F310AF088583198582188059
:1004130008858319858218D2AFC8F0A3E9F0A3EA4F
:10042300F0A3EBF0A37908E709F0A3D8FAECF0A363
:10043300EDF0A3EEF0A3EFF0A3D0E0F0A3D0E0F053
:10044300A3D0E0F0A3E520F0A3E5F0F0A322851903
:1004530083851882E0C0E0A3E0F9A3E0FAA3E0FB00
:10046300A37808E0F608A3DFFAE0FCA3E0FDA3E02D
:10047300FEA3E0FFA3E0C0E0A3E0C0E0A3E0F5D06B
:10048300A3E0F520A3E0A3F5F010AF088583198559
:1004930082188008858319858218D2AFD082D083D1
:1004A300D0E0F8D0E032120AFFB900030204E8E416
:1004B30090030178A479188002F0A3D8FCD9FA7AC2
:1004C300A47B1A900086788B79018015E493A3AD01
:1004D30082AE838A828B83F0A3AA82AB838D828EC2
:1004E30083D8E9D9E775820B7583FE740312080874
:1004F3007582137583217400120808E47375F01074
:100503008E1A8F1B85821F85831E8518828519830A
:10051300E0CEA3E0CF851F82851E83EBC9EAC8ED39
:10052300CBECCAC3E833C8E933C9EA33CAEB33CBEC
:10053300C3EA9EF51DEB9FF51CB35004AB1CAA1D2B
:10054300EC33CCED33CDD5F0DAAE1AAF1B22D0832A
:10055300D082ECC0E0EDC0E0E493A3FCE493A3FD00
:10056300ED4C600D120629EC24FFFCED34FFFD80F9
:10057300EFE493A3FCE493A3FDED4C600D1206C6D8
:10058300EC24FFFCED34FFFD80EFD0E0FDD0E0FC78
:10059300E493A3C0E0E493C0E02285198385188225
:1005A300E0A3FEE0A3F5207808E0A3F608DFFAE075
:1005B300A3FFE0A3C0E0E0A3C0E0E0A3C0E0E0A3AA
:1005C300C0E0E0A3C0E010AF0885821885831980DE
:1005D30008858218858319D2AFD083D08202080E92
:1005E300D083D082E9C0E0E493A3C386F0C5F0953D
:1005F300F0F908E493A386F0C5F095F0700BE4934B
:10060300A3C3994005E9048002A3E475F002A4257D
:1006130082F582E5F03583F583D0E0F9E493A3C056
:10062300E0E493C0E022C0E0C3E49396087401932E
:100633009618400FE4936670080874019366187067
:10064300007019A3A3C3E49396087401939618A3A7
:10065300A3400DD0E0D0E0D0E002058DA3A3A3A377
:10066300A3A3D0E0227404800474028000CCC0E011
:10067300EDC0E0E518C39CCCAD1950011D10AF06C9
:100683008C188D1980068C188D19D2AF12078AD059
:10069300E0FDD0E0FC2274028000CCC0E0EDC0E0BD
:1006A300E518C39CCCAD1950011D10AF068C188DF5
:1006B3001980068C188D19D2AF120768D0E0FDD0CF
:1006C300E0FC22C0E0C0F088F0E493667008087490
:1006D300019366187000A8F0A3A3700BD0F0D0E0CC
:1006E300D0E0D0E002058DA3A3D0F0D0E022D083E8
:1006F300D082CCC0E0E493A360061207E91470FA39
:10070300E493A360061208F01470FAD0E0FCE493BB
:10071300A3C0E0E493C0E022C0E074F21203F2123B
:1007230016CF7F01020451C0E074F21203F21216D5
:10073300D580EFC0E074F21203F21216DB80E3C03F
:10074300E0C0D0E8C0E0E9C0E0A9A8D2AFC2C7E9E1
:10075300A2E7E433F8E9A2E792AFD0E0F9D0E0F8FA
:10076300D0D0D0E032CAC0E0E493A3C582CCC58226
:10077300C583CDC583F0A3C582CCC582C583CDC552
:1007830083DAE5D0E0CA22CAC0E0E0A3C582CCC5C3
:1007930082C583CDC583F0A3C582CCC582C583CD75
:1007A300C583DAE6D0E0CA22C008C3E096F508089C
:1007B300A3E096420808A3E096420808A3E0964502
:1007C300087001D3D008227009080808226016189F
:1007D3001818C6C333C608C633C608C633C608C608
:1007E30033C6D5E0EA22C0E0E493A3D39C5010E4DF
:1007F30093A3C39C400AD0E0D0E0D0E002070EA34D
:10080300A3A3D0E022C09FF59FE473D09F22D0839F
:10081300D082C09FE493C0E0740193C0E07402935C
:10082300F59F227404800A740380067402800274A4
:1008330001C0E0F40412085CD0E0120AAA2200C04E
:10084300D0251810AF08F518500C05198008F518B5
:1008530050020519D2AFD0D0222518F58210AF0867
:10086300F518400C15198008F51840021519D2AF78
:1008730085198322BB0102E722C082C08389828A51
:1008830083BB0003E08002E493D083D0822260160E
:10089300080808C6C313C618C613C618C613C61855
:1008A300C613C6D5E0EA222518F8E43519F922253E
:1008B30018FAE43519FB222518FCE43519FD22C387
:1008C300E0C696F608A3E0C696F608A3E0C696F639
:1008D30008A3E0C696F622251810AF08F518400CB9
:1008E30015198008F51840021519D2AF22C0E0E4AB
:1008F30093A36C7009D0E0D0E0D0E002070EA3A36D
:10090300D0E022C3E09608A3E09608A3E09608A3EC
:10091300E096A2D265D03322E066701008A3E066A9
:10092300700A08A3E066700408A3E06622E7667015
:10093300100809E766700A0809E76670040809E702
:100943006622C3E096F008A3E096F008A3E096F0D1
:1009530008A3E096F022C3E697F60809E697F6089F
:1009630009E697F60809E697F622C3E49396087416
:100973000193960874029396087403939622E627CC
:10098300F60809E637F60809E637F60809E637F602
:1009930022700422600D18C6C333C608C633C6D5F9
:1009A300E0F41822E493F608740193F608740293B2
:1009B300F608740393F622E657F60809E657F60895
:1009C30009E657F60809E657F622E056F608A3E0CB
:1009D30056F608A3E056F608A3E056F622E056F0D2
:1009E30008A3E056F008A3E056F008A3E056F0226F
:1009F300E026F608A3E036F608A3E036F608A3E0FF
:100A030036F622E647F60809E647F60809E647F60A
:100A13000809E647F622E026F008A3E036F008A32B
:100A2300E036F008A3E036F022E4C396F608E49635
:100A3300F608E496F608E496F622C6F4C608C6F469
:100A4300C608C6F4C608C6F4C622C3E7960809E773
:100A5300960809E7960809E79622C3E09608A3E0FB
:100A63009608A3E09608A3E0962275D00075813F0F
:100A7300751801751903000204A9E6F008A3E6F04E
:100A830008A3E6F008A3E6F022600C08C6C313C669
:100A930018C613C6D5E0F422E0F608A3E0F608A3CF
:100AA300E0F608A3E0F622CAC0E0E6F0A308DAFA0B
:100AB300D0E0FA22E8F0A3E9F0A3EAF0A3EBF022F6
:100AC300E0F8A3E0F9A3E0FAA3E0FB22ECF0A3ED46
:100AD300F0A3EEF0A3EFF022E0FCA3E0FDA3E0FE21
:100AE300A3E0FF22EAF0A3EBF0A3ECF0A3EDF022E6
:100AF300E0FAA3E0FBA3E0FCA3E0FD22E5C754F882
:100B03004401F5C77901222518F582E43519F583E7
:100B130022C2AF75D69F0200002212081170A002F4
:100B23001208117AA002120811E7A002120811F2AA
:100B3300A0021208111AA10212081125A10212081B
:100B4300118AA10212081195A102120811B9A1027A
:100B5300120811DDA1021208114FA2021208119806
:100B6300A202120811B4A20212081125A30212084C
:100B73001171A302120811BAA302120811F8A302F9
:100B830012081179A40212081120A502120811EF0C
:100B9300A60212081154A70212081182A802120811
:100BA30011A8A802120811F0A9021208112AAD0215
:100BB30012081128AF02120811F3B0021208118CA7
:100BC300B1021208118DB30212081142B4021208C5
:100BD300117BB402120811E1B402120811EBB40242
:100BE30012081114B70212081153B802120811AAFD
:100BF300B80212081155B90212081105BB021208F6
:100C03001152BC0212081172BC02120811C7BC02B5
:100C1300120811C8BD02120811F0BD021208114FCB
:100C2300BE0212081147BF02120811BEBF0212080A
:100C330011D1C0021208113FC1021208113EC202B3
:100C430012081198C402120811C1C4021208112714
:100C5300C602120811A9C70212081100C80212081D
:100C630011AEC80212081153C902120811ACC9020D
:100C73001208116ACA02120811FCCA021208115B97
:100C8300CB021208119DCB02120811CECB0212081F
:100C93001125CD02120811D62600120811082700CB
:100CA300120811412700120811FF2800120811D55C
:100CB3002900120811342A001208114A2B001208C5
:100CC30011962B00120811242E00120811FE300079
:100CD300120811453200120811DD3200120811E921
:100CE3003200120811323300120811743400120852
:100CF300116A3500120811943500120811EA350003
:100D0300120811433600120811B63600120811EC0E
:100D130038001208116E3A00120811593B001208EC
:100D230011A33C00120811DB3E00120811D8410048
:100D3300120811E741001208117B4200120811BE8C
:100D430042001208113D4300120811BA450012086F
:100D530011EC4600120811C447001208114648005E
:100D63001208117B4C00120811AA4C00120811053D
:100D73004D00120811384D00120811B04D00120831
:100D830011E34D00120811444E00120811944E0055
:100D9300120811614F001208111A5000120811DED7
:100DA3005000120811585300120811BA54001208C7
:100DB300110B56001208112F570012081132570059
:100DC300120811615700120811595900120811181D
:100DD3005A00120811475A00120811655B001208E5
:100DE300112D5C00120811EB5D001208111D5E004D
:100DF3001208115F5E001208115E5F00120811D124
:100E03005F00120811FA61001208115962001208FA
:100E130011AD6200120811DC6400120811BF6500F5
:100E23001208117B66001208118F6600120811A3C5
:100E33006600120811D0660012081100670012083C
:100E430011BB6800120811CD6900120811226A0053
:100E53001208116B6A00120811926A001208115AE3
:100E63006B00120811006C00120811866D00120845
:100E730011CD6D001208113F6E00120811946F001E
:100E83001208113D700012081171700012081189C7
:100E930070001208112C7100120811A873001208B7
:100EA300115075001208116E75001208118C75002F
:100EB300120811587600120811A67900120811C8F9
:100EC3008001120811008101120811008601120825
:100ED300114686011208117C8701120811E187016E
:100EE300120811568901120811608C011208118928
:100EF3008D011208119C97011208112C98011208F8
:100F030011169B01120811239C01120811869C01E2
:100F1300120811CE9D011208113CA001120811CE36
:100F2300A1011208115BA2011208117AA301120890
:100F33001107A40112081111A40112081139A40107
:100F4300120811D9A401120811C4A50112081191A4
:100F5300A601120811AEA601120811D7A6011208A4
:100F63001104A7011208114BA9011208111AAA01B1
:100F730012081159AA01120811DBAA011208117CE7
:100F8300AB01120811AEAB01120811F5AB01120847
:100F93001128AC011208116CAC01120811BBAC0191
:100FA300120811C0AC011208111CAD011208116026
:100FB300AD011208113AAE011208119FAE011208D9
:100FC3001105AF0112081180AF01120811E8B20137
:100FD300120811EBB30112081169B5011208117F50
:100FE300B80112081121B9011208116ABB011208D4
:100FF3001125BC0112081164BC011208113CBE0189
:1010030012081159BE0112081162BE011208116BB8
:10101300BE0112081176BE0112081195BE01120815
:101023001139C00112081196C001120811A0C001A4
:10103300120811B8C001120811C9C1011208111216
:10104300C201120811CCC201120811E3C301120834
:1010530011B8C401120811FFC50112081103C70119
:10106300120811FCC70112081114C8011208114B10
:10107300C80112081155C80112081160C8011208ED
:10108300117EC801120811C6C80112081124C90132
:101093001208114BC9011208115DC901120811127E
:1010A300CA011208114BCA011208116DCB011208B3
:1010B30011C0CB01120811A6CC01120811CDCC012D
:1010C3001208113DCD01120811B9CD0112081115F5
:1010D300CF011208113CD001120811FED0011208F1
:1010E30011CCD1011208118AD20112081172D30155
:1010F3001208111CD40112081184D40112081139E9
:10110300D50112081195D501120811EDD501120868
:1011130011B3D601120811D6D60112081191D701C5
:10112300120811B3D70112081114D801120811447F
:10113300DA011208113DDB01120811E9DB01120883
:10114300110ADE0112081153DE011208119EDE019D
:10115300120811FADE0112081158DF011208117C7E
:10116300DF01120811A0DF01120811D5DF011208F7
:1011730011FDDF0112081142E00112081196E0018E
:10118300120811EFE001120811E9E10112081187B9
:10119300E301120811CCE301120811F5E30112086F
:1011A300117EE401120811F1E401120811FFE401B8
:1011B30012081123E50112081179E50112081194AF
:1011C300E5011208114FE6011208117BE60112082E
:1011D30011BEE60112081121E7011208112FE901DE
:1011E3001208115BE90112081116EA01120811FA3B
:1011F300EA011208118EEB01120811008004120893
:10120300113880041208115980041208119B8004BC
:10121300120811FF80041208110981041208111920
:101223008104120811508104120811F98404120870
:1012330011C18604120811A58804120811478904F4
:10124300120811D18904120811508003120811F9F0
:101253008003120811D88103120811E482031208D3
:1012630011048303120811268403120811D685037F
:101273001208114386031208111487031208111A66
:101283008803120811928803120811CD88031208EB
:1012930011268903120811618903120811AA89030F
:1012A3001208113E8A03120811D48A03120811A9E5
:1012B3008B031208117C8C031208110A8D03120888
:1012C30011308D031208115D8D031208118E8D03E9
:1012D3001208115B8E031208116B8E03120811BEE4
:1012E3008E03120811CB8E03120811D88E03120835
:1012F30011E18E03120811458F03120811A38F0306
:10130300120811EE8F03120811099003120811300D
:1013130090031208114D90031208115990031208FB
:1013230011EA91031208110392031208117F920329
:10133300120811929203120811A292031208114685
:101343009303120811B29403120811C595031208EE
:10135300116596031208116F9603120811EE960396
:10136300120811FF96031208113E97031208116C1D
:101373009703120811399803120811909803120861
:1013830011C998031208111F99031208113D9903FB
:101393001208118B9903120811569A03120811A40B
:1013A3009A03120811F19A03120811749B0312088D
:1013B300119E9B03120811D49B03120811E39B0394
:1013C300120811429C03120811BA9C03120811FB64
:1013D3009C031208114B9D03120811769D031208FA
:1013E30011909D03120811AA9D031208117F9E03F9
:1013F300120811899E03120811C49E03120811D406
:101403009E03120811259F03120811399F03120826
:10141300115BA00312081170A00312081103A103AA
:1014230012081177A1031208111CA2031208112735
:10143300A2031208118AA303120811A6A303120818
:1014430011F2A30312081160A40312081192A4035A
:10145300120811ACA4031208110CA503120811AB56
:10146300A503120811F6A50312081149A8031208CF
:1014730011E1A80312081158A903120811B5AB030F
:10148300120811CDAB03120811D0AB03120811DC03
:10149300AB03120811F0AB03120811F8AB031208E7
:1014A300112FAC0312081123AD03120811ADAD03C4
:1014B3001208112FAE03120811AFAE0312081186E2
:1014C300AF03120811A8AF0312081141B0031208A9
:1014D300119EB003120811A1B00312081110B10339
:1014E3001208115CB2031208116FB303120811FA48
:1014F300B3031208110DB503120811D4B503120872
:101503001105B6031208112BB60312081134B603E2
:1015130012081163B60312081113B703120811C39B
:10152300B70312081136B803120811D9B803120809
:10153300114CB9031208118BB903120811D4B90362
:10154300120811D5EE0312081142EF031208118E8F
:10155300EF0312081183950212081160F0031208B9
:10156300115DF20312081170F403120811A9F703B5
:10157300120811D8F703120811F6F70312081160C5
:10158300F80312081188F803120811BBF8031208B4
:1015930011F0F80312081152F90312081121E203A2
:1015A3001208119DE203120811CBE2031208111075
:1015B300E30312081171E40312081157A002120881
:1015C30011C3E4031208113CE5031208118AE50371
:1015D3001208111AE603120811F2E6031208114366
:1015E300E703120811A8E7031208111BE803120806
:1015F300115FE803120811B7E803120811D9E803D1
:1016030012081169E903120811FAE90312081132E9
:10161300EA031208115BEA031208119CEA03120899
:10162300113DEC031208111FED03120811FBED032A
:101633001208117BCA041208118CCA04120811FD86
:101643007F00120811B9CA0412081169C7041208ED
:101653001179C7041208118BC704120811F1C704CA
:10166300120811FA7E001208117E7F00120811E49D
:101673007F0012081179C8041208118AC8041208DD
:1016830011A4C804120811AFC804120811A6CA0491
:10169300120811B6CA0412081117CA0412081167F6
:1016A300A6041208117AA704120811C3A70412088A
:1016B3001140A80412081168A804120811E5A8042F
:1016C3001208110FA90412081159A904120811993B
:1016D300A904120811F8A90412081137AA04120860
:1016E30011CACA0412081109C3041208112FC30432
:1016F30012081158C30412081194C304120811D21A
:10170300C304120811C47900120811F079001208F9
:1017130011867C00120811C67C00120811027D009C
:10172300120811167D001208112F7D0012081120D6
:101733007E00120811D27E00120811E67E00120804
:101743001166FE021208118AFE02120811A3FE029C
:10175300120811E1FE0212081117FF021208114AC2
:10176300FF02120811B6FF02120811B9FF02120894
:1017730011C3FF02120811D0FF021208111EB80490
:1017830012081141B8041208118CB804120811AAE6
:10179300B804120811C5B8041208112BB9041208B1
:1017A3001137B90412081194B904120811B8B90415
:1017B3001208117EBA041208118BBA041208119C84
:1017C300BA04120811F4C7041208110CC804120851
:1017D3001138C8041208118FFB01120811F3FC0120
:1017E30012081101FD0112081115FD011208113231
:1017F300FD0112081147FD011208115AFD011208DB
:1018030011DCFD0112081141FE01120811D7FE017E
:10181300120811B0FF01120811C0FF01120811CF05
:10182300FF0112081137C6041208115BC60412081F
:101833001183C604120811ABC6041208110FBD04AC
:1018430012081136BD0412081154BD04120811C93F
:10185300BD041208114CB50412081165B504120831
:10186300117CB50412081185B504120811A3B5043F
:10187300120811ADB504120811B7B504120811CA44
:10188300B50412081150B604120811C5B6041208A3
:1018930011F3B60412081144B70412081190B704E7
:1018A300120811ABB704120811B5B704120811C618
:1018B300B70412081109B804120811EFC80412087A
:1018C30011808A04120811AC8A04120811CF8A0409
:1018D300120811E28A04120811FD8A041208116128
:1018E3008B041208118F8B041208119F8F041208A6
:1018F30011F4900412081126910412081191910415
:10190300120811F8920412081120930412081135D9
:1019130093041208114593041208118593041208C5
:1019230011C79304120811D7930412081140BF047E
:1019330012081150BF0412081174BF041208119D3C
:10194300BF04120811C7BF04120811EBBF04120829
:101953001102C00412081130C00412081153C0044C
:10196300120811D3C90412081151AE0412081161EF
:10197300AE041208117FAF04120811B3AF041208AA
:1019830011D5AF04120811FDAF0412081116B004EB
:1019930012081152B004120811B4B004120811F95C
:1019A300B0041208113EB1041208116BB1041208FD
:1019B30011A3B104120811D1C104120811F1C10419
:1019C300120811D6C204120811D9C204120811D088
:1019D300C6041208110DC7041208114FC7041208D8
:1019E300115FC7041208112A9B04120811649B0497
:1019F300120811CD9B04120811EC9B041208118EDE
:101A03009C04120811979C04120811E89C04120804
:101A130011119D041208111E9D041208118F9D04BB
:101A23001208111D9E041208116B9E04120811A1C5
:101A33009E04120811029F041208112A9F0412081F
:101A430011A19F04120811FD9F0412081140A00464
:101A53001208117DA0041208118FA004120811A10D
:101A6300A004120811C0A004120811C9A00412088E
:101A73001197A104120811E3A10412081121A20471
:101A83001208118BC00412081188C904120811CA64
:101A9300BA0412081100BB041208114FBB04120848
:101AA30011A8BC0412081109BA031208113ABB03A6
:101AB30012081176BB0312081130BD031208115A24
:101AC300BD03120811D3BF0312081113C003120878
:101AD30011A8C10312081147C2031208119FC203C0
:101AE30012081125C3031208115DC3031208119FC5
:101AF300C30312081110C50312081190C60312087C
:101B030011D1C803120811FFC8031208112BC9030E
:101B130012081134C9031208118AC9031208111AD1
:101B2300CA0312081158CD03120811DACD031208A3
:101B330011DAFF02120811F0FF021208114DA2047C
:101B430012081162A20412081115A30412081155F8
:101B5300A3041208116EA304120811A1A30412080E
:101B630011EEA30412081122A40412081164A404A0
:101B73001208115AA60412081130C5041208118F55
:101B8300C504120811CDC5041208110EC6041208AB
:101B93001181CD02120811D9CD0212081169CE02AA
:101BA300120811CECF02120811ABD002120811266F
:101BB300D10212081177D102120811E8D1021208DA
:101BC300112CD20212081144D20212081105D502B7
:101BD3001208119BD502120811D2D5021208111B4B
:101BE300D60212081121D80212081171D802120864
:101BF300114BD90212081184D902120811A3D90278
:101C0300120811EED9021208110EDA02120811D1CC
:101C1300DA02120811C7DB0212081122DC021208D1
:101C23001162DC0212081199DD0212081115E0029B
:101C33001208113FE002120811C6E002120811EB6C
:101C4300E0021208116CE10212081151E2021208BB
:101C5300119EE20212081102E302120811B6E30216
:101C6300120811B9E302120811C3E302120811CDDD
:101C7300E302120811D0E30212081142E40212082F
:101C8300117BE4021208118EE402120811BBE40274
:101C9300120811E2E40212081106E50212081141CA
:101CA300E502120811B4E502120811B7E5021208A1
:101CB30011F8E50212081121E60212081141E602A9
:101CC3001208118AE602120811C1E602120811C1B4
:101CD300E702120811F0E8021208110FE9021208D4
:101CE300113AC90412081152C90412081127C40475
:101CF30012081107940412081156940412081114BF
:101D03009604120811CF97041208110D98041208B3
:101D1300110299041208110D9A041208112F9A0442
:101D2300120811799A04120811FA9A04120811423E
:101D3300E90212081165E90212081168EA021208A1
:101D430011BAEA021208111CEB021208116EEB021F
:101D5300120811B6EB021208111FEC02120811A4AB
:101D6300EC0212081120ED0212081166ED021208AE
:101D7300116BF102120811CFF30212081181F40260
:101D8300120811E1F40212081109F502120811CF29
:101D9300F602120811EBF802120811D7F902120821
:101DA300115EFA0212081195FB02120811C6FC0219
:101DB30012081105FD02120811B9FD021208114F94
:101DC300EC01120811EFEC011208115CED0112088D
:101DD300111BEE011208117AEE0112081128EF010E
:101DE300120811EBF10112081103F3011208117922
:101DF300F3011208115BF501120811FDF501120838
:101E0300114EF7011208115CF801120811E9F801EB
:101E130012081109FA0112081137CE03120811A290
:101E2300CE03120811EACE031208112ECF031208B3
:101E33001180CF03120811DDCF0312081118D0034C
:101E4300120811B7D00312081128D103120811A0E8
:101E5300D103120811B8D203120811E0D2031208F9
:101E630011ECD303120811FDD30312081115D40387
:101E730012081143D50312081171D5031208113F3B
:101E8300D60312081163D60312081181D603120870
:101E9300119BD603120811BDD60312081197D7035D
:101EA300120811F1D70312081168D903120811CAD5
:101EB300D903120811E9D90312081131DB031208FF
:101EC30011B0DB03120811E7DB031208112BDC034B
:101ED30012081125DD0312081132DE031208112A3C
:101EE300DF0312081138DF0312081123E00312087D
:101EF30011C5E00312081135E1031208114AE10389
:101F0300120811EBE103120811F7B104120811B220
:101F1300B30412081171B404120811C6B4041208F0
:101F23001177AA0412081195AA04120811D9AA0458
:101F3300120811FFAA0412081126AB041208113E5D
:101F4300AB0412081156AB041208116EAB0412084D
:101F53001111AC0412081153AC0412081175AD042D
:101F63001208117EAD0412081187AD0412081190F6
:101F7300AD041208119AAD041208119DF903120859
:101F83001191FD031208119FFD03120811A4FD0313
:101F930012081187FE031208114FCA0412081176A2
:101FA300950212081179940212081106940212087C
:101FB30011EA9302120811CC9302120811A793029B
:101FC300120811B79202120811529202120811BBA1
:101FD3009102120811499102120811389102120854
:101FE30011549002120811328F02120811DD8E0271
:101FF3001208110A8E02120811448D0212081108E8
:102003008D021208119B8C02120811938C02120884
:1020130011088C02120811988B02120811E98A0226
:10202300120811DE8A02120811CF8A021208114D1A
:10203300A002120811AE8A0212081143A00212086C
:102043001139A00212081125A002120811689C027E
:102053001208118E9A02120811529A02120811CE16
:102063009902120811A098021208117A8A02120822
:10207300114E8A0212081120890212081190980247
:10208300120811148702120811E58602120811C9F9
:1020930086021208115986021208116E970212085D
:1020A300118C85021208118DE403120811108502A8
:1020B300120811688402120811C183021208116305
:1020C3008302120811388302120811E982021208EE
:1020D30011AB820212081189820212081166820270
:1020E3001208114D82021208110582021208114FC3
:1020F3008102120811C380021208115780021208CC
:10210300118C9502120811008002120811E0EF03EE
:1021130000000080FB8F0001009A1A87000100294C
:102123001B35000400EE1A25000200F21A260002F5
:1021330000F41A27000200F61A28000100001B29E8
:10214300000100011B84000400021B86000100063D
:102153001B2A000100071B2B000100081B2C000198
:10216300000C1B2D000800811A2E0001000D1B2FEF
:102173000001000E1B300001000F1B310001001095
:102183001B32000100891A330001008A1A3400014E
:1021930000111B360001008B1A38000100121B3995
:1021A3000001000B1B83000200271B630001009743
:1021B3001A64000100091B650001000A1B6D000180
:1021C30000981A71000800791A66000100261B4363
:1021D300000100171B44000200181B450001001AF0
:1021E3001B460002001B1B470008008F1A48000112
:1021F300001D1B4B0001001E1B040001002A1BA134
:102203000001002D1B370001002C1B880001002B4F
:102213001B3C0001008C1A3D000100131B49000206
:10222300001F1B67000100991A4D000200211B4E7D
:10223300000100231B4F000200241B3E0001008EFF
:102243001A51000100141B52000100151B53000119
:1022530000161B540001008D1A000000000000004E
:1022630001363601010001020100010301000104EE
:1022730001060605020000070100340801000F09EA
:102283000401010D0100FF0E0800001702000019F0
:102293000100FF1A0100011B0100FE1C0100081DC3
:1022A3000200001F010001200100012102000023A0
:1022B30001000F2402000026010001270100082865
:1022C3000200FF2A0100072B0102402C0100002D10
:1022D3000100012E0100012F0100FF30010B1D3110
:1022E3000800003A0100083B01000F3C0100013DDA
:1022F3000100FF3E04000042040000460400004ABF
:102303000400004E04000052040000560400005A6A
:10231300040000010371030103010301030103012D
:10232300032203020301031003000300030003005D
:102333000300030003000342030003240306030016
:1023430003000304031203250323032503230304C8
:1023530003040300030003000344030003000323F7
:102363000300036503210035038103000305030014
:102373000300030003000325032303030471040282
:102383000460041104700402040204010402041032
:1023930004610400041404630473047204620443B8
:1023A30004000413040604000400040404120400DB
:1023B3000400040004000451046400000400040049
:1023C300044404000400040004000465040004350C
:1023D3000481046400050400048304000403007101
:1023E30000300160001100700031022003500480AE
:1023F30000100061000000140063007300720062AB
:102403000043000000130006000000000004001257
:102413000000000000000000000400040037003743
:10242300003C0244000000000000000000650000C2
:10243300003500810000000500000083000000015A
:1024430001710101010101110101013101010101C9
:10245300018001100161013B0014006301730172EB
:1024630001620143010001130106013D013500042E
:102473000112010001000100010001040104013304
:102483000133013C014401320136000001000165C2
:102493000100013500810100010501820183010072
:1024A3000103027102300160021102700201020293
:1024B3000202028002100261023A004100630273C9
:1024C3000272026202430200021302380000020099
:1024D30002040212020002000200020002040204CB
:1024E30002370037003C02440200023900000200B8
:1024F30002650200023502810200020502820283A4
:1025030002000236000100060000000F0000000078
:1025130000000000000000000003FFFF00000403B0
:10252300FFFF0000FFFF0FF4010005C404032000B8
:102533000100000B000000000000000003010F0079
:102543000000000000000000000000000000000088
:102553000000000000000000000000000000000078
:10256300000A000000020000000400000008000050
:102573000010000000200000004000000080000068
:102583000000010000000200000004000000080039
:10259300000010000000200000004000000000DDEB
:1025A3001D1300891D1F008F1D1F80951D0100DD58
:1025B3001D02004D1D0300531D0400591D05005F3E
:1025C3001D06006B1D36007D1DFFFF000001FB0E85
:1025D30006250F081F0F0B3D0F10490C02010F05B5
:1025E300130F07070F0CE30E0DEF0E64E71FFF0039
:1025F3000007ECFDFDFDECDCDCCCBCACAC9C9C8CA6
:102603007C7C6C6C5C5C5C4C4C3C3C2C2C1C1C0340
:10261300EAF5E5D5D5C5B5A5959585857575656542
:10262300555545453535252515150500160F00006B
:102633000B150B020002220F3300000E5A6967428A
:102643006565416C6C69616E63653039010305072B
:10265300090B0D0F00020406080A0C0D00034A497A
:10266300434E181A250502000119161816161823C9
:1026730003000C0E020B040B0A0708000F30301680
:10268300181920231A1C1E3000393D3F373C3C36B5
:102693002C442D303017181921301B1D1F30020414
:1026A30002010101010902E803000000BE040A005F
:1026B3000000007F00E8030E00100C0A0305080960
:1026C3000908000CFF1E1E28050803040404150056
:1026D30001030CC082C08312159D90032874AFF0D0
:1026E300A3740CF090032A74B5F0A3740CF0900358
:1026F3002C74BBF0A3740CF090032E74C1F0A3747C
:102703000CF0025A4074F7120386E9FE90031AE4B0
:10271300F0EE900319F0901B1B124DDC12572B7C2B
:102723008F7D1A7A1D7B03121B8B901B1DE0900378
:1027330025F09003267479F0A3741A0235E674F039
:102743001203868A088B09EB548070030228999040
:102753000319E0F9121A1D8A0A8B0BAE0AAF0BEEAE
:102763004F7003022890124BB1707EEE241F124F5C
:102773002664137002A3E070708E828F83A3A3E09C
:10278300F50EA3E0F50F90033812542C750A00756B
:102793000B00800D12345D12572B121AA1AA0CAB39
:1027A3000DEA4B60448A828B83E0650E7004A3E0DC
:1027B300650F70288A828B83A3A3A3A3124BC4E55E
:1027C3000A450B8A828B83A3A3A3A360C712431377
:1027D300850A82850B83A3A3A3A380BB8A0A8B0BE1
:1027E3008A828B8312542880B8EE242A124F26F94A
:1027F3001264A59003381238D8A3A3A3A3A3A3A359
:10280300A3E0640270378A828B8312542C80078C76
:10281300828D83123B38EC4D60208C828D83E06A7D
:102823007003A3E06B70E88C828D83A3A3E06970CF
:10283300DE901B23124549F0804C120CEB8E828FE5
:1028430083E064017034EE24181228F71208321260
:102853004260120668EE24121228F712083212425E
:102863005412082E125F3D12066CEE2417124268B2
:1028730012155B740A120841800CE064027007EEC3
:10288300FAEFFB120DF9EEFAEFFB121A0BAA08E5A9
:10289300096480FB805BEAA2E0501490033012537A
:1028A3004360061268781204FEE508640180395417
:1028B30002600C901AA97401F0EA6402FA8032EA09
:1028C30054086029120CE58B0BEA450B7016900334
:1028D3003AE4F0A3F0A3F0A3F07A08FB900319E025
:1028E300F9121B61E5086408FAAB0980047A007BDE
:1028F30000023C9E124C32F50A780A2274F4120349
:10290300868A088B098A828B83126199124158380F
:10291300F583E02409FA7B00121A058A0A8B0BAEB1
:102923000AAF0BEE4F70030229C38E828F837402AA
:10293300F0A3E41269BEA3A3A3A3E8F0A3E912647E
:10294300CDA3A3A3A3A3A3A3F0E5082403F8E4352D
:10295300091256CE1241583AF5831238D1F0EE24BB
:1029630009FAE43FFB8E828F83A3A3125DD4F58320
:102973008882E0A2E58E828F83A3A3A3A3A350043E
:1029830074018001E4F0E5082403F8888289831246
:10299300542CEA12414C3BF5831229C812082AEA47
:1029A3002410125F458E828F8312542A1219E77402
:1029B30003120841EEFAEFFB900319E0F9121A1122
:1029C30002332DA3A3E0F508A3E0F509750A007807
:1029D300082274F21203868A088B09ECFAEDFB7461
:1029E3000E120B0AE0FC1215CD8A0C8B0DAE0CAF48
:1029F3000DEE4F6030AC08AD091220A7E96026AC9C
:102A030008AD09EEFAEFFB1215C1E970148E828F3F
:102A130083124307FAEFFB1215B5AA08AB09121587
:102A2300E57900800279B480031208417F0602052C
:102A33009D74EE12038674F71208DA8A0A8B0BEC84
:102A4300FEEDFF750CB3750D00750E008002050ECB
:102A53009026CEE493F8E50EC3984003022B43AAD5
:102A63000E7B001216098A088B09EA450960DF8A82
:102A7300828B83A3A3A3A3A3E0250DF50DF8C3E5E0
:102A83000A98E50B940050C67C157D007900EEFA98
:102A9300EFFB1219F3850882850983A3A3A3A3A3DC
:102AA300E0F8E50AC3950D2825E0F8E433F9E508D5
:102AB30028F582E50939F5831236A712572B120F31
:102AC300FD8A0A8B0BAC0AAD0BEEFAEFFB121B8BE4
:102AD300850882850983A3E06401700B1242607448
:102AE3000112753BA3803DAC18AD19850882850999
:102AF3008312542A1215F1E9602D7408120B0AE0AF
:102B0300C0E0124260D0E0F07408120B0AE06403E4
:102B1300700CAC18AD191238C9121B8B80098518BB
:102B23008285198312571F850882850983123C8089
:102B3300A3A312697CC0E0123E8FD0E0F0750C00B5
:102B4300A90C7409026D6574F7120386E9FE8A8283
:102B53008B83A3A3A3A3A3A3E0540860338A828B2C
:102B630083A3A3A3A3A3A3E0540260218A828B833C
:102B7300A3A3A3A3A3A3A3A3A3E06406600F74E981
:102B83006E600A74CD6E600574F06E7003120CCD26
:102B93000247BF74E812038674F81208DA74061247
:102BA3000B0A124C03ECFEEDFF8917751500122E6C
:102BB300081215D98A0A8B0BEA450B7003022DB54F
:102BC300EE2410124F26FAA90A120B538A128B1302
:102BD300EA45137003022DB5EE2403F50CE43FF52B
:102BE3000DEE2406F508E43FF5097C008508821202
:102BF30041AC1215DF8A108B11850C82850D83126F
:102C03002DFD1254AD851282851383A3A3A3A312B2
:102C13005013122DFDA3A3A3A31253538512828530
:102C23001383A3A3A3A3A3A3126D5D126961120867
:102C33002AEE1241583F125F49851282851383A3FE
:102C43001254241219E774031208417428120B0A50
:102C5300124313E51212453B3513125729742A12F6
:102C63000B0AE0C0E0E51212414C3513F583D0E0C6
:102C7300F07514007423120B0AE0F5167424120B7A
:102C83000A780C120A9B022D3C851082851183124F
:102C9300542A1215F7850882850983A3EAF0A3EB6A
:102CA300122E1FA3A312658E122E19A2E6500F85B2
:102CB3000882850983A3A3A3A3A3E0D2E1F0E515CA
:102CC300706685088285098312431290036EE0685B
:102CD3007003A3E0697051850882850983A3A3A3C8
:102CE300123A687510007810120832780C12082610
:102CF300E516F51078101208327426120B0A120624
:102D03006C90037B12066C79007410120B0A126428
:102D1300AD120E3B740A120841850882850983A30C
:102D2300A3A3A3A3E04405F074012514FC122E0809
:102D33001215DF8A108B110514E5104511604EC37F
:102D4300E514950AE4950B5044E51475F006A4F8D0
:102D5300A9F0E51228F8E51339F9E8240FF508E49A
:102D630039F509850882F583E412795BE064016033
:102D730003022C8C75150185088285098374011261
:102D83002E1F124E86A3E8F0A3E9022CA3AA12ABCE
:102D930013120B59781212082EAD167424120B0A53
:102DA300E0FCA917EEFAEFFB120CC77402120841FC
:102DB300803E8E828F83A3A3A3E0C0E07403120B33
:102DC3000AD0E0F0EE2412124F26C0E07404120B76
:102DD3000AD0E0F0E50A450B70097405120B0A747A
:102DE300B980077405120B0A7410125F52120E3564
:102DF30074081208417F1002059DE0851282851335
:102E030083A3A3A3228E828F831254308E828F8357
:102E1300A3A3A3E0F922A312664CE02212795FA3D5
:102E23002274E812038674F21208DAE9851882859F
:102E33001983F08A0C8B0D8C168D177426120B0ACE
:102E4300125311AA08FB120B47E9F514AA08AB09A0
:102E5300120B4DE9F515E51470030230E17513000B
:102E6300800F8E828F83A3A3A3A3A3E0D2E3F005F5
:102E730013123E99E0F8E513C39840030230D8E5F6
:102E83001470030230D8E51375F006A4F8A9F0E531
:102E93000828F8E50939F9E8240FFEE439FF8E82A2
:102EA3008F83A3A3A3A3A3E0A2E040C3750E008E68
:102EB300828F83E0704312542B1220298A0A8B0BD2
:102EC300A80AA90BE849603188828983A3A3A3A335
:102ED300E06401600D88828983A3A3A3A3E0640354
:102EE30070178E828F83A3A3A3A3A3E0D2E7F07509
:102EF3000E01E5157003022E72750F00750A087531
:102F03000B00E5176003750F207C087D00790074C2
:102F1300011208B21219F38E828F83E0604490038A
:102F2300BEE06401701CE50FD2E3F50F750B1012C0
:102F3300430E7401120B0AE8F0A3E912432A74FF4B
:102F4300803E430F0C750A0C8E828F83A31230F4DC
:102F5300A3A3A3A312572B7401120B0A74FFF0A3AC
:102F6300801E851882851983E06009E50FD2E6F596
:102F73000F750A0A12430E7401120B0AE8F0A3E953
:102F8300F07403120B0AE50FF0124156350DF58369
:102F9300E0C0E07405120B0AD0E0F07406120B0ACD
:102FA3007401F01208B2120DFF740D120B0AE060E7
:102FB300030230B37409120B0A1254998E828F8361
:102FC300A3A3A3A3F07409120B0A124BECE50AF0B6
:102FD300A3E50BF0124BA7E516122E1A601190030E
:102FE300BEE0C0E07409120B0A124BDCD0E0F074AF
:102FF30009120B0A123EA9A3A3A31230E6241C1242
:103003004BFD126DC51230E6124B9EEAF0A3EB1294
:1030130068A5C0E0124B94D0E012696DC0E074095A
:10302300120B0A1246DBD0E01261EFC0E074091202
:103033000B0A1246CFD0E0F07409120B0A1230F4D7
:103043001246BE1232351230E6242C124BFDE50C2B
:1030530012451B350DF583E0C0E01246B6D0E0F013
:103063007409120B0A12542C850C82850D831230BD
:10307300EB2428F582E43B125729E50C12414C3529
:103083000DF583126D75751200781012082A12411E
:1030930056350D125F49EA12616E3BF58312542CCB
:1030A3001219E7740312084174011208B2120E05D3
:1030B3008E828F83A3A3A3A3A3E0D2E0F0740D12A7
:1030C3000B0AE06003022E65E50EA2E0500215151F
:1030D3001514022E727900AA08AB09120CD3740ED0
:1030E300022DF5125436E822A3A3A3A3124317EA31
:1030F30022124317850C82850D832274EE120386F8
:1031030074E91208DA8A088B09890A8A828B83A3F5
:10311300A3A3A3A3A3A3A3E0F9120B718A0C8B0DA2
:10312300EA450D70030231C41252DD123B53E50A26
:1031330060030231C97C04850882850983A3A3A3A4
:10314300A3A3A3A3A3E0F9120B77EE4F60738E82C0
:103153008F83A3A3A31243127406120B0A125DB743
:103163001243127408120B0A125C24C0E07410128A
:103173000B0AD0E0123235124312740E120B0A12EC
:10318300572B7411120B0AE412549EC8241FF582A4
:10319300E438F5831250DAC413135403FC70027C31
:1031A300048E828F83E0F9780C12082E742059FD67
:1031B300744059F974021208B2120CC7740212084F
:1031C300417417026D657C08850882850983A3A372
:1031D300A3A3A3A3A3A3E0F9120B778B0FEA450FD5
:1031E300700302314DEE4F60D8E50AF50B780B12F0
:1031F3000832850C82850D83A3A3A3A3A3A3A3E015
:10320300F50B780B1208328A828B83A3A3A3E0FB0E
:103213008A82850F83123B3B8A82850F83E0FA8E75
:10322300828F83A3A3E0F912210D740212084102D5
:103233003151F0850C82850D83A3A3A3A3A3A3A37C
:10324300A32274F712038674FA1208DAE9FE7C01EA
:103253007D017F0080037D000F124F1BE0F8EFC359
:10326300985028EF75F006A4F885F008A908EA2815
:10327300F8EB39F9E824141258B9A2E050D8540CE9
:1032830060D4E0A2E250D17C0080CD8A828B83A3FC
:10329300A3A3A3A3A3E0703DEDA2E0400574016ED8
:1032A30070338A828B83A3A3A3A3A3A374011245C0
:1032B30083E0C0E07403120B0AD0E012457BE0C048
:1032C300E07404120B0AD0E0F07405120B0AEC123E
:1032D3005F52120E3574060247BCC082C083790167
:1032E300120CD3025A4074F4120386EA4B901AA9C3
:1032F3006022E4F08A088B09F50AF50B78081208B6
:10330300267A027B00900319E0F9121B557404120C
:103313000841800F7401F07A027B00900319E0F9F1
:10332300121B61800574021208417F0402059D741B
:10333300E812038674FC1208DA7402120B0AE4F032
:10334300A3F0900338123B53851882851983E4F068
:10335300A3F0751401900368E0A2E350030233E97C
:10336300121B738A088B098C0A8D0B8A0C8B0D8CAC
:103373000E8D0F90033A780C1208C2123464781041
:10338300790C120A4D50077A017B00023458850CE0
:1033930014850D15850E16850F17781479101203F1
:1033A30017A814A915901B23E0C398E4995003E0D0
:1033B3008001E8F514123464780C7910120317E4D1
:1033C300F512F5137808791012095990033A780821
:1033D300120A7D801112345D12572BEEFAEFFB12A5
:1033E3001AA1AE08AF09EE4F60638E828F83A3A349
:1033F300A3E0F8E514C3985029EE2403F582E43FD3
:10340300F583A814E0C398F060217402120B0A122A
:103413004321124C5DEEF0A3EF1261F4FEA3E0FF33
:1034230080C48E828F83A3A3A3E4F08E828F831242
:10343300530D8518828519831253438E828F83A37C
:10344300A3A3A360901264BF1256E9808B74021287
:103453000B0A12542C7404022DF5124317900338EF
:1034630022901B21E0F510A3E0F511E4F512F5130A
:103473002274F21203868A0A8B0BE9FE7A007B0020
:10348300900338125311900338125343601E0A8578
:103493000882850983A3A3A3A3125343600E0AEAF8
:1034A30070010B88088909E8450970E3901B241211
:1034B3004313C3EA98EB9940030235677A067B000E
:1034C300121A9B8A0C8B0DA80CA90DE849700302F4
:1034D300356788828983E50AF0A3E50BF0EE8882DD
:1034E3008983A3A3F0901B2312592BA3A3A31245F3
:1034F300ABA3A3A3E4F0A3F090033812431B600F24
:10350300850882850983A3A3A3A312572B801F9049
:10351300033812572B900368E0A2E34011121B7388
:10352300EAF8EBF9ECFAEDFB90033A120AB79003D1
:1035330068E0A2E3502E7A087B00900319E0F912A9
:103543001B67EA4B4C4D701C901B2112739F78082C
:103553001208267A087B00900319E0F9121B5B74AA
:1035630004120841022A2FC082C083E9901AAAF0EC
:103573009003327409F0A3740DF0900334741BF0BC
:10358300A3740DF0900336742DF0A3740DF0025A5A
:103593004074F7120386EAFEEBFF8908EE4F7003CF
:1035A30012163F90033E125343700890033E80224D
:1035B30012431388828983A3A3A3A3A3A3A3A3A3CF
:1035C30012431B88828983A3A3A3A3A3A3A3A3A3B7
:1035D30070DEEEF0A3EF1265AAA3A3A3E4F01265D5
:1035E300A9E508F00247BF74F712038690033E80F3
:1035F3000D8E828F83A3A3A3A3A3A3A3A3A3123B91
:1036030053EE4F60348E828F83A3A3A3A3A3A3A3FC
:10361300E06970DD8E828F83A3A3A3A3E06A7003A6
:10362300A3E06B70CC8E828F83A3A3A3A3A3A3E099
:103633006C70BEEEFAEFFB80047A007B000247BF9A
:1036430074F712038690033E123B5390033E1230ED
:10365300EF687002EB69701EE0C82409F582E43854
:10366300F58312431390033E12572B90033E123BF4
:10367300538027123B46EE4F60208E828F83A3A395
:10368300A3A3A31230EB687002EB6970E68A828B06
:1036930083A3A3A31236A712572B121AA1EEFAEF94
:1036A300FB0247BFA3A3A3A3A3A3123EB5A3A3A354
:1036B300A3A32274F012038674FA1208DA8A088B21
:1036C300098A828B83A3A3A3A3A3A3A3A3E0603349
:1036D3006401602F8A828B8312542C121081E9704B
:1036E30022850882850983A3A3A3A3A3A3A3A3E09D
:1036F3006403701474041208BAAA08AB09120D8784
:10370300E9701679020238B285088285098312436B
:10371300137404120B0A12572B126B442434125DD8
:10372300A2121A9B8A0A8B0BAE0AAF0BEE4F7003E1
:103733000238B07C347D0079001219F37402120848
:10374300B2850882850983A3A3A3A3A3A3A3A3A3E9
:10375300E0F91215977402120B0AE0C0E01238C1A7
:10376300D0E0F0EE242EF50AE43FF50B7403120BC0
:103773000AE0850A82850B83F07901EEFAEFFB12EA
:103783000CF785080C85090D750E00780C12082AB4
:103793007C1E7D001238C91219E77403120841EE2A
:1037A3002432123C762434F8E43FF98A828B831264
:1037B300572BE5082411F8E43509F9E8FCE9FD8CF9
:1037C300828D83124BF82430125725123C6E1276E9
:1037D3005212082A8C828D831238D812542C121953
:1037E300E774031208417404120B0A123EB1125714
:1037F3002B90031A1238D1A3A3A3F090031AE00469
:10380300F0121B738E828F83124C47242C1241813A
:10381300750D00850A82850B83E0780C1209948A62
:10382300828B83E50CF01238B7E50C124C5DE4F0A3
:10383300E5082415126B48A2E074015007120B0A25
:1038430074018004120B0AE4F0EE2429125304AA33
:1038530018AB1912157FE924FE850882850983F0C8
:10386300EE2430F8E43FF9E8FCE9FD1238E01202F7
:103873003EE88E828F83A3A3A3A3A3A3A3A3F012E3
:1038830038E012023E8B09EA4509600F8E828F836E
:10389300A3A3A3A3A3A3A3A3E004F0EE2420124FA6
:1038A3002644081241CD121A477900800279107418
:1038B30006023C9BEE242BF582E43FF58322EE12B5
:1038C300616E3FF58322EE240BFAE43FFB22126480
:1038D300D5A3A3A322123B408A828B83228C828DA1
:1038E30083124E8AE0FA7B002274F4120386EAFE06
:1038F300EBFF121B738E828F83124C03901B17E016
:10390300F8EE242D124F26C3984003023A4D12417C
:103913008D7012EE242D124F2604124F59C0E0125F
:1039230038B7D0E0F0EE242A124F26FC790080014C
:1039330009EE242E124F26F8E9C398502675080184
:10394300750900E9780812099412418D550860E061
:10395300E92CFC750801750900E97808120994E05F
:103963004508F0EE2429124F26FAEE2430F582E4BE
:103973003FF583EC8AF0A4F8ABF0E42BF9E098F878
:10398300A3E099F9C3E89AE99400EE40312429129F
:103993004F26F812418D602C1238C1123A68A3E405
:1039A300F0EC7047EE2420124F264420125C28C00E
:1039B300E0124F47D0E0124F51FAA3E08052123881
:1039C300B874FFF090035EE0FA901B1A123A5FABF3
:1039D300F075F064A4FAADF075F064EBA42DFB8EE2
:1039E300828F83A3A3EAF0A3EB80B5EE2420124FCA
:1039F3002654DF124F42ECF0FAEE2429F582E43F1D
:103A0300F583123A5FFAABF0EE124B8E3F1241A3ED
:103A1300FB126945EAF0A3EB1265B9C0E0EE242579
:103A2300F582E43FF583D0E0124C14E8125353902F
:103A33000340125343600BECF91268781204FEE959
:103A430070171238C9120D5D800F7BE9123C8C127E
:103A5300154FEEFAEFFB120D0302332DE0F508EAE2
:103A63008508F0A4221264D5A3F02274F41203860D
:103A730090033E123B53121B738A0A8B0B78FF7918
:103A8300FF8020E0C39AFCA3E09BFDC3EC98ED9973
:103A9300500E8E828F83A3A3E0C39AF8A3E09BF911
:103AA300123B46EE4F605C8E828F8312542CE50AE4
:103AB300C39AFAE50B9BFB8E828F83123B3AC3EAD0
:103AC3009CEB9D8E828F83A3A340B8A3A3A3A3E003
:103AD3006402701AEE240B124190600912416C12B9
:103AE300542C121A0BEEFAEFFB120D038007EEFAB9
:103AF300EFFB120D0F7A017B00901AAAE0F9121A5C
:103B030047802974FF68700374FF69601F88088900
:103B130009E4F50AF50B78081208267A017B009070
:103B23001AAAE0F9121B55740412084102332DA39B
:103B3300A3A3A3A3A3A3A3A3A3123B4022E0FCA399
:103B4300E0FD228E828F83A3A3A3A3A3A3A3A3A396
:103B5300E0FEA3E0FF2274F01203868A088B09ECCF
:103B6300FAEDFB890A7C01126B44F9120CFD8A0CF5
:103B73008B0DAE0CAF0DEE4F7003023C62E50A6095
:103B830003023C62123C6E123C84686003023C6296
:103B9300123C6EE0FAEE242E124F26F8EA28FAE4DD
:103BA3003400FB8E828F83A3A3A3A3A3A3A3A3E0C9
:103BB300F8EA98EB9400C365D033401CE50824145D
:103BC300126B48F470127B00123C8C12154FEEFA04
:103BD300EFFB120D03023C62E5082414126B48F458
:103BE3007042EE242B123C76242EF8E43FF9E8FCD5
:103BF300E9FD7508FF7509008C828D83E078081252
:103C030009948A828B83E508F0123C64E508F08C02
:103C1300828D83123C8428F0EE242DF582E43FF557
:103C230083E4801BE5082414F8E43509F9E0C0E0D7
:103C3300123C64D0E0125DC9C0E01238B7D0E0F0A6
:103C4300121B738E828F83124C471238C2123C8030
:103C5300A31253537A01FB901AAAE0F9121A478070
:103C63003AEE242CF582E43FF58322E5082413126F
:103C73003EA122F8E43FF9E8FAE9FBEE221264D50B
:103C830022E0F8EE1258D0E022EE2422124C32FA4F
:103C9300EE2414124C32F9221208417F0802059DCA
:103CA30074EC12038674FE1208DA8A0A8B0B8C0EEC
:103CB3008D0F89108A828B83A3A3E0F91215738A6F
:103CC300088B09AE08AF09EE4F70077A007B00023C
:103CD3003E857A127B00121A9B8A088B09EA4509F2
:103CE3007003023E817C127D0079001219F3AA1839
:103CF300AB19850A82850B83A3A3E0F9121597E517
:103D030008240FF50CE43509F50D7401120B0AE0D4
:103D1300850C82850D83F07902AA08AB09120CF792
:103D2300850E82850F83123EA9123EC712414012AF
:103D33006585F07512FF751300850C82850D83E090
:103D43007812120994126DC5E5121246E7126876CD
:103D5300E0C0E0123E99D0E0F0124162F50CE508B4
:103D6300240D126DC9E50CF0E50A124174850CF0BF
:103D7300A4A9F02427FAE439FB121A058A0C8B0D47
:103D8300AE0CAF0DE50812684EEEF0A3EFF0EE4F68
:103D93007003023E748E828F83741A1253538E8281
:103DA3008F83A3A3F0A3123ECD123EB112572BACC7
:103DB3000EAD0F12694F121591850A82850B83A3ED
:103DC300A3A3E0C0E01250D0D0E0F090037B124BED
:103DD300F82410123EC1124BE6350B124BF6125F5C
:103DE30034E8F0A3E9123ECDA3A3A3A3124BF82416
:103DF30012125725850A82850B83A3A3E0C0E01224
:103E03003E8FD0E0F0E50A12453B124147E0C0E0A7
:103E13001262A5D0E0F07416120B0A12687EC0E09D
:103E2300126B32D0E01265A4C0E0126854D0E012E5
:103E33006887C0E012685ED0E0124C09E510F074A8
:103E430018120B0A120AC3EE241AF582E43FF58313
:103E5300120AB7EE2427F8E43FF9EE2422123EC1FA
:103E6300125D8E124147E0C0E0126957D0E0F08046
:103E73000DAA08AB09120D03750800750900AA08FD
:103E8300AB0974021208417F0C02059DEE2414F560
:103E930082E43FF58322123E9D22E508240BF5823E
:103EA300E43509F58322124E8AA3A3A3A322123E6B
:103EB300B5221266618E828F83A3A3A3A322F58208
:103EC300E43FF583124C75E50A22F0850A82850BDF
:103ED30083A3A3A3A3A3A32274ED1203868A0A8B4D
:103EE3000B8C108D118912750900EA124174F508C3
:103EF300900340125343600EA9081268781204FE1F
:103F0300E9600302413B7C028510828511831254D0
:103F13002CE50A124140E0F9120CFD8A0C8B0DAE20
:103F23000CAF0DEE4F7054850A82850B83A3E0A27C
:103F3300E0400302413B7415120B0A120668741722
:103F4300120B0A12066CA912AC10AD11AA0AAB0B24
:103F5300120D2174061208418A0C8B0DAE0CAF0DA5
:103F6300EE4F700302413B8E828F83A3A3A3A3A3CF
:103F7300A3A3A3E5081241CD121A47A8088E828F86
:103F830083A3A3A3A3A3A3A3A3E024FFFAE434FF7F
:103F9300FBEA684B7003750901EE240B1241907024
:103FA300030240F0850A82850B83A3E0A2E050035D
:103FB3007508001241BAE5089AE49BC365D0334003
:103FC3001CE0F8EE240E124F2628F0750CFF750D39
:103FD30000E8780C120994125B44E50CF0E50A1230
:103FE300414C12414712699512082AE50A124158B9
:103FF300350B125F49EE240D124F26F50CE50885AB
:104003000CF0A4FAABF012416C12619C2422F582ED
:10401300E4381241A3FB1219E77403120841750C2B
:1040230001124195780C120994124F23450CF0E5C7
:1040330009A2E05063EE240C1241811241950478E9
:104043000C1209948A828B83E0450C124C27850855
:104053000C850CF0A4F8A9F0124162FCE82CFCE4F6
:1040630039FD12416C12619C2420F582E438F583FA
:10407300ECF0A3ED124C4EF4701EEE240BF50CE4A1
:104083003FF50DEE1241583F1241AC121A11850C47
:1040930082850D8374FF8054121B738E828F83126B
:1040A3004C0390035EE0FA901B1AE0F50CEA850CD2
:1040B300F0A4FAABF0F8EBF9901B17E0F50CE885E8
:1040C3000CF0A4F8ACF0850CF0E9A42CF9EA28F87C
:1040D300EB39F9E875F064A4F8AAF075F064E9A483
:1040E3002AF98E828F83A3A3E8F0A3E9F0A808122C
:1040F30041BAEA24FF1AEB34FFFBEA687001EB6074
:104103000EEE240C1241906006E509A2E05029E569
:104113000A124179ECF0124F23C0E0E50A2414F5AA
:1041230082E4124147D0E0F0AC0AAD0B85108285E2
:10413300118312542C120D4B7F0B02059D12451B4C
:1041430012414722350BF5832212415022240EF5EA
:1041530082E422E50C12415C222410F582E422E57C
:104163000A12415C124147E022EE12415C3FF583A3
:1041730022124179E022124515350BF58322F8E42A
:104183003FF9E8FAE9FB750CFF22EE242B124C32BF
:10419300F422750D00124C2FF5F0E50884E5F022AA
:1041A300F583E02AFAA3E03B22F583125436850C0B
:1041B30082850D83E0F922EE240E124C32FC124C60
:1041C3002FFAEC2AFAE43400FB22F07A017B009008
:1041D3001AAAE0F922C082C083901AAAE0F9121A3F
:1041E30011025A4074F41203868A088B09EB548037
:1041F300703BEAA2E05053120D15E5086401FAABD7
:1042030009804B8E828F83E06401701A1242601220
:10421300066812425412082EEE2412124268120D3E
:10422300277406120841EEFAEFFB121A0B901AAA32
:10423300E0F9121A1D8A0A8B0BAE0AAF0BEE4F7010
:10424300C2AA08E5096480FB80047A007B0002337C
:104253002DEE240FF50AE43FF50B780A22EE124502
:10426300153FF58322124C32F9EE2402FCE43FFDA4
:10427300EE2419FAE43FFB22C082C08390034280FC
:10428300048C828D83123B3CEC4D60288C828D83A1
:10429300A3A3E069600574FF6970E68C828D83A334
:1042A300A3A3E06A7003A3E06B70D6EC2403FAE4E3
:1042B3003DFB80047A007B00025A4074F7120386A8
:1042C300E9FD74FE6D70047C0180027C0090034262
:1042D30080096D70027C0188828983125343601FB9
:1042E30088828983A3A3A3E06A7003A3E06B70E7CA
:1042F300ECA2E088828983A3A3E050D6F9800279F7
:10430300FE0247BFA3A3125315EE228E828F83A30F
:104313001243172212666122125436EA4B22E0241A
:1043230001F0A3E034002212432E22124332221260
:1043330043362212664CA3A3A32274F61203868C7F
:10434300828D83A3A3124571F0EA2417F582E43B1F
:10435300F583E0C0E0124541D0E0F012452112435D
:104363001312452B124571A3F0A3F0EA241FF58223
:10437300E43BF583123B53EC124BE63DF583EEF041
:10438300A3EFF0EA125B3E3BF583124552A3A3A3CE
:10439300A3A3A3EEF0A3EF125DC9FE8C828D83125B
:1043A300459B74035EFEC394034003024508EE601D
:1043B3000574026E70798C828D83E0540CFE740C4C
:1043C3006E700302446FE0A2E4400D88828983E0AB
:1043D3008C828D83A31245A374086E600302446F1D
:1043E3001245337401F08A828B83A3A3A3A3A31280
:1043F30055F670148C828D83E0440C12457BA3A385
:10440300124552EEF0A3EFF08C828D83E0A2E440DC
:104413001E12456012458C500109124560A3A31278
:10442300458C5001098882898312454912459B882E
:10443300828983E0C0E0EC12451B3DF583D0E01296
:10444300459B8C828D83E0A2E7507888828983E044
:10445300FE8C828D831245A374FC5E700C8C828D5E
:1044630083A3E054036403701B024508124533E43D
:10447300F0740C6E60030243E912456012458E50DE
:10448300870980848C828D83A3E0540360388882FB
:104493008983E0C0E0EC1245153DF583D0E0124579
:1044A300A48C828D83E054036402701A888289830A
:1044B300E0C0E0EC2414F582E43DF583D0E012453E
:1044C300A48003A3E4F0EC12414C3D125729EC24E1
:1044D30010FEE43DFF124521E0F5088E828F83E054
:1044E300C3982508F508F0EA2417F8E43BF9888215
:1044F3008983E0C39508C0E012452BD0E0125DC963
:10450300C39508500A12452BE4F0124541E4F0022A
:1045130045B52413F582E4222411F582E422EA242A
:104523001DF582E43BF58322EC125B3E3DF58322CD
:10453300EC12453B3DF58322240CF582E422EC1278
:10454300415C3DF58322E08C828D83A3A3A322E00B
:10455300FEA3E0FF8C828D83A3A3A3A32288828979
:1045630083E0F508A3E0FFE5088C828D8322E4F065
:104573008C828D83A3A3A322124583A3A3A3A32287
:10458300F08A828B83A3A3A322A3A3A3A3A3A3F051
:10459300A3EFF0E82402F8221245ABA882A98322F4
:1045A300A31245AB08A98322125DCEA32274021283
:1045B30008417F0202059D74F412038674F3120806
:1045C300DA8A0A8B0BECFEEDFF8E828F83E0540CAC
:1045D300F508E0A2E75006E508D2E7F508E508D2BA
:1045E300E1F5081255F67006E508D2E4F508E0A2F5
:1045F300E55006E508D2E5F5087C087D007900AAB8
:1046030018AB191219F37402120B0AE5081246E7E4
:10461300C0E07403120B0AD0E0124C5DE50AF0A36C
:10462300E50BF07405120B0A125F50120DFF740CA8
:10463300120B0AE070787408120B0A12619C125D67
:104643008E38126671C0E07408120B0A1246DBD072
:10465300E01261EFC0E07408120B0A1246CFD0E0FB
:10466300F07408120B0A124DA81246BE125C2812EF
:104673004C3A2411124F26C0E01246B6D0E0F0EEB9
:104683002414124F26C0E07408120B0A12619C24F2
:1046930035F582E438F583D0E0124C1FC0E074088E
:1046A300120B0A124BD0D0E0125F52120E05740D9A
:1046B30002332AE8124B8E39F58322125430E82450
:1046C3002AF582E439F583EAF0A3EB221261EA24A6
:1046D30027F582E438F583221261EA2426F582E481
:1046E30038F58322126647E02274F71203867E00B0
:1046F3008A828B83A3A3A3A3A3A3A3A3A3E064049A
:1047030060030247981254B2E060030247981247CD
:104713009C3B125341607E88828983E05403707509
:10472300E8240C1258B9FA8C828D83A3A3E0FBA36F
:10473300E0CB12451B3BF583E06A7059888289837D
:10474300A3A3A3A3A31247A7E06A7003A3E06B701C
:1047530044888289831247A7A3A31258E62406122A
:104763004F266A7003A3E06B702B88828983A3A30F
:10477300E0F88C828D83A3A3E0F9A3E0F58389821B
:10478300A3A3E068600D8C828D831250D8540C640F
:104793000470027E01EEF98023EA1247A122240F5E
:1047A300F582E422A3A3A3A31254368C828D832221
:1047B300740C120B0AE0F9740D1208417F01020513
:1047C3009D74F612038674FC1208DAEAFEEBFFEC22
:1047D300FAEDFB8A828B83A3E054036016900334C3
:1047E30012534360597900EEFCEFFD12687812040E
:1047F300FE804B851882851983EEF0A3EFF07402D7
:10480300120B0A124C03AC18AD197A517B0D120F1F
:10481300978A088B09A808A909E849602188828931
:1048230083A3A3A3A3A3A3A3A3A37406F07A0088DB
:1048330082898312619C126174E0F9120ED77404A9
:104843000245B274F212038674F31208DAEAFEEB3D
:10485300FF8E828F83A3A3A3A3A3A3A3A3A3A3E0F6
:10486300F50A901AA9E0700579BA024B8975080117
:10487300750900750C00750D007C087D007900AA90
:1048830018AB191219F37405120B0A7401124C5563
:10489300540460127402120B0AE0D2E6124C55540F
:1048A300087003750803E05410600674404508F56A
:1048B30008E0540860227402120B0AE044C0124C50
:1048C300555420600A7403120B0AE0D2E080087486
:1048D30003120B0AE0D2E1F0EE2415124F26124B1D
:1048E300B87003740169700674084508F5088E8270
:1048F3008F83A3A3A3A3A3A3A3A3E0701612100300
:10490300851882851983124C037402120B0AE0D2B4
:10491300E2802C640F70107402120B0A124C65743F
:10492300044508F508807B8E828F83A3A3A3A3A3EA
:10493300A3A3A3E064028E828F837006125C1CF033
:104943008060A3A3A3A3A3A3A3A3E06403700DACFC
:1049530018AD19EEFAEFFB120D8780468E828F8316
:10496300A3A3A3A3A3A3A3A3E0640170359003BEF1
:10497300E060107402120B0A124C65750910750A77
:10498300FF80187402120B0AE0440C124C5D74FD94
:10499300F0A374FFF074044508F5088E828F831228
:1049A3004BC4EE2415124F26A2E0503F7402120BA3
:1049B3000AE0540C701B8E828F8312542C121EBB80
:1049C300E9700579BB024B897402120B0AE0D2E548
:1049D300F0EE2415124F26A2E050107402120B0AB7
:1049E300E0540C64047004E0D2E5F0EE2411124F9D
:1049F30026C0E07404120B0AD0E0125F52120DFFBE
:104A0300740C120B0AE06003024B827408120B0A47
:104A1300124BECE508F0A3E509F0EE2418124F263B
:104A2300C0E0124BA7D0E0124C09E0C0E0740812BA
:104A33000B0A12619C12451538F583D0E0125C28ED
:104A4300640170119003BEE0C0E07408120B0A12F7
:104A53004BDCD0E0F07408120B0A124BF824171247
:104A63004F26FAE8241CF582E439F583EA125353FE
:104A7300EE2415FAE43FFB8A828B83123B3CE81257
:104A83004B9EECF0A3ED124C14E0C0E0124B94D01B
:104A9300E0124C4E124BB870037401697013740822
:104AA300120B0A125499FAEE241D124F26F9120B17
:104AB3007D8E828F83A3A3A3A3A3A3A3A3A3E0C0F9
:104AC300E07408120B0A1246DBD0E0F07408120BF4
:104AD3000A1246CFE50AF07408120B0A1253212476
:104AE30028F582E439F583E50CF0A3E50D124C2794
:104AF300FAA3E0FBE8242A124C41240F124F26129A
:104B03004C3A2417124F26C0E0E82433F582E439E7
:104B1300F583D0E0F0124BB1C0E07408120B0A1217
:104B23004BD0D0E0F0EE241A124F26C0E0740812E6
:104B33000B0A12619C124B8E38F583D0E0124C1F86
:104B43001229C912082A126846123B3C740B120B35
:104B53000A125BFA1219E77403120841EE241512C4
:104B63004F265440601290034E125343600AAA1812
:104B7300AB191268781204FEAA18AB19120E057449
:104B83000C120B0AE0F9740D022A2C2432F582E48C
:104B930022E82420F582E439F58322241EF582E4F9
:104BA30039F58322E82412F582E439F58322EE24D1
:104BB3001B124C32225480F8A3E05401F97480682C
:104BC30022124BC822E0F50CA3E0F50D221261EA94
:104BD3002434F582E438F583221261EA124BE63875
:104BE300F583222415F582E4221253251247A139B5
:104BF300F58322F583124317EE22F582E439F58318
:104C0300EAF0A3EBF022F0EE2419F582E43FF583FA
:104C130022F0EE241CF582E43FF58322F0EE241308
:104C2300124C3222F0EE240D124C3222EE240FF5F8
:104C330082E43FF583E022FAA3E0FBE8242CF5822B
:104C4300E439F583EAF0A3EBF0EE22F08A828B835A
:104C5300E022F0EE2415124C3222F08518828519D9
:104C63008322E0D2E3126A64124C6F228518828594
:104C73001983E8F0A3E9F02274F71203867E638AAE
:104C8300828B83E0600C7905120EA7E9F87456C392
:104C930098FE900366E0600CF9120EA7E9F8EEC3E4
:104CA3009824F2FE02479874F612038674FE1208E3
:104CB300DA851882851983124C03E9FEECFAEDFBC1
:104CC30090052C1253436035A818A919880889093F
:104CD300780812082E7D01740E120B0AE0FCEEF91F
:104CE30090052C1261901204FE74021208418B0984
:104CF300EA450960047900800679B2800279B60238
:104D030045B074F7120386E9FE90032812534360FB
:104D13001F7409120B0AE0F5087808120832EEF93D
:104D23009003281261901204FE740112084180025C
:104D330079B60247BF74F71203868908ECFEEDFFCC
:104D430079B5E508245F600C14603114601224F80F
:104D53006045804E90031B124DA8E8F0A3E980192B
:104D630090052E12431B603A90052E126190120497
:104D7300FE8E828F83EAF0A3EBF0802490032A1245
:104D83003B3CEC4D601CEEFCEFFD90032A1261905E
:104D93001204FEE9F9800B9003261264AD121B8BFB
:104DA30079000247BF1243178E828F832274F71252
:104DB3000386E979B5245F600624F6600E80178CBC
:104DC300828D83124DDC12572B80099003261254D7
:104DD3002C121B8B79000247BF12431790031B222F
:104DE30074F21203868A088B09ECFEEDFF750A0143
:104DF30090036EE065087004A3E065097014120F58
:104E0300FD8A088B09AC08AD09EEFAEFFB121B8B88
:104E1300802A1210098A0C8B0DE508650C7004E5D5
:104E230009650D7009EEFAEFFB12100F800EEEFC10
:104E3300EFFDAA08AB091220D1E9F50AA90A022A53
:104E43002F74F2120386EAFEEBFF8C088D09750AB4
:104E530001120FFD8A0C8B0DAC0CAD0DEEFAEFFBBE
:104E6300121B85E96401700B90036E124E86125774
:104E73002B800EAC08AD09EEFAEFFB1220CBE9F55F
:104E83000A80B9124E8A22126661850882850983D7
:104E93002274F6120386EAFEEBFF7A0D7B00121AE8
:104EA3009BEA4B6070EE2424126A86F0EE242512EE
:104EB3006A86A3124F42126A8CA3A312688D124F03
:104EC3002AF0EE1258CC1243138A828B83A3A3A336
:104ED300A3E8F0A3E9124F59124F3312572BEE24D4
:104EE3002EF582E43FF583124F2AA3A3A3A3A3F0D5
:104EF300EE2433124F26C0E0124F1BD0E01266752A
:104F0300124F33A3A3A3E8F0A3E9124F51C0E01259
:104F130054B2D0E0F00245B5EA1258C63BF58322FD
:104F2300EE240C124C3222E08A828B83A3A3A322A9
:104F3300F8A3E0F98A828B83A3A3A3A3A3A322F0FC
:104F4300124F4722EE2426F582E43FF58322F0EE4A
:104F53002432124C3222F0EE242C124C322274F4FE
:104F630012038674FE1208DAECFEEDFFEE2416122D
:104F73004F2664057010EE2406FCE43FFD120D81FC
:104F8300E9700302500EAC18AD1912694F121EC11D
:104F9300851882851983125343606C8E828F83E058
:104FA30064017059E875F009A4F8AAF075F009E9ED
:104FB300A42AF9745028F8740839F9E8FAE9FB8A45
:104FC300828B837808120A9B1268687808120A5D3C
:104FD3004027851882851983124BF81250D112503D
:104FE300137808120A9B90808778081209F38A8243
:104FF3008B837808120A7D800A79A28010EE240F31
:105003001257257900800679A1800279C8023328D6
:10501300124C7512686C2274F01203868A088B098D
:10502300ECFEEDFF1250D0E4F0A3F090807F780CFB
:10503300120A9B126868780C12091B70030250C88D
:10504300EE240E124F266401703678B3900365E0A8
:10505300702A900397E064017022EE2411124F2608
:10506300F9120E8F8A088B09A808A909EE240F12DA
:105073005725E84960047800800278A1880A8048AF
:10508300E07017120D93E9F50A603D8E828F83A3BA
:10509300A31250D85403700E802E64027015120DA3
:1050A30093E9F50A6022EEFCEFFDAA08AB09121E94
:1050B300D38008E064037008120D93E9F50A8008B1
:1050C300750AA18003750AA3A90A023C9EEE124742
:1050D300A13FF58322A3A3125FC62274F0120386B5
:1050E30074F51208DAEAFEEBFFEE240AF508E43F52
:1050F300850882F5831253111252E574031208BA1C
:105103008E828F8312542C120D81E970030251CDCC
:1051130074011208BA74031208B2121EC174011288
:105123000B0A12534370030251CDE875F009A4F83A
:10513300AAF075F009E9A42AF9744C28F87408391F
:10514300F9E8FCE9FD126D6DE4F004120B0A124359
:1051530013E50812479D35091257298C828D831256
:105163000AC31252F1120AB79080877808120A9B79
:105173008C828D837808120A198C828D83780812A9
:105183000A9B90806B780C120A9B7808790C1203A7
:1051930017E50C450D450E450F702F7401120B0AD0
:1051A30012532175F009A4F8AAF075F009E9A42AAD
:1051B300F9745428F582740839F5837401F07A0080
:1051C3007B08901933E0F9121A471252F9E02406CA
:1051D300FCA3E03400FD8E828F8312542C120D81C8
:1051E300850882850983125338705212546D121B3D
:1051F30085E9701D120FFD8A088B09AC08AD099073
:10520300032612542C121B85E97006120E29E9603D
:105213002C8E828F83123B328E828F8312542C12F8
:105223001ED9E960138E828F83A3A3126194124760
:105233009D38F583E4F0A3F0125702E4F012532AE9
:1052430060030252D88E828F83A3A3A3A3A3A312C6
:10525300530D900365E07072900397E06401706AE8
:10526300750A3A750B00780A12082E74021208AAFE
:10527300880A890B780A12082E7C017D007A007B4C
:10528300001211CB7404120841E9703B126D6D7466
:1052930001124C5DE0C0E0E5082411126DC9D0E0B5
:1052A300F01252DD743A125353900350120AC31290
:1052B30052F1120AB79080877808120A9B90035024
:1052C3007808120A1980031252E512532A70061243
:1052D3005B4474A1F0740B023C9BE508240F123E5F
:1052E300A122E508240F123EA1E4F0A3F022E50871
:1052F3002412123EA122EE240A1253048882F5835B
:1053030022F8E43FF98808890922A3A3A3A312532F
:105313001522E0F508A3E0F509228C828D83125350
:105323002522126661E8228E828F83A3A3A3A3A3FF
:10533300A3A3A3A3A31261EA240FF582E438F583A0
:1053430012532549221261EA1247A138F5837404E6
:10535300F0A3E4F02274F6120386EAFEEBFFEE24D8
:105363000A1253047A187B00121A9B850882850956
:1053730083EAF0A3EB1254ADE8497003025419EE2B
:10538300FAEFFB120D9F12532A607412548B6401BF
:105393008E828F83A3A3A3A3A3A3700712545D7468
:1053A3000E8020125343700F12546D121B85E97047
:1053B30006120E29E96007125453740D8005125426
:1053C30053740512667554036401700712543C74D8
:1053D30005800B900366E0C0E012543CD0E0125409
:1053E3009EF5838882A3E0F9120EA78508828509BA
:1053F3008312619C2417F582E438F583E9801A85CA
:10540300088285098312542C121AA1850882850902
:1054130083E4F0A3800312617BF00245B58E828F93
:1054230083A3A3A3A3A3A3A3A312543622A3A3A337
:10543300A3A3A3E0FAA3E0FB228E828F83A3A3A3FB
:10544300A3A3A3A3A312544C22A3A3125B5DA32281
:105453008E828F83A3A3A3A3A3A3A3A3A3A3126156
:10546300EA2416F582E438F58322900326123B40A2
:105473008E828F83A3A3A3A3A3A3A3A3A3A3E024A5
:1054830006FAA3E03400FB228E828F83A3A3A3A397
:10549300A3A3A3A3A3A3125714E0221254A222127C
:1054A30054A622126B51F8A3E0221254A2F922EA65
:1054B30012453B3BF5832274F11203868A0A8B0B58
:1054C3008C088D097A187B00121A9B8A0C8B0DAEFF
:1054D3000CAF0DEE4F70030255EF1210038A0C8BC5
:1054E3000DA80CA90DE5082415126B48687003A3D9
:1054F300E0698E828F837004740280027401F0E588
:1055030008240DF8E43509F988828983E0FAC3E4B5
:105513009AFA95E0FBE50812414C35091241A3FBC9
:105523008E828F83A3A3A3A3125DC58E828F83A3D1
:10553300A3F0EEFAEFFB120E598508828509831258
:1055430055F670098E828F83A374058006900366D7
:10555300123C80F0EE2417F8E43FF9880C890D8E95
:10556300828F83A3E0F9120EA7E9850C82850D8350
:10557300F0EE2416F8E43FF9E508240EFAE43509C1
:10558300FB888289831261ACE5082410FAE43509AB
:10559300FB850C82850D83E0FC88828983E0F88A91
:1055A300828B83E0C398C39CF812432AF0EEFCEF8E
:1055B300FDAA0AAB0B120D99E9F5088E828F83E0E1
:1055C30064027011120FFD8A0A8B0BAC0AAD0B1229
:1055D300694F121B8BE508700AEEFAEFFB120E659A
:1055E300E9F508EEFAEFFB121AA18003750810A97A
:1055F30008800BE05403640122740D1208417F07F5
:1056030002059D790102080E74F4120386EAFEEB8B
:10561300FF8E828F831261942424F582E438F5830C
:105623001255F6702A12548B70251256EFE064055A
:10563300701D1256EFA3E0F87401686005740668E4
:105643007007125702740280051257027403F01296
:1056530052F9126190E4F0EE24081256CB2431F58E
:1056630082E43AF583E0C0E01256D9D0E0125DC976
:10567300FAA3E0CA242EF582E43AF583E0C0E012EF
:1056830056D9A3D0E0125DC9F8A3E0C81258C238B6
:10569300F583124E861256E912572B120FFD8A0A12
:1056A3008B0BAC0AAD0B850882850983E0240612B7
:1056B3005DA2121B8B85088285098312542C120E5E
:1056C30065126254F002332DF8E43FF9888289832E
:1056D300E0FAA3E0CA228508828509831256E322F1
:1056E300126165A3A3221256E3A3A3228E828F83A2
:1056F300A3A3A3A3A3A3A3A3125C01125B59228EAA
:10570300828F83A3A3A3A3A3A3A3A3A3A312571427
:1057130022125DDFC812415038F58322124317EE7F
:10572300240BF582E43FF583124C7522025606C022
:1057330082C08390034474A5F0A3740DF0900346D4
:1057430074B1F0A3740DF090034874B7F0A3740D13
:10575300F090034A74ABF0A3740DF0025A4074F452
:10576300120386EA2408FCE43BFD12531D24241291
:1057730058B9FE74035EF5091258C139124BF68805
:10578300828983F0A3A882A983E50960097402656D
:1057930009600302582D740C5EF5086017740865E0
:1057A300086011740465087013740265097005EECE
:1057B300A2E4402C1258EC2427125931740C6508CA
:1057C30070181258DE2428125916FCA3E0CC2428A2
:1057D300F582E43CF583A312593774026509700519
:1057E300EEA2E440451258DE242A125916FFA3E024
:1057F300CF1258CCA31259371258E2242C1259460F
:10580300242CF582E43CF583A3125937E508601292
:1058130074086508600C740C6508600674046508F8
:1058230070081258EC24261259311258EC1258AD54
:105833007015EEA2E140101258EC241EF582E43CF0
:10584300F583E0548060081258FE1258D9801A90EC
:10585300031AE0C0E01258FED0E0F090031A125889
:10586300D990031AE004125DCEA3A882A983EEA205
:10587300E750341258DE24251259461258AD6027DA
:105883001258EC2434125931EEA2E1501A8A828B59
:1058930083A3A3A3A3A3A3A3A31256D32435F5825F
:1058A300E43AF5831258D902332D2425F582E43CDA
:1058B300F583E0540322F582E439F583E022E8120C
:1058C30058C622240BF582E4221258D022242AF54A
:1058D30082E43FF5832212592BF022EA2408FC8C40
:1058E300828D83E0FFA3E0CF228A828B83A3A3A3CD
:1058F300A3A3A3A3A3E0FCA3E0CC228A828B83A36C
:10590300A3A3A3A3A3A3A3E0FCA3E0CC124B8E3CCD
:10591300F58322F582E43FF58312592BF0A3A88285
:10592300A9838C828D83E022E08882898322F58299
:10593300E43CF58312593B22E088828983F0A30873
:10594300A98322F582E43FF58312593B8C828D8330
:10595300E0FCA3E0CC22C082C0838A828B831261E5
:10596300A6FC74035CF98A828B83A3A37401F0E918
:1059730060057402697061740C5CF86014740868E3
:10598300600F74046870137402697005ECA2E4403C
:105993001D8A828B83A3A37402F0740C68700A8A35
:1059A300828B83A3A3E02402F07402697005ECA246
:1059B300E440258A828B83A3A3E02404F0E8600FEC
:1059C300740868600A740C68600574046870098A56
:1059D300828B83A3A3E004F0ECA2E7502D8A828B91
:1059E30083A3A3E004124C4E126876A3A3A3E0544E
:1059F3000360178A828B83A3A3E004F0ECA2E15037
:105A0300098A828B83A3A3E004F08A828B83A3A3F6
:105A1300E004F08028C082C0838A828B83A3A3A37F
:105A2300A3A3A3A3A3A3A3125343600C8A828B83D0
:105A3300A3A3125424121AA18003120841D083D0C5
:105A43008202080E74F112038674F31208DAEAFE76
:105A5300EBFF740C120B0A7401F0120DC38E828FCC
:105A630083A3A3A3A3A3A3A3A3A3A3125343600644
:105A73001261891204FE124F236003025B0F7C083C
:105A83007D007900AA18AB191219F37402120B0ADC
:105A93007401125B521264BF125C24F8A3E0C812B3
:105AA3005B3E38F583E02409C0E07404120B0AD08E
:105AB300E0F07405120B0A125F50120DFF740C1202
:105AC3000B0AE070477408120B0A126598740E12E1
:105AD3005B52123B3A8508828983A3AA82AB831265
:105AE3001B8B125420124F1B12699512082AEA24A9
:105AF3000D125F45E5082409FAE43509FB1219E79D
:105B03007403120841AA18AB19120E058E828F83F3
:105B1300A3A3A3A3A3A3A3A31253436006125420D6
:105B2300121AA1EEFAEFFB120DCF740C120B0AE05E
