:020000040000FA
:06000000020D0102035B8A
:03002B000209AE19
:03004B0002098720
:0300530002029016
:03005B0002099601
:030063000209A2ED
:100083000202EF010105030101FF0F10FEFFA42689
:1000930000000000DA2500000000FF000000FF0060
:1000A300010020FD0008000001000001C78001C914
:1000B3008008E905C61A000206FFFF0101010400DA
:1000C3003319000000E8030000FFFFFF19E80300F5
:1000D3000064006400B801A0BB0D00A0BB0D0002CA
:1000E30002000800000502070401051E02051E02A6
:1000F3000A0A0102080803B80B02803E0102FEFF50
:10010300E8030A050001FFFF010A1401E000120DD4
:1001130011604F120D206012E7548066F6120BD95E
:100123007011120DC6703B090909F4F618F618F69A
:1001330018F622120BB17015120DCF08080860EAE9
:10014300E6447FF618768018E4F618F622120DCFEF
:100153006016120DC67012E4F608F608F608E654A7
:1001630080F609090918181822EAC0E0EBC0E0EC90
:10017300C0E0EDC0E0E687F0A4FBACF008E687F052
:10018300A42CFCE435F0FA1809E687F0A42C4B60A4
:10019300027401CA35F0FCE433FB09E687F0D2F7B9
:1001A300A42CCB35F0FC1908E687F0A42BCC35F052
:1001B300FBE433FD0819E687F0D2E7A42C4ACB35DC
:1001C300F0CD3400FC09E687F0D2E7A42DCC35F05E
:1001D300FDE433FA0918E687F0D2F7A42CCD35F005
:1001E300CA3400FC08E687F0D2E7D2F7A42ACC355C
:1001F300F07A7E20E70B0ACB33CBCD33CDCC33CC97
:1002030033CB3350147004ED30E00ED2F1E4CD3D26
:10021300CDCC3CCC3B5005DA05C2F1EB547FC63361
:1002230008E63392F0FBE73309E733C39A502D2BEB
:1002330070190C0D4C4D70151806E608C333700D7C
:1002430020F10AA2F013F6E418800B4024E4F63000
:10025300F002768018F618F618F68024D33B145073
:100263001074FFA2F013F6187680E418F618F680DF
:100273000FA2F013F618E63303F618ECF618EDF6B2
:10028300D0E0FDD0E0FCD0E0FBD0E0FA22C0E07487
:10029300F1120601A2AFE433F509D2AF85A708AF87
:1002A300A1EF5508FE74105E60061219F975A1EFEF
:1002B30074085E60081219FF75A1F78024EFA2E0AD
:1002C30092F0E508A2E082F05017906198E0F89070
:1002D30005F7E0C398A2D265D0335002E8F075A1C8
:1002E300FEE509A2E092AF7F020206BDC0E074F210
:1002F300120601A2AFE433FED2AF9061A4E0F87519
:100303009B00E59158540860087591F7121A4780CD
:1003130023E59158541060087591EF121A4D80141B
:10032300E591A2E092F0E8A2E082F05007E0C2E09B
:10033300F0121B979061A3E0F8E5E9585404600EAE
:10034300121B6D75E9FB906193E0A2E640F2EEA209
:10035300E092AF7F010206BDC0E074F2120601A273
:10036300AFE433FED2AF9061A5E0F8E5BF58540483
:10037300600675BFFB121BAF80D4C3E498F8E49901
:10038300F91203BE8026C3E49AFAE49BFBE920E753
:10039300E91203BEE498F8E499F922C3E498F8E477
:1003A30099F91203BEE498F8E499F9C3E49AFAE4DC
:1003B3009BFB22EB20E7CFE920E7E0B90010BB006D
:1003C30008E88AF084F8AAF022E4FBC8FA22EB706A
:1003D300227B10C833C8C933C9335007C39AC3DB60
:1003E300F280069A50012ADBEAC833F4C8C933F411
:1003F300C9FA2275F008E4C833C8C933C933C99AA6
:10040300C99B5004C92AC93BD5F0ECFBC833F4C8D7
:10041300E4C9FA2212045720F01430E72B74FFFCCE
:10042300FBFA747F8022E4FCFBFA7480801AB480A8
:1004330008BC00F2BB00EF800F50EBF9E4C39AFA5B
:10044300E49BFBE49CFCE499C6CC18C6CB18C6CA53
:1004530018C6F922E4C9C608CAC608CBC6D33303F3
:1004630008CCC63392F0C3947F402E94184019C928
:10047300B90704CACBCC225025C309CA33CACB332C
:10048300CBCC33CC33D9F422F4600DC9CCC313CB1A
:1004930013CBCA13CAD9F6CC22E4FCFBFA2214FC10
:1004A300FBFA22080808EAC0E0EBC0E086F0E7A404
:1004B300FA180986F0E7A42AFA180986F0E7A42AAD
:1004C300FA180986F0E7A42AFA1986F0E7A4FBE5EF
:1004D300F02AFA190886F0E7A42BFBE5F03AFA199B
:1004E3000886F0E7A42BFBE5F03AFA18180986F022
:1004F300E7A4C5F02BFBE43AFA1908E7C5F0C6A454
:1005030026F6E5F03BFBE43AFA1886F0E7A4F6E5B5
:10051300F00826F6E43B08F6E43A08F6D0E0FBD010
:10052300E0FA22E4CFC0E0E4CEC0E0E4CDC0E0E4F2
:10053300CCC0E075F020E626F608E633F608E6338D
:10054300F608E633F6181818EC33FCED33FDEE33FA
:10055300FEEF33FFC3EC9709ED9709EE9709EF9789
:10056300191919400FFFEC97FC09ED97FD09EE9758
:10057300FE191906D5F0BFECF709EDF709EEF709F7
:10058300EFF7191919D0E0FCD0E0FDD0E0FED0E080
:10059300FF222518C582C0E0E51934FFC583C0E0FA
:1005A300E518C3958224F810AF088583198582184E
:1005B3008008858319858218D2AFCEF0A3E520F099
:1005C300A37808E608F0A3DEFAEFF0A3E58124FAA6
:1005D300F8E608F0A3E608F0A3E608F0A30808E6A7
:1005E30008F0A3E608F0A315811581D0E0FED0E062
:1005F300F8158115811581E8C0E0EEC0E022C0D076
:100603002518C582C0E0E51934FFC583C0E0E518AD
:10061300C3958224F310AF08858319858218800857
:10062300858319858218D2AFC8F0A3E9F0A3EAF055
:10063300A3EBF0A37908E709F0A3D8FAECF0A3ED54
:10064300F0A3EEF0A3EFF0A3D0E0F0A3D0E0F0A38B
:10065300D0E0F0A3E520F0A3E5F0F0A322E9799E32
:10066300C608CAC608CBC608CCC6C370207996CACA
:10067300CBCC7019798ECBCC70137986CC700EF9F4
:10068300802ACA33CACB33CBCC33CC331930E7F20D
:10069300CCCBCA3350147004EA30E00DE4CA3ACA32
:1006A300CB3BCBCC3CCC500209C3E913C6CC1823BB
:1006B30013C6CB18C6CA18C6F922851983851882B2
:1006C300E0C0E0A3E0F9A3E0FAA3E0FBA37808E02D
:1006D300F608A3DFFAE0FCA3E0FDA3E0FEA3E0FF3E
:1006E300A3E0C0E0A3E0C0E0A3E0F5D0A3E0F520E1
:1006F300A3E0A3F5F010AF0885831985821880085D
:10070300858319858218D2AFD082D083D0E0F8D008
:10071300E032120DB1B90003020754E490030178EB
:10072300A479188002F0A3D8FCD9FA7AA47B1A9092
:100733000086788B79018015E493A3AD82AE838A1A
:10074300828B83F0A3AA82AB838D828E83D8E9D96F
:10075300E77582A37583C07404120A747582D77512
:1007630083237400120A74E47375F0108E1A8F1BBE
:1007730085821F85831E851882851983E0CEA3E0B9
:10078300CF851F82851E83EBC9EAC8EDCBECCAC3B4
:10079300E833C8E933C9EA33CAEB33CBC3EA9EF57E
:1007A3001DEB9FF51CB35004AB1CAA1DEC33CCED21
:1007B30033CDD5F0DAAE1AAF1B22D083D082ECC092
:1007C300E0EDC0E0E493A3FCE493A3FDED4C600DE6
:1007D300120895EC24FFFCED34FFFD80EFE493A3B6
:1007E300FCE493A3FDED4C600D120932EC24FFFCF5
:1007F300ED34FFFD80EFD0E0FDD0E0FCE493A3C037
:10080300E0E493C0E022851983851882E0A3FEE02B
:10081300A3F5207808E0A3F608DFFAE0A3FFE0A33E
:10082300C0E0E0A3C0E0E0A3C0E0E0A3C0E0E0A339
:10083300C0E010AF08858218858319800885821867
:10084300858319D2AFD083D082020A7AD083D08233
:10085300E9C0E0E493A3C386F0C5F095F0F908E49A
:1008630093A386F0C5F095F0700BE493A3C399406E
:1008730005E9048002A3E475F002A42582F582E56C
:10088300F03583F583D0E0F9E493A3C0E0E493C0AB
:10089300E022C0E0C3E49396087401939618400FD6
:1008A300E49366700808740193661870007019A3C6
:1008B300A3C3E49396087401939618A3A3400DD0A1
:1008C300E0D0E0D0E00207F9A3A3A3A3A3A3D0E061
:1008D300227404800474028000CCC0E0EDC0E0E523
:1008E30018C39CCCAD1950011D10AF068C188D197F
:1008F30080068C188D19D2AF1209F6D0E0FDD0E036
:10090300FC2274028000CCC0E0EDC0E0E518C39C7B
:10091300CCAD1950011D10AF068C188D1980068CB3
:10092300188D19D2AF1209D4D0E0FDD0E0FC22C05B
:10093300E0C0F088F0E493667008087401936618C9
:100943007000A8F0A3A3700BD0F0D0E0D0E0D0E00B
:100953000207F9A3A3D0F0D0E022D083D082CCC089
:10096300E0E493A36006120A171470FAE493A360F9
:1009730006120B461470FAD0E0FCE493A3C0E0E443
:1009830093C0E022C0E074F212060112195D7F01E8
:100993000206BDC0E074F212060112196380EFC0B3
:1009A300E074F212060112196980E3C0E0C0D0E8D6
:1009B300C0E0E9C0E0A9A8D2AFC2C7E9A2E7E43327
:1009C300F8E9A2E792AFD0E0F9D0E0F8D0D0D0E0D8
:1009D30032CAC0E0E493A3C582CCC582C583CDC52A
:1009E30083F0A3C582CCC582C583CDC583DAE5D0A8
:1009F300E0CA22CAC0E0E0A3C582CCC582C583CDCC
:100A0300C583F0A3C582CCC582C583CDC583DAE691
:100A1300D0E0CA22C0E0E493A3D39C5010E493A394
:100A2300C39C400AD0E0D0E0D0E002097AA3A3A39C
:100A3300D0E022C008C3E096F50808A3E096420878
:100A430008A3E096420808A3E09645087001D3D0B6
:100A530008227009080808226016181818C6C3333C
:100A6300C608C633C608C633C608C633C6D5E0EAC9
:100A730022C09FF59FE473D09F22D083D082C09F72
:100A8300E493C0E0740193C0E0740293F59F2200E5
:100A9300C0D0251810AF08F518500C05198008F5BB
:100AA3001850020519D2AFD0D0227404800A7403FF
:100AB3008006740280027401C0E0F404120AC8D0F4
:100AC300E0120D5C222518F58210AF08F518400CD2
:100AD30015198008F51840021519D2AF851983221C
:100AE300BB0102E722C082C08389828A83BB0003E1
:100AF300E08002E493D083D082226016080808C6FF
:100B0300C313C618C613C618C613C618C613C6D54C
:100B1300E0EA222518F8E43519F9222518FAE43514
:100B230019FB222518FCE43519FD22C3E0C696F60D
:100B330008A3E0C696F608A3E0C696F608A3E0C6A7
:100B430096F622C0E0E493A36C7009D0E0D0E0D025
:100B5300E002097AA3A3D0E022251810AF08F51804
:100B6300400C15198008F51840021519D2AF22C39D
:100B7300E09608A3E09608A3E09608A3E096A2D225
:100B830065D03322E066701008A3E066700A08A3FC
:100B9300E066700408A3E06622E76670100809E7C0
:100BA30066700A0809E76670040809E766221919DE
:100BB30019E70947097009E727097005E733F422A4
:100BC3000922C3E096F008A3E096F008A3E096F0AC
:100BD30008A3E096F022181818E60846087009E6FC
:100BE30026087005E633F4220822C3E493960874BA
:100BF3000193960874029396087403939622C3E6AE
:100C030097F60809E697F60809E697F60809E697BE
:100C1300F622E026F608A3E036F608A3E036F60847
:100C2300A3E036F622E493F608740193F6087402FF
:100C330093F608740393F622700422600D18C6C35A
:100C430033C608C633C6D5E0F41822E657F60809BA
:100C5300E657F60809E657F60809E657F622E0567E
:100C6300F608A3E056F608A3E056F608A3E056F606
:100C730022E627F60809E637F60809E637F60809F3
:100C8300E637F622E026F008A3E036F008A3E036C4
:100C9300F008A3E036F022E056F008A3E056F0088F
:100CA300A3E056F008A3E056F022E647F60809E66B
:100CB30047F60809E647F60809E647F622E4C3962D
:100CC300F608E496F608E496F608E496F622C6F4E7
:100CD300C608C6F4C608C6F4C608C6F4C622C3E7E7
:100CE300960809E7960809E7960809E79622C3E0FC
:100CF3009608A3E09608A3E09608A3E0962275D091
:100D03000075813F75180175190300020715E60880
:100D13004608C3134608336002E633F422E7094763
:100D230009C3134709336002E733F422600C08C692
:100D3300C313C618C613C6D5E0F422E6F008A3E62B
:100D4300F008A3E6F008A3E6F022E0F608A3E0F635
:100D530008A3E0F608A3E0F622CAC0E0E6F0A30881
:100D6300DAFAD0E0FA22E0FCA3E0FDA3E0FEA3E080
:100D7300FF22EAF0A3EBF0A3ECF0A3EDF022E0FAFC
:100D8300A3E0FBA3E0FCA3E0FD22E8F0A3E9F0A3CA
:100D9300EAF0A3EBF022ECF0A3EDF0A3EEF0A3EF67
:100DA300F022E0F8A3E0F9A3E0FAA3E0FB22E5C711
:100DB30054F84401F5C77901222518F582E4351961
:100DC300F58322E72719471947194722E6261846CC
:100DD3001846184622C2AF75D69F02000022120A97
:100DE3007DDDA102120A7D4FA202120A7D98A202A2
:100DF300120A7DB4A202120A7D25A302120A7D7192
:100E0300A302120A7DBAA302120A7DF8A302120AF0
:100E13007D79A402120A7D20A502120A7DEFA602A3
:100E2300120A7D54A702120A7D82A802120A7DA823
:100E3300A802120A7DF0A902120A7D2AAD02120A43
:100E43007D28AF02120A7DF3B002120A7D8CB10233
:100E5300120A7D8DB302120A7D42B402120A7D7B0F
:100E6300B402120A7DE1B402120A7DEBB402120A43
:100E73007D14B702120A7D53B802120A7DAAB80282
:100E8300120A7D55B902120A7D05BB02120A7D5270
:100E9300BC02120A7D72BC02120A7DC7BC02120A8E
:100EA3007DC8BD02120A7DF0BD02120A7D4FBE024B
:100EB300120A7D47BF02120A7DBEBF02120A7DD10C
:100EC300C002120A7D3FC102120A7D3EC202120A0B
:100ED3007D98C402120A7DC1C402120A7D27C6028C
:100EE300120A7DA9C702120A7D00C802120A7DAE4A
:100EF300C802120A7D53C902120A7DACC902120A42
:100F03007D6ACA02120A7DFCCA02120A7D5BCB0209
:100F1300120A7D9DCB02120A7DCECB02120A7D25D9
:100F2300CD02120A7D9A2900120A7DCC2900120AE9
:100F33007D052A00120A7DC32B00120A7D992C001D
:100F4300120A7DF82C00120A7D0E2E00120A7D5A19
:100F53002E00120A7DE83000120A7DC23300120A05
:100F63007D093500120A7DA13500120A7DAD3500D9
:100F7300120A7DF63500120A7D383700120A7D2EDB
:100F83003800120A7D583800120A7DAE3800120A62
:100F93007D073900120A7D7A3900120A7DB03B00C1
:100FA300120A7D323D00120A7D1D3E00120A7D6742
:100FB3003F00120A7D9F4100120A7D9C4400120AE1
:100FC3007DAB4400120A7D3F4500120A7D82450035
:100FD300120A7D014600120A7D7E4800120A7DB086
:100FE3004900120A7D884A00120A7D0A4B00120A40
:100FF3007D3F4F00120A7D6E4F00120A7DC94F00DC
:10100300120A7DFC4F00120A7D745000120A7DA75C
:101013005000120A7D085100120A7D585100120A2D
:101023007D255200120A7DDE5200120A7DA2530072
:10103300120A7D1C5600120A7D7E5700120A7DCFCC
:101043005800120A7DF35900120A7DF65900120A5C
:101053007D255A00120A7D1D5C00120A7DDC5C00AE
:10106300120A7D0B5D00120A7D295E00120A7DF1D2
:101073005E00120A7DAF6000120A7DE16000120A71
:101083007D236100120A7D226200120A7D956200AF
:10109300120A7DBE6400120A7D1D6500120A7D716D
:1010A3006500120A7DA06700120A7D836800120A98
:1010B3007D3F6900120A7D536900120A7D6769004A
:1010C300120A7D946900120A7DC46900120A7D7FA9
:1010D3006B00120A7D916C00120A7DE66C00120A05
:1010E3007D2F6D00120A7D566D00120A7D1E6E0063
:1010F300120A7DC46E00120A7D4A7000120A7D91A5
:101103007000120A7D037100120A7D587200120AE0
:101113007D017300120A7D357300120A7D4D730041
:10112300120A7DF07300120A7D6C7600120A7D1498
:101133007800120A7D327800120A7D507800120A74
:101143007D1C7900120A7D6A7C00120A7DCC800125
:10115300120A7D048101120A7D048601120A7D4A66
:101163008601120A7D808701120A7DE58701120A32
:101173007D5A8901120A7D648C01120A7D8D8D01CD
:10118300120A7DA09701120A7D309801120A7D1A76
:101193009B01120A7D279C01120A7D8A9C01120A77
:1011A3007DD29D01120A7D40A001120A7DD2A101C8
:1011B300120A7D5FA201120A7D7EA301120A7D0B32
:1011C300A401120A7D15A401120A7D3DA401120A8D
:1011D3007DDDA401120A7DC8A501120A7D95A60131
:1011E300120A7DB2A601120A7DDBA601120A7D084E
:1011F300A701120A7D4FA901120A7D1EAA01120A34
:101203007D5DAA01120A7DDFAA01120A7D80AB016E
:10121300120A7DB2AB01120A7DF9AB01120A7D2CD1
:10122300AC01120A7D70AC01120A7DBFAC01120A37
:101233007DC4AC01120A7D20AD01120A7D64AD01AB
:10124300120A7D3EAE01120A7DA3AE01120A7D0988
:10125300AF01120A7D84AF01120A7DECB201120ABA
:101263007DEFB301120A7D6DB501120A7D83B801CA
:10127300120A7D25B901120A7D6EBB01120A7D296E
:10128300BC01120A7D68BC01120A7D40BE01120A2C
:101293007D5DBE01120A7D66BE01120A7D6FBE012D
:1012A300120A7D7ABE01120A7D99BE01120A7D3DA2
:1012B300C001120A7D9AC001120A7DA4C001120A5C
:1012C3007DBCC001120A7DCDC101120A7D16C20187
:1012D300120A7DD0C201120A7DE7C301120A7DBC46
:1012E300C401120A7D03C601120A7D07C701120A4F
:1012F3007D00C801120A7D18C801120A7D4FC8017A
:10130300120A7D59C801120A7D64C801120A7D823E
:10131300C801120A7DCAC801120A7D28C901120A2E
:101323007D4FC901120A7D61C901120A7D16CA01E6
:10133300120A7D4FCA01120A7D71CB01120A7DC4C4
:10134300CB01120A7DAACC01120A7DD1CC01120A6B
:101353007D41CD01120A7DBDCD01120A7D19CF0158
:10136300120A7D40D001120A7D02D101120A7DD0FA
:10137300D101120A7D8ED201120A7D76D301120A9F
:101383007D20D401120A7D88D401120A7D3DD50146
:10139300120A7D99D501120A7DF1D501120A7DB792
:1013A300D601120A7DDAD601120A7D95D701120AF7
:1013B3007DB7D701120A7D18D801120A7D48DA01D8
:1013C300120A7D41DB01120A7DEDDB01120A7D0E5B
:1013D300DE01120A7D57DE01120A7DA2DE01120A26
:1013E3007DFEDE01120A7D5CDF01120A7D80DF01D2
:1013F300120A7DA4DF01120A7DD9DF01120A7D01E1
:10140300E001120A7D46E001120A7D9AE001120A08
:101413007DF3E001120A7DEDE101120A7D8BE30108
:10142300120A7DD0E301120A7DF9E301120A7D82DB
:10143300E401120A7DF5E401120A7D03E501120AB3
:101443007D27E501120A7D7DE501120A7D98E501FC
:10145300120A7D53E601120A7D7FE601120A7DC25C
:10146300E601120A7D25E701120A7D33E901120A1A
:101473007D5FE901120A7D1AEA01120A7DFEEA0183
:10148300120A7D92EB01120A7D008004120A7D3854
:101493008004120A7D598004120A7D9B8004120A7B
:1014A3007DFF8004120A7D098104120A7D198104DB
:1014B300120A7D508104120A7DF98404120A7DC147
:1014C3008604120A7DA58804120A7D478904120A3C
:1014D3007DD18904120A7D508003120A7DF98003AD
:1014E300120A7DD88103120A7DE48203120A7D0465
:1014F3008303120A7D268403120A7DD68503120A0A
:101503007D438603120A7D148703120A7D1A88031A
:10151300120A7D928803120A7DCD8803120A7D2662
:101523008903120A7D618903120A7DAA8903120ABB
:101533007D3E8A03120A7DD48A03120A7DA98B0396
:10154300120A7D7C8C03120A7D0A8D03120A7D30F8
:101553008D03120A7D5D8D03120A7D8E8D03120A9F
:101563007D5B8E03120A7D6B8E03120A7DBE8E0392
:10157300120A7DCB8E03120A7DD88E03120A7DE1F7
:101583008E03120A7D458F03120A7DA38F03120A6D
:101593007DEE8F03120A7D099003120A7D309003BA
:1015A300120A7D4D9003120A7D599003120A7DEAB7
:1015B3009103120A7D039203120A7D7F9203120A9A
:1015C3007D929203120A7DA29203120A7D4693032F
:1015D300120A7DB29403120A7DC59503120A7D6532
:1015E3009603120A7D6F9603120A7DEE9603120A82
:1015F3007DFF9603120A7D3E9703120A7D6C9703C3
:10160300120A7D399803120A7D909803120A7DC944
:101613009803120A7D1F9903120A7D3D9903120A4A
:101623007D8B9903120A7D569A03120A7DA49A03AD
:10163300120A7DF19A03120A7D749B03120A7D9E9E
:101643009B03120A7DD49B03120A7DE39B03120AB8
:101653007D429C03120A7DBA9C03120A7DFB9C0304
:10166300120A7D4B9D03120A7D769D03120A7D901B
:101673009D03120A7DAA9D03120A7D7F9E03120A0F
:101683007D899E03120A7DC49E03120A7DD49E03A4
:10169300120A7D259F03120A7D399F03120A7D5B7F
:1016A300A003120A7D70A003120A7D03A103120A8C
:1016B3007D77A103120A7D1CA203120A7D27A203D0
:1016C300120A7D8AA303120A7DA6A303120A7DF2DE
:1016D300A303120A7D60A403120A7D92A403120AD3
:1016E3007DACA403120A7D0CA503120A7DABA503EE
:1016F300120A7DF6A503120A7D49A803120A7DE1A9
:10170300A803120A7D58A903120A7DB5AB03120A76
:101713007DCDAB03120A7DD0AB03120A7DDCAB0394
:10172300120A7DF0AB03120A7DF8AB03120A7D2F78
:10173300AC03120A7D23AD03120A7DADAD03120A79
:101743007D2FAE03120A7DAFAE03120A7D86AF036F
:10175300120A7DA8AF03120A7D41B003120A7D9ECF
:10176300B003120A7DA1B003120A7D10B103120A5D
:101773007D5CB203120A7D6FB303120A7DFAB303D1
:10178300120A7D0DB503120A7DD4B503120A7D0535
:10179300B603120A7D2BB603120A7D34B603120A6E
:1017A3007D63B603120A7D13B703120A7DC3B70321
:1017B300120A7D36B803120A7DD9B803120A7D4C8A
:1017C300B903120A7D8BB903120A7DD4B903120A35
:1017D3007DD5EE03120A7D42EF03120A7D8EEF03DD
:1017E300120A7DE0EF03120A7D60F003120A7D5DA9
:1017F300F203120A7D70F403120A7DA9F703120A99
:101803007DCE9902120A7DF6F703120A7D60F80372
:10181300120A7D88F803120A7DBBF803120A7DF0D1
:10182300F803120A7D52F903120A7D21E203120A18
:101833007D9DE203120A7DCBE203120A7D10E303CE
:10184300120A7D71E403120A7D8DE403120A7DC33B
:10185300E403120A7D3CE503120A7D8AE503120ABA
:101863007D1AE603120A7DF2E603120A7D43E703BB
:10187300120A7DB9A102120A7D1BE803120A7D5FD9
:10188300E803120A7DB7E803120A7DD9E803120AB6
:101893007D69E903120A7DFAE903120A7D32EA033C
:1018A300120A7D5BEA03120A7D9CEA03120A7D3D5C
:1018B300EC03120A7D1FED03120A7DFBED03120AEE
:1018C3007DACCD04120A7DBDCD04120A7DFD7F00DF
:1018D300120A7DEDFF02120A7DDECA04120A7DEEB2
:1018E300CA04120A7D00CB04120A7D66CB04120AD5
:1018F3007DA2C704120A7D26C804120A7D8CC8047F
:10190300120A7DEECB04120A7DFFCB04120A7D1965
:10191300CC04120A7D24CC04120A7DDAFF02120AD7
:101923007DEAFF02120A7D48CD04120A7D20AB0432
:10193300120A7D32AC04120A7D7BAC04120A7DF8D4
:10194300AC04120A7D20AD04120A7D9DAD04120A77
:101953007DC7AD04120A7D11AE04120A7D51AE0497
:10196300120A7DB0AE04120A7DEFAE04120A7DDCCA
:10197300FF03120A7DDDC304120A7D23C404120A85
:101983007D55C404120A7D91C404120A7DCFC40498
:10199300120A7D9DF903120A7DC9F903120A7D5FBC
:1019A300FC03120A7D9FFC03120A7DDBFC03120A6F
:1019B3007DEFFC03120A7D08FD03120A7DF9FD0386
:1019C300120A7DABFE03120A7DBFFE03120A7D6677
:1019D300FE02120A7D8AFE02120A7DA3FE02120A89
:1019E3007DE1FE02120A7D17FF02120A7D4AFF0201
:1019F300120A7DB6FF02120A7DB9FF02120A7DC3E5
:101A0300FF02120A7DD0FF02120A7D81B904120A75
:101A13007DA4B904120A7DEFB904120A7D0DBA043C
:101A2300120A7D28BA04120A7D8EBA04120A7D9A1C
:101A3300BA04120A7DF7BA04120A7D1BBB04120A08
:101A43007DE1BB04120A7DEEBB04120A7DFFBB04D9
:101A5300120A7D69CB04120A7D81CB04120A7DAD83
:101A6300CB04120A7D95A204120A7DF9A304120A7B
:101A73007D07A404120A7D1BA404120A7D38A40462
:101A8300120A7D4DA404120A7D60A404120A7DE2A9
:101A9300A404120A7D47A504120A7DDDA504120AD7
:101AA3007DB6A604120A7DC6A604120A7DD5A60435
:101AB300120A7DACC904120A7DD0C904120A7DF84A
:101AC300C904120A7D20CA04120A7D72BE04120AD6
:101AD3007D99BE04120A7DB7BE04120A7D2CBF0491
:101AE300120A7DAFB604120A7DC8B604120A7DDF5E
:101AF300B604120A7DE8B604120A7D06B704120A78
:101B03007D10B704120A7D1AB704120A7D2DB7049B
:101B1300120A7DB3B704120A7D28B804120A7D564F
:101B2300B804120A7DA7B804120A7DF3B804120A96
:101B33007D0EB904120A7D18B904120A7D29B9046D
:101B4300120A7D6CB904120A7D64CC04120A7D80EA
:101B53008A04120A7DAC8A04120A7DCF8A04120A0F
:101B63007DE28A04120A7DFD8A04120A7D618B04D8
:101B7300120A7D8F8B04120A7D9F8F04120A7DF453
:101B83009004120A7D269104120A7D919104120A8F
:101B93007DF89204120A7D209304120A7D35930482
:101BA300120A7D459304120A7D859304120A7DC7A8
:101BB3009304120A7DD79304120A7D92C204120A77
:101BC3007DA2C204120A7DC6C204120A7DEFC204BA
:101BD300120A7D19C304120A7D3DC304120A7D54FF
:101BE300C304120A7D82C304120A7DA5C304120A28
:101BF3007DB9FF01120A7D09B304120A7D19B304EA
:101C0300120A7D37B404120A7D6BB404120A7D8D67
:101C1300B404120A7DB5B404120A7DCEB404120AC8
:101C23007D0AB504120A7D6CB504120A7DB1B504B0
:101C3300120A7DF6B504120A7D23B604120A7D5BEF
:101C4300B604120A7D6AC604120A7D8AC604120A01
:101C53007D6FC704120A7D72C704120A7D45CA0448
:101C6300120A7D82CA04120A7DC4CA04120A7DD4F0
:101C7300CA04120A7D2A9B04120A7D649B04120A79
:101C83007DCD9B04120A7DEC9B04120A7D8E9C047D
:101C9300120A7D979C04120A7DE89C04120A7D11A6
:101CA3009D04120A7D1E9D04120A7D8F9D04120A53
:101CB3007D1D9E04120A7D6B9E04120A7DA19E0463
:101CC300120A7D029F04120A7D2A9F04120A7DA133
:101CD3009F04120A7DFD9F04120A7D40A004120A8C
:101CE3007D7DA004120A7D8FA004120A7DA1A004A9
:101CF300120A7DC0A004120A7DC9A004120A7D97AE
:101D0300A104120A7DE3A104120A7D21A204120A8E
:101D13007D24C504120A7DFDCC04120A7D2DBC046A
:101D2300120A7D63BC04120A7DB2BC04120A7D0B45
:101D3300BE04120A7D09BA03120A7D3ABB03120AD2
:101D43007D76BB03120A7D30BD03120A7D5ABD03A3
:101D5300120A7DD3BF03120A7D13C003120A7DA8A2
:101D6300C103120A7D47C203120A7D9FC203120AEE
:101D73007D25C303120A7D5DC303120A7D9FC3033E
:101D8300120A7D10C503120A7D90C603120A7DD183
:101D9300C803120A7DFFC803120A7D2BC903120A66
:101DA3007D34C903120A7D8AC903120A7D1ACA0344
:101DB300120A7D58CD03120A7DDACD03120A7DDDA6
:101DC3007F00120A7DF37F00120A7D06A704120A20
:101DD3007D1BA704120A7DCEA704120A7D0EA80458
:101DE300120A7D27A804120A7D5AA804120A7DA7A5
:101DF300A804120A7DDBA804120A7D1DA904120A95
:101E03007D13AB04120A7DA5C804120A7D04C9041C
:101E1300120A7D42C904120A7D83C904120A7D8114
:101E2300CD02120A7DD9CD02120A7D69CE02120AB1
:101E33007DCECF02120A7DABD002120A7D26D102DB
:101E4300120A7D77D102120A7DE8D102120A7D2C93
:101E5300D202120A7D44D202120A7D05D502120A69
:101E63007D9BD502120A7DD2D502120A7D1BD602B2
:101E7300120A7D21D802120A7D71D802120A7D4B03
:101E8300D902120A7D84D902120A7DA3D902120A49
:101E93007DEED902120A7D0EDA02120A7DD1DA0230
:101EA300120A7DC7DB02120A7D22DC02120A7D625E
:101EB300DC02120A7D99DD02120A7D15E002120A84
:101EC3007D3FE002120A7DC6E002120A7DEBE002CA
:101ED300120A7D6CE102120A7D51E202120A7D9E12
:101EE300E202120A7D02E302120A7DB6E302120A3B
:101EF3007DB9E302120A7DC3E302120A7DCDE30238
:101F0300120A7DD0E302120A7D42E402120A7D7BAB
:101F1300E402120A7D8EE402120A7DBBE402120A75
:101F23007DE2E402120A7D06E502120A7D41E50222
:101F3300120A7DB4E502120A7DB7E502120A7DF8A2
:101F4300E502120A7D21E602120A7D41E602120A27
:101F53007D8AE602120A7DC1E602120A7DC1E7020A
:101F6300120A7DF0E802120A7D0FE902120A7DAF20
:101F7300CC04120A7DC7CC04120A7DD3FE03120AD5
:101F83007D079404120A7D569404120A7D14960464
:101F9300120A7DCF9704120A7D0D9804120A7D025E
:101FA3009904120A7D0D9A04120A7D2F9A04120ACB
:101FB3007D799A04120A7DFA9A04120A7D42E90293
:101FC300120A7D65E902120A7D68EA02120A7DBAE5
:101FD300EA02120A7D1CEB02120A7D6EEB02120A60
:101FE3007DB6EB02120A7D1FEC02120A7DA4EC02FD
:101FF300120A7D20ED02120A7D66ED02120A7D6B44
:10200300F102120A7DCFF302120A7D81F402120A51
:102013007DE1F402120A7D09F502120A7DCFF60270
:10202300120A7DEBF802120A7DD7F902120A7D5ECD
:10203300FA02120A7D95FB02120A7DC6FC02120AFD
:102043007D05FD02120A7DB9FD02120A7D53EC01E2
:10205300120A7DF3EC01120A7D60ED01120A7D1F65
:10206300EE01120A7D7EEE01120A7D2CEF01120AA7
:102073007DEFF101120A7D07F301120A7D7DF30161
:10208300120A7D5FF501120A7D01F601120A7D52E3
:10209300F701120A7D60F801120A7DEDF801120AB8
:1020A3007D0DFA01120A7D37CE03120A7DA2CE03FB
:1020B300120A7DEACE03120A7D2ECF03120A7D8017
:1020C300CF03120A7DDDCF03120A7D18D003120A53
:1020D3007DB7D003120A7D28D103120A7DA0D10354
:1020E300120A7DB8D203120A7DE0D203120A7DECF4
:1020F300D303120A7DFDD303120A7D15D403120AFA
:102103007D43D503120A7D71D503120A7D3FD603A1
:10211300120A7D63D603120A7D81D603120A7D9BC0
:10212300D603120A7DBDD603120A7D97D703120A7E
:102133007DF1D703120A7D68D903120A7DCAD90338
:10214300120A7DE9D903120A7D31DB03120A7DB03D
:10215300DB03120A7DE7DB03120A7D2BDC03120A81
:102163007D25DD03120A7D32DE03120A7D2ADF0399
:10217300120A7D38DF03120A7D23E003120A7DC5AC
:10218300E003120A7D35E103120A7D4AE103120AD4
:102193007DEBE103120A7D887C00120A7D437E00F9
:1021A300120A7D027F00120A7D577F00120A7D2FDB
:1021B300AF04120A7D4DAF04120A7D91AF04120AD7
:1021C3007DB7AF04120A7DDEAF04120A7DF6AF04B9
:1021D300120A7D0EB004120A7D26B004120A7DC9CC
:1021E300B004120A7D0BB104120A7D2DB204120A47
:1021F3007D36B204120A7D3FB204120A7D48B2044E
:10220300120A7D52B204120A7D4BFB01120A7D3F72
:10221300FF01120A7D4DFF01120A7D52FF01120ACE
:102223007D1FC104120A7D80CD04120A7DA098028D
:10223300120A7D909802120A7D6E9702120A7D8C13
:102243009502120A7D839502120A7D769502120A7F
:102253007D799402120A7D069402120A7DEA9302A2
:10226300120A7DCC9302120A7D95A102120A7D8A7D
:10227300A102120A7DA79302120A7DB79202120AE3
:102283007D25A102120A7D1AA102120A7D52920231
:10229300120A7DBB9102120A7D499102120A7D380E
:1022A3009102120A7D549002120A7D328F02120AA1
:1022B3007DDD8E02120A7D0A8E02120A7D448D0292
:1022C300120A7D088D02120A7D9B8C02120A7D93ED
:1022D3008C02120A7D088C02120A7D988B02120A64
:1022E3007DE98A02120A7DDE8A02120A7DCF8A0202
:1022F300120A7DF2A002120A7DAE8A02120A7DE75B
:10230300A002120A7D7AA002120A7D70A002120AAC
:102313007D57A002120A7D4DA002120A7D43A0023E
:10232300120A7D39A002120A7D25A002120A7D7AC3
:102333008A02120A7D4E8A02120A7D208902120A3B
:102343007D689C02120A7D148702120A7DE58602CB
:10235300120A7DC98602120A7D598602120A7D8EEF
:102363009A02120A7D8C8502120A7DA8E703120ADB
:102373007D108502120A7D688402120A7DC18302E0
:10238300120A7D638302120A7D388302120A7DE9F1
:102393008202120A7DAB8202120A7D898202120A2C
:1023A3007D668202120A7D4D8202120A7D05820237
:1023B300120A7D4F8102120A7DC38002120A7D57E1
:1023C3008002120A7D529A02120A7D008002120ACA
:1023D3007DD8F70300000080FB8F0001009A1A8765
:1023E300000100291B35000400EE1A25000200F24B
:1023F3001A26000200F41A27000200F61A28000128
:1024030000001B29000100011B84000400021B863D
:10241300000100061B2A000100071B2B0001000816
:102423001B2C0001000C1B2D000800811A2E00013B
:10243300000D1B2F0001000E1B300001000F1B318C
:10244300000100101B32000100891A330001008AC9
:102453001A34000100111B360001008B1A380001E9
:1024630000121B390001000B1B83000200271B63B2
:10247300000100971A64000100091B650001000AAE
:102483001B6D000100981A71000800791A6600019B
:1024930000261B43000100171B44000200181B45C4
:1024A3000001001A1B460002001B1B470008008F97
:1024B3001A480001001D1B4B0001001E1B040001F4
:1024C300002A1BA10001002D1B370001002C1B88D3
:1024D3000001002B1B3C0001008C1A3D000100137E
:1024E3001B490002001F1B67000100991A4D0002DF
:1024F30000211B4E000100231B4F000200241B3E42
:102503000001008E1A51000100141B520001001536
:102513001B53000100161B540001008D1A0000001C
:102523000000000001363601010001020100010331
:10253300010001040106060502000007010034083A
:1025430001000F090401010D0100FF0E080000172F
:10255300020000190100FF1A0100011B0100FE1C0B
:102563000100081D0200001F0100012001000121DC
:102573000200002301000F240200002601000127AE
:10258300010008280200FF2A0100072B0102402C4A
:102593000100002D0100012E0100012F0100FF3079
:1025A300010B1D310800003A0100083B01000F3CFC
:1025B3000100013D0100FF3E04000042040000460B
:1025C3000400004A0400004E0400005204000056B8
:1025D3000400005A04000001037103010301030115
:1025E3000301030103220302030103100300030099
:1025F300030003000300030003000342030003245A
:102603000306030003000304031203250323032526
:102613000323030403040300030003000344030030
:102623000300032303000365032100350381030033
:10263300030503000300030003000325032303032F
:10264300047104020460041104700402040204010E
:102653000402041004610400041404630473047288
:102663000462044304000413040604000400040485
:102673000412040004000400040004510464000074
:10268300040004000444040004000400040004657E
:102693000400043504810464000504000483040079
:1026A300040300710030016000110070003102204A
:1026B30003500480001000610000001400630073E5
:1026C30000720062004300000013000600000000D7
:1026D30000040012000000000000000000040004D9
:1026E30000370037003C02440000000000000000F7
:1026F3000065000000350081000000050000008334
:102703000000000101710101010101110101013109
:1027130001010101018001100161013B001400630B
:102723000173017201620143010001130106013DBE
:102733000135000401120100010001000100010440
:10274300010401330133013C01440132013600002D
:1027530001000165010001350081010001050182CD
:102763000183010001030271023001600211027052
:10277300020102020202028002100261023A0041D7
:102783000063027302720262024302000213023800
:102793000000020002040212020002000200020012
:1027A3000204020402370037003C024402000239EB
:1027B30000000200026502000235028102000205E8
:1027C3000282028302000236000100060000000FAD
:1027D3000000000000000000000000000003FFFFF5
:1027E30000000403FFFF0000FFFF0FF4010005C416
:1027F300040320000100000B0000000000000000A3
:1028030003010F00000000000000000000000000B2
:1028130000000000000000000000000000000000B5
:1028230000000000000A0000000200000004000095
:10283300000800000010000000200000004000001D
:1028430000800000000001000000020000000400FE
:1028530000000800000010000000200000004000FD
:102863000000006B20130017201F001D201F802372
:102873002001006B200200DB1F0300E11F0400E7BF
:102883001F0500ED1F0600F91F36000B20FFFF0098
:102893000001891106B31108AD110BCB1110D70E2E
:1028A300028F1105A1110795110C71110D7D116492
:1028B300AB22FF000007ECFDFDFDECDCDCCCBCAC87
:1028C300AC9C9C8C7C7C6C6C5C5C5C4C4C3C3C2C75
:1028D3002C1C1C03EAF5E5D5D5C5B5A595958585CD
:1028E300757565655555454535352525151505001A
:1028F300160F00000B150B020002220F3300000E0F
:102903005A6967426565416C6C69616E636530390C
:1029130001030507090B0D0F00020406080A0C0D3D
:1029230000034A49434E181A2505020001191618D7
:102933001616182303000C0E020B040B0A070800DB
:102943000F303016181920231A1C1E3000393D3F52
:10295300373C3C362C442D303017181921301B1DC1
:102963001F30020402010101010902E80300000013
:10297300BE040A000000007F00E8030E00100C0AEA
:10298300030508090908000CFF1E1E280508030497
:102993000404150001030CC082C08312182B90039A
:1029A30028743DF0A3740FF090032A7443F0A374CA
:1029B3000FF090032C7449F0A3740FF090032E745E
:1029C3004FF0A3740FF0025D0474F7120595E9FE4E
:1029D30090031AE4F0EE900319F0901B1B1250A021
:1029E3001259EF7C8F7D1A7A1D7B03121E19901BDF
:1029F3001DE0900325F09003267479F0A3741A0266
:102A030038AA74F01205958A088B09EB5480700379
:102A1300022B5D900319E0F9121CAB8A0A8B0BAEF3
:102A23000AAF0BEE4F7003022B54124E75707EEEFD
:102A3300241F1251EA64137002A3E070708E828F18
:102A430083A3A3E0F50EA3E0F50F9003381256F02D
:102A5300750A00750B00800D1237211259EF121DF4
:102A63002FAA0CAB0DEA4B60448A828B83E0650E80
:102A73007004A3E0650F70288A828B83A3A3A3A3AA
:102A8300124E88E50A450B8A828B83A3A3A3A36016
:102A9300C71245D7850A82850B83A3A3A3A380BB53
:102AA3008A0A8B0B8A828B831256EC80B8EE242A17
:102AB3001251EAF9126769900338123B9CA3A3A34E
:102AC300A3A3A3A3A3E0640270378A828B83125665
:102AD300F080078C828D83123DFCEC4D60208C824C
:102AE3008D83E06A7003A3E06B70E88C828D83A30F
:102AF300A3E06970DE901B2312480DF0804C120F87
:102B0300798E828F83E064017034EE2418122BBB1C
:102B1300120AB91245241208D4EE2412122BBB1246
:102B23000AB9124518120AB51262011208D8EE2426
:102B33001712452C1217E9740A120A92800CE064EA
:102B4300027007EEFAEFFB121087EEFAEFFB121C8E
:102B530099AA08E5096480FB805BEAA2E05014901F
:102B630003301256076006126B3C12076AE50864CD
:102B73000180395402600C901AA97401F0EA6402CE
:102B8300FA8032EA54086029120F738B0BEA450B63
:102B9300701690033AE4F0A3F0A3F0A3F07A08FBD5
:102BA300900319E0F9121DEFE5086408FAAB0980F8
:102BB300047A007B00023F62124EF6F50A780A227D
:102BC30074F41205958A088B098A828B8312645DDB
:102BD30012441C38F583E02409FA7B00121C938A03
:102BE3000A8B0BAE0AAF0BEE4F7003022C878E825B
:102BF3008F837402F0A3E4126C82A3A3A3A3E8F06F
:102C0300A3E9126791A3A3A3A3A3A3A3F0E50824B5
:102C130003F8E4350912599212441C3AF583123B26
:102C230095F0EE2409FAE43FFB8E828F83A3A3126F
:102C33006098F5838882E0A2E58E828F83A3A3A3A5
:102C4300A3A3500474018001E4F0E5082403F88889
:102C53008289831256F0EA1244103BF583122C8CBE
:102C6300120AB1EA24101262098E828F831256EE81
:102C7300121C757403120A92EEFAEFFB900319E02B
:102C8300F9121C9F0235F1A3A3E0F508A3E0F509AF
:102C9300750A0078082274F21205958A088B09ECEC
:102CA300FAEDFB740E120DBCE0FC12185B8A0C8B60
:102CB3000DAE0CAF0DEE4F6030AC08AD09121849E4
:102CC300E96026AC08AD09EEFAEFFB12184FE97084
:102CD300148E828F831245CBFAEFFB121843AA0896
:102CE300AB0912236B7900800279B48003120A9234
:102CF3007F0602080974EE12059574F7120B5C8ABD
:102D03000A8B0BECFEEDFF750CB3750D00750E0011
:102D13008002050E902992E493F8E50EC3984003D0
:102D2300022E07AA0E7B001218978A088B09EA4520
:102D33000960DF8A828B83A3A3A3A3A3E0250DF5F8
:102D43000DF8C3E50A98E50B940050C67C157D0089
:102D53007900EEFAEFFB121C81850882850983A3B3
:102D6300A3A3A3A3E0F8E50AC3950D2825E0F8E49F
:102D730033F9E50828F582E50939F58312396B1231
:102D830059EF12128B8A0A8B0BAC0AAD0BEEFAEFDA
:102D9300FB121E19850882850983A3E06401700B69
:102DA30012452474011277FFA3803DAC18AD198539
:102DB30008828509831256EE12187FE9602D740884
:102DC300120DBCE0C0E0124524D0E0F07408120DEF
:102DD300BCE06403700CAC18AD19123B8D121E19C4
:102DE30080098518828519831259E385088285092C
:102DF30083123F44A3A3126C40C0E0124153D0E0BE
:102E0300F0750C00A90C740902702974F71205956A
:102E1300E9FE8A828B83A3A3A3A3A3A3E054086040
:102E2300338A828B83A3A3A3A3A3A3E054026021C9
:102E33008A828B83A3A3A3A3A3A3A3A3A3E0640670
:102E4300600F74E96E600A74CD6E600574F06E7085
:102E530003120F5B024A8374E812059574F8120B90
:102E63005C7406120DBC124EC7ECFEEDFF8917759C
:102E730015001230CC1218678A0A8B0BEA450B70C7
:102E830003023079EE24101251EAFAA90A120DE175
:102E93008A128B13EA45137003023079EE2403F58B
:102EA3000CE43FF50DEE2406F508E43FF5097C003C
:102EB30085088212447012186D8A108B11850C825A
:102EC300850D831230C1125771851282851383A336
:102ED300A3A3A31252D71230C1A3A3A3A3125617BD
:102EE300851282851383A3A3A3A3A3A31270211224
:102EF3006C25120AB1EE12441C3F12620D85128238
:102F0300851383A31256E8121C757403120A927474
:102F130028120DBC1245D7E5121247FF351312597B
:102F2300ED742A120DBCE0C0E0E512124410351313
:102F3300F583D0E0F07514007423120DBCE0F51690
:102F43007424120DBC780C120D4D023000851082D2
:102F53008511831256EE121885850882850983A38D
:102F6300EAF0A3EB1230E3A3A31268521230DDA2FE
:102F7300E6500F850882850983A3A3A3A3A3E0D208
:102F8300E1F0E51570668508828509831245D690C0
:102F9300036EE0687003A3E06970518508828509B8
:102FA30083A3A3A3123D2C7510007810120AB978DD
:102FB3000C120AADE516F5107810120AB974261230
:102FC3000DBC1208D890037B1208D8790074101234
:102FD3000DBC1267711210C9740A120A9285088215
:102FE300850983A3A3A3A3A3E04405F074012514D7
:102FF300FC1230CC12186D8A108B110514E51045A4
:1030030011604EC3E514950AE4950B5044E514751D
:10301300F006A4F8A9F0E51228F8E51339F9E82435
:103023000FF508E439F509850882F583E4127C1F5E
:10303300E064016003022F5075150185088285093C
:103043008374011230E312514AA3E8F0A3E9022F7B
:1030530067AA12AB13120DE77812120AB5AD1674F4
:1030630024120DBCE0FCA917EEFAEFFB120F557406
:1030730002120A92803E8E828F83A3A3A3E0C0E054
:103083007403120DBCD0E0F0EE24121251EAC0E03A
:103093007404120DBCD0E0F0E50A450B7009740509
:1030A300120DBC74B980077405120DBC7410126242
:1030B300161210C37408120A927F10020809E085E1
:1030C3001282851383A3A3A3228E828F831256F4C5
:1030D3008E828F83A3A3A3E0F922A3126910E022B7
:1030E300127C23A32274E812059574F2120B5CE997
:1030F300851882851983F08A0C8B0D8C168D1774B5
:1031030026120DBC1255D5AA08FB122269E9F51443
:10311300AA08AB09121873E9F515E5147003023315
:10312300A5751300800F8E828F83A3A3A3A3A3E0AF
:10313300D2E3F0051312415DE0F8E513C3984003B1
:1031430002339CE514700302339CE51375F006A467
:10315300F8A9F0E50828F8E50939F9E8240FFEE4B1
:1031630039FF8E828F83A3A3A3A3A3E0A2E040C36E
:10317300750E008E828F83E070431256EF1222ED9C
:103183008A0A8B0BA80AA90BE849603188828983D4
:10319300A3A3A3A3E06401600D88828983A3A3A3EF
:1031A300A3E0640370178E828F83A3A3A3A3A3E07A
:1031B300D2E7F0750E01E5157003023136750F0085
:1031C300750A08750B00E5176003750F207C087DF1
:1031D3000079007401120B1E121C818E828F83E012
:1031E30060449003BEE06401701CE50FD2E3F50F69
:1031F300750B101245D27401120DBCE8F0A3E9124D
:1032030045EE74FF803E430F0C750A0C8E828F834C
:10321300A31233B8A3A3A3A31259EF7401120DBCD5
:1032230074FFF0A3801E851882851983E06009E589
:103233000FD2E6F50F750A0A1245D27401120DBCBE
:10324300E8F0A3E9F07403120DBCE50FF012441A81
:10325300350DF583E0C0E07405120DBCD0E0F074C9
:1032630006120DBC7401F0120B1E12108D740D1298
:103273000DBCE060030233777409120DBC12575D75
:103283008E828F83A3A3A3A3F07409120DBC124EE5
:10329300B0E50AF0A3E50BF0124E6BE5161230DE33
:1032A30060119003BEE0C0E07409120DBC124EA081
:1032B300D0E0F07409120DBC12416DA3A3A3123325
:1032C300AA241C124EC11270891233AA124E62EA4A
:1032D300F0A3EB126B69C0E0124E58D0E0126C31D0
:1032E300C0E07409120DBC12499FD0E01264B3C050
:1032F300E07409120DBC124993D0E0F07409120D69
:10330300BC1233B81249821234F91233AA242C1294
:103313004EC1E50C1247DF350DF583E0C0E01249DD
:103323007AD0E0F07409120DBC1256F0850C828538
:103333000D831233AF2428F582E43B1259EDE50CDB
:10334300124410350DF5831270397512007810127E
:103353000AB112441A350D12620DEA1264323BF5BA
:10336300831256F0121C757403120A927401120B25
:103373001E1210938E828F83A3A3A3A3A3E0D2E094
:10338300F0740D120DBCE06003023129E50EA2E0DA
:103393005002151515140231367900AA08AB09122B
:1033A3000F61740E0230B91256FAE822A3A3A3A345
:1033B3001245DBEA221245DB850C82850D832274DC
:1033C300EE12059574E9120B5C8A088B09890A8A47
:1033D300828B83A3A3A3A3A3A3A3A3E0F9120DFF4B
:1033E3008A0C8B0DEA450D70030234881255A11225
:1033F3003E17E50A600302348D7C04850882850943
:1034030083A3A3A3A3A3A3A3A3E0F9120E05EE4FE3
:1034130060738E828F83A3A3A31245D67406120D05
:10342300BC12607B1245D67408120DBC125EE8C054
:10343300E07410120DBCD0E01234F91245D6740EAC
:10344300120DBC1259EF7411120DBCE4125762C86D
:10345300241FF582E438F58312539EC413135403D7
:10346300FC70027C048E828F83E0F9780C120AB51B
:10347300742059FD744059F97402120B1E120F5532
:103483007402120A9274170270297C0885088285D7
:103493000983A3A3A3A3A3A3A3A3E0F9120E058BFC
:1034A3000FEA450F7003023411EE4F60D8E50AF5B9
:1034B3000B780B120AB9850C82850D83A3A3A3A3F2
:1034C300A3A3A3E0F50B780B120AB98A828B83A31B
:1034D300A3A3E0FB8A82850F83123DFF8A82850FB7
:1034E30083E0FA8E828F83A3A3E0F91217E37402B9
:1034F300120A92023415F0850C82850D83A3A3A3CF
:10350300A3A3A3A3A32274F712059574FA120B5C69
:10351300E9FE7C017D017F0080037D000F1251DFF6
:10352300E0F8EFC3985028EF75F006A4F885F0088B
:10353300A908EA28F8EB39F9E82414125B7DA2E024
:1035430050D8540C60D4E0A2E250D17C0080CD8AE4
:10355300828B83A3A3A3A3A3A3E0703DEDA2E040CA
:103563000574016E70338A828B83A3A3A3A3A3A3E1
:103573007401124847E0C0E07403120DBCD0E0129E
:10358300483FE0C0E07404120DBCD0E0F0740512B3
:103593000DBCEC1262161210C37406024A80C0827C
:1035A300C0837901120F61025D0474F4120595EA78
:1035B3004B901AA96022E4F08A088B09F50AF50BEF
:1035C3007808120AAD7A027B00900319E0F9121D04
:1035D300E37404120A92800F7401F07A027B009064
:1035E3000319E0F9121DEF80057402120A927F0499
:1035F30002080974E812059574FC120B5C7402123C
:103603000DBCE4F0A3F0900338123E1785188285B1
:103613001983E4F0A3F0751401900368E0A2E3506A
:10362300030236AD121E018A088B098C0A8D0B8AA0
:103633000C8B0D8C0E8D0F90033A780C120B2E12FF
:1036430037287810790C120CE150077A017B0002BD
:10365300371C850C14850D15850E16850F177814E8
:103663007910120526A814A915901B23E0C398E42A
:10367300995003E08001E8F514123728780C79108B
:10368300120526E4F512F51378087910120C01904F
:10369300033A7808120D3E80111237211259EFEECA
:1036A300FAEFFB121D2FAE08AF09EE4F60638E8257
:1036B3008F83A3A3A3E0F8E514C3985029EE240352
:1036C300F582E43FF583A814E0C398F06021740207
:1036D300120DBC1245E5124F21EEF0A3EF1264B8B0
:1036E300FEA3E0FF80C48E828F83A3A3A3E4F08EA6
:1036F300828F831255D18518828519831256078EBE
:10370300828F83A3A3A3A360901267831259AD8012
:103713008B7402120DBC1256F074040230B91245B8
:10372300DB90033822901B21E0F510A3E0F511E4B0
:10373300F512F5132274F21205958A0A8B0BE9FE32
:103743007A007B009003381255D590033812560740
:10375300601E0A850882850983A3A3A3A3125607C3
:10376300600E0AEA70010B88088909E8450970E3CD
:10377300901B241245D7C3EA98EB99400302382BD8
:103783007A067B00121D298A0C8B0DA80CA90DE863
:1037930049700302382B88828983E50AF0A3E50B7D
:1037A300F0EE88828983A3A3F0901B23125BEFA31F
:1037B300A3A312486FA3A3A3E4F0A3F090033812CA
:1037C30045DF600F850882850983A3A3A3A312594C
:1037D300EF801F9003381259EF900368E0A2E34093
:1037E30011121E01EAF8EBF9ECFAEDFB90033A1221
:1037F3000D8D900368E0A2E3502E7A087B009003BE
:1038030019E0F9121DF5EA4B4C4D701C901B211267
:1038130076637808120AAD7A087B00900319E0F901
:10382300121DE97404120A92022CF3C082C083E9C8
:10383300901AAAF09003327497F0A3740FF09003D8
:103843003474A9F0A3740FF090033674BBF0A3741F
:103853000FF0025D0474F7120595EAFEEBFF890889
:10386300EE4F70031218CD90033E12560770089066
:10387300033E80221245D788828983A3A3A3A3A3EF
:10388300A3A3A3A31245DF88828983A3A3A3A3A32E
:10389300A3A3A3A370DEEEF0A3EF12686EA3A3A30A
:1038A300E4F012686DE508F0024A8374F712059597
:1038B30090033E800D8E828F83A3A3A3A3A3A3A310
:1038C300A3A3123E17EE4F60348E828F83A3A3A36C
:1038D300A3A3A3A3E06970DD8E828F83A3A3A3A315
:1038E300E06A7003A3E06B70CC8E828F83A3A3A3E3
:1038F300A3A3A3E06C70BEEEFAEFFB80047A007B17
:1039030000024A8374F712059590033E123E179006
:10391300033E1233B3687002EB69701EE0C82409DA
:10392300F582E438F5831245D790033E1259EF90A0
:10393300033E123E178027123E0AEE4F60208E820E
:103943008F83A3A3A3A3A31233AF687002EB6970A1
:10395300E68A828B83A3A3A312396B1259EF121D3C
:103963002FEEFAEFFB024A83A3A3A3A3A3A312415F
:1039730079A3A3A3A3A32274F012059574FA120BDF
:103983005C8A088B098A828B83A3A3A3A3A3A3A323
:10399300A3E060336401602F8A828B831256F01296
:1039A300130FE97022850882850983A3A3A3A3A328
:1039B300A3A3A3E0640370147404120B26AA08AB38
:1039C30009121015E970167902023B768508828583
:1039D30009831245D77404120DBC1259EF126E08F5
:1039E3002434126066121D298A0A8B0BAE0AAF0BB0
:1039F300EE4F7003023B747C347D007900121C810E
:103A03007402120B1E850882850983A3A3A3A3A3B3
:103A1300A3A3A3A3E0F91218257402120DBCE0C0FE
:103A2300E0123B85D0E0F0EE242EF50AE43FF50BDF
:103A33007403120DBCE0850A82850B83F07901EED5
:103A4300FAEFFB120F8585080C85090D750E0078BA
:103A53000C120AB17C1E7D00123B8D121C7574037F
:103A6300120A92EE2432123F3A2434F8E43FF98AE0
:103A7300828B831259EFE5082411F8E43509F9E83C
:103A8300FCE9FD8C828D83124EBC24301259E9125D
:103A93003F32127916120AB18C828D83123B9C122B
:103AA30056F0121C757403120A927404120DBC12A0
:103AB30041751259EF90031A123B95A3A3A3F090FB
:103AC300031AE004F0121E018E828F83124F0B241F
:103AD3002C124445750D00850A82850B83E0780C12
:103AE300120C3B8A828B83E50CF0123B7BE50C12B4
:103AF3004F21E4F0E5082415126E0CA2E074015086
:103B030007120DBC74018004120DBCE4F0EE2429ED
:103B13001255C8AA18AB1912180DE924FE8508829C
:103B2300850983F0EE2430F8E43FF9E8FCE9FD125F
:103B33003BA41203BEE88E828F83A3A3A3A3A3A3F4
:103B4300A3A3F0123BA41203BE8B09EA4509600F3D
:103B53008E828F83A3A3A3A3A3A3A3A3E004F0EE66
:103B630024201251EA4408124491121CD579008092
:103B73000279107406023F5FEE242BF582E43FF5D1
:103B83008322EE1264323FF58322EE240BFAE43FE4
:103B9300FB22126799A3A3A322123E048A828B837A
:103BA300228C828D8312514EE0FA7B002274F41230
:103BB3000595EAFEEBFF121E018E828F83124EC71C
:103BC300901B17E0F8EE242D1251EAC3984003022C
:103BD3003D111244517012EE242D1251EA04125277
:103BE3001DC0E0123B7BD0E0F0EE242A1251EAFC28
:103BF3007900800109EE242E1251EAF8E9C39850A6
:103C030026750801750900E97808120C3B12445126
:103C1300550860E0E92CFC750801750900E978088E
:103C2300120C3BE04508F0EE24291251EAFAEE2487
:103C330030F582E43FF583EC8AF0A4F8ABF0E42B93
:103C4300F9E098F8A3E099F9C3E89AE99400EE4003
:103C53003124291251EAF8124451602C123B851287
:103C63003D2CA3E4F0EC7047EE24201251EA4420EB
:103C7300125EECC0E012520BD0E0125215FAA3E030
:103C83008052123B7C74FFF090035EE0FA901B1AA3
:103C9300123D23ABF075F064A4FAADF075F064EB5C
:103CA300A42DFB8E828F83A3A3EAF0A3EB80B5EE52
:103CB30024201251EA54DF125206ECF0FAEE2429C2
:103CC300F582E43FF583123D23FAABF0EE124E5238
:103CD3003F124467FB126C09EAF0A3EB12687DC044
:103CE300E0EE2425F582E43FF583D0E0124ED8E8D8
:103CF300125617900340125607600BECF9126B3CF7
:103D030012076AE97017123B8D120FEB800F7BE9E4
:103D1300123F501217DDEEFAEFFB120F910235F14D
:103D2300E0F508EA8508F0A422126799A3F022744B
:103D3300F412059590033E123E17121E018A0A8B58
:103D43000B78FF79FF8020E0C39AFCA3E09BFDC3BF
:103D5300EC98ED99500E8E828F83A3A3E0C39AF85B
:103D6300A3E09BF9123E0AEE4F605C8E828F8312B2
:103D730056F0E50AC39AFAE50B9BFB8E828F8312FA
:103D83003DFEC3EA9CEB9D8E828F83A3A340B8A321
:103D9300A3A3A3E06402701AEE240B124454600937
:103DA3001244301256F0121C99EEFAEFFB120F91E7
:103DB3008007EEFAEFFB120F9D7A017B00901AAA9F
:103DC300E0F9121CD5802974FF68700374FF6960E1
:103DD3001F88088909E4F50AF50B7808120AAD7AF9
:103DE300017B00901AAAE0F9121DE37404120A92EF
:103DF3000235F1A3A3A3A3A3A3A3A3A3A3123E04E6
:103E030022E0FCA3E0FD228E828F83A3A3A3A3A3BE
:103E1300A3A3A3A3E0FEA3E0FF2274F01205958AF7
:103E2300088B09ECFAEDFB890A7C01126E08F91282
:103E33000F8B8A0C8B0DAE0CAF0DEE4F7003023F50
:103E430026E50A6003023F26123F32123F486860AC
:103E530003023F26123F32E0FAEE242E1251EAF813
:103E6300EA28FAE43400FB8E828F83A3A3A3A3A3DF
:103E7300A3A3A3E0F8EA98EB9400C365D033401CF6
:103E8300E5082414126E0CF470127B00123F5012DA
:103E930017DDEEFAEFFB120F91023F26E50824141B
:103EA300126E0CF47042EE242B123F3A242EF8E4E7
:103EB3003FF9E8FCE9FD7508FF7509008C828D83E5
:103EC300E07808120C3B8A828B83E508F0123F28C6
:103ED300E508F08C828D83123F4828F0EE242DF5FF
:103EE30082E43FF583E4801BE5082414F8E43509F4
:103EF300F9E0C0E0123F28D0E012608DC0E0123B31
:103F03007BD0E0F0121E018E828F83124F0B123B87
:103F130086123F44A31256177A01FB901AAAE0F9BE
:103F2300121CD5803AEE242CF582E43FF58322E57A
:103F330008241312416522F8E43FF9E8FAE9FBEE9D
:103F43002212679922E0F8EE125B94E022EE24221B
:103F5300124EF6FAEE2414124EF6F922120A927F4A
:103F63000802080974EC12059574FE120B5C8A0AA8
:103F73008B0B8C0E8D0F89108A828B83A3A3E0F9A0
:103F83001223D18A088B09AE08AF09EE4F70077A66
:103F9300007B000241497A127B00121D298A088B9B
:103FA30009EA450970030241457C127D007900123C
:103FB3001C81AA18AB19850A82850B83A3A3E0F998
:103FC300121825E508240FF50CE43509F50D7401E5
:103FD300120DBCE0850C82850D83F07902AA08AB33
:103FE30009120F85850E82850F8312416D12418B55
:103FF300124404126849F07512FF751300850C8290
:10400300850D83E07812120C3B127089E512124978
:10401300AB126B3AE0C0E012415DD0E0F0124426EF
:10402300F50CE508240D12708DE50CF0E50A124439
:1040330038850CF0A4A9F02427FAE439FB121C9369
:104043008A0C8B0DAE0CAF0DE508126B12EEF0A3CC
:10405300EFF0EE4F70030241388E828F83741A1291
:1040630056178E828F83A3A3F0A312419112417539
:104073001259EFAC0EAD0F126C1312181F850A8282
:10408300850B83A3A3A3E0C0E0125394D0E0F09088
:10409300037B124EBC2410124185124EAA350B121B
:1040A3004EBA1261F8E8F0A3E9124191A3A3A3A3C6
:1040B300124EBC24121259E9850A82850B83A3A3ED
:1040C300E0C0E0124153D0E0F0E50A1247FF12448A
:1040D3000BE0C0E0126569D0E0F07416120DBC125B
:1040E3006B42C0E0126DF6D0E0126868C0E0126B5C
:1040F30018D0E0126B4BC0E0126B22D0E0124ECD11
:10410300E510F07418120DBC120DA5EE241AF582F9
:10411300E43FF583120D8DEE2427F8E43FF9EE24F6
:104123002212418512605212440BE0C0E0126C1B54
:10413300D0E0F0800DAA08AB09120F917508007545
:104143000900AA08AB097402120A927F0C0208093B
:10415300EE2414F582E43FF5832212416122E5083F
:10416300240BF582E43509F5832212514EA3A3A350
:10417300A322124179221269258E828F83A3A3A3DE
:10418300A322F582E43FF583124F39E50A22F08535
:104193000A82850B83A3A3A3A3A3A32274ED120511
:1041A300958A0A8B0B8C108D118912750900EA12FE
:1041B3004438F508900340125607600EA908126BA5
:1041C3003C12076AE960030243FF7C028510828583
:1041D30011831256F0E50A124404E0F9120F8B8A98
:1041E3000C8B0DAE0CAF0DEE4F7054850A82850B10
:1041F30083A3E0A2E040030243FF7415120DBC1237
:1042030008D47417120DBC1208D8A912AC10AD1142
:10421300AA0AAB0B120FAF7406120A928A0C8B0D0B
:10422300AE0CAF0DEE4F70030243FF8E828F83A35C
:10423300A3A3A3A3A3A3A3E508124491121CD5A887
:10424300088E828F83A3A3A3A3A3A3A3A3E024FF26
:10425300FAE434FFFBEA684B7003750901EE240BA3
:1042630012445470030243B4850A82850B83A3E08E
:10427300A2E0500375080012447EE5089AE49BC34C
:1042830065D033401CE0F8EE240E1251EA28F07595
:104293000CFF750D00E8780C120C3B125E08E50C60
:1042A300F0E50A12441012440B126C59120AB1E5DC
:1042B3000A12441C350B12620DEE240D1251EAF55D
:1042C3000CE508850CF0A4FAABF0124430126460DC
:1042D3002422F582E438124467FB121C757403121E
:1042E3000A92750C01124459780C120C3B1251E7D7
:1042F300450CF0E509A2E05063EE240C124445128C
:10430300445904780C120C3B8A828B83E0450C12CF
:104313004EEB85080C850CF0A4F8A9F0124426FC9A
:10432300E82CFCE439FD1244301264602420F58249
:10433300E438F583ECF0A3ED124F12F4701EEE2473
:104343000BF50CE43FF50DEE12441C3F12447012C2
:104353001C9F850C82850D8374FF8054121E018E71
:10436300828F83124EC790035EE0FA901B1AE0F52A
:104373000CEA850CF0A4FAABF0F8EBF9901B17E00C
:10438300F50CE8850CF0A4F8ACF0850CF0E9A42C4E
:10439300F9EA28F8EB39F9E875F064A4F8AAF0759E
:1043A300F064E9A42AF98E828F83A3A3E8F0A3E93A
:1043B300F0A80812447EEA24FF1AEB34FFFBEA68F4
:1043C3007001EB600EEE240C1244546006E509A262
:1043D300E05029E50A12443DECF01251E7C0E0E554
:1043E3000A2414F582E412440BD0E0F0AC0AAD0BBE
:1043F3008510828511831256F0120FD97F0B0208A4
:10440300091247DF12440B22350BF58322124414A1
:1044130022240EF582E422E50C124420222410F516
:1044230082E422E50A12442012440BE022EE1244F5
:10443300203FF5832212443DE0221247D9350BF584
:104443008322F8E43FF9E8FAE9FB750CFF22EE2436
:104453002B124EF6F422750D00124EF3F5F0E5081B
:1044630084E5F022F583E02AFAA3E03B22F58312E8
:1044730056FA850C82850D83E0F922EE240E124E46
:10448300F6FC124EF3FAEC2AFAE43400FB22F07A3B
:10449300017B00901AAAE0F922C082C083901AAA75
:1044A300E0F9121C9F025D0474F41205958A088BCF
:1044B30009EB5480703BEAA2E05053120FA3E508C6
:1044C3006401FAAB09804B8E828F83E06401701A1A
:1044D3001245241208D4124518120AB5EE241212FA
:1044E300452C120FB57406120A92EEFAEFFB121C5A
:1044F30099901AAAE0F9121CAB8A0A8B0BAE0AAF89
:104503000BEE4F70C2AA08E5096480FB80047A00B1
:104513007B000235F1EE240FF50AE43FF50B780A30
:1045230022EE1247D93FF58322124EF6F9EE24020A
:10453300FCE43FFDEE2419FAE43FFB22C082C08372
:1045430090034280048C828D83123E00EC4D6028E0
:104553008C828D83A3A3E069600574FF6970E68C88
:10456300828D83A3A3A3E06A7003A3E06B70D6ECF0
:104573002403FAE43DFB80047A007B00025D0474AB
:10458300F7120595E9FD74FE6D70047C0180027CD1
:104593000090034280096D70027C01888289831236
:1045A3005607601F88828983A3A3A3E06A7003A3CD
:1045B300E06B70E7ECA2E088828983A3A3E050D686
:1045C300F9800279FE024A83A3A31255D9EE228E03
:1045D300828F83A31245DB22126925221256FAEA3F
:1045E3004B22E02401F0A3E03400221245F2221210
:1045F30045F6221245FA22126910A3A3A32274F6E8
:104603001205958C828D83A3A3124835F0EA2417F3
:10461300F582E43BF583E0C0E0124805D0E0F012F8
:1046230047E51245D71247EF124835A3F0A3F0EA46
:10463300241FF582E43BF583123E17EC124EAA3D8C
:10464300F583EEF0A3EFF0EA125E023BF583124826
:1046530016A3A3A3A3A3A3EEF0A3EF12608DFE8C76
:10466300828D8312485F74035EFEC394034003028A
:1046730047CCEE600574026E70798C828D83E054B2
:104683000CFE740C6E7003024733E0A2E4400D8805
:10469300828983E08C828D83A312486774086E60DD
:1046A300030247331247F77401F08A828B83A3A373
:1046B300A3A3A31258BA70148C828D83E0440C1206
:1046C300483FA3A3124816EEF0A3EFF08C828D832C
:1046D300E0A2E4401E124824124850500109124837
:1046E30024A3A31248505001098882898312480DDC
:1046F30012485F88828983E0C0E0EC1247DF3DF512
:1047030083D0E012485F8C828D83E0A2E7507888E3
:10471300828983E0FE8C828D8312486774FC5E700D
:104723000C8C828D83A3E054036403701B0247CC7B
:104733001247F7E4F0740C6E60030246AD1248248E
:1047430012485250870980848C828D83A3E05403DE
:10475300603888828983E0C0E0EC1247D93DF58355
:10476300D0E01248688C828D83E054036402701A8F
:1047730088828983E0C0E0EC2414F582E43DF5836C
:10478300D0E01248688003A3E4F0EC1244103D1219
:1047930059EDEC2410FEE43DFF1247E5E0F5088EE9
:1047A300828F83E0C3982508F508F0EA2417F8E41C
:1047B3003BF988828983E0C39508C0E01247EFD0B4
:1047C300E012608DC39508500A1247EFE4F01248D7
:1047D30005E4F00248792413F582E4222411F582DA
:1047E300E422EA241DF582E43BF58322EC125E0207
:1047F3003DF58322EC1247FF3DF58322240CF5821D
:10480300E422EC1244203DF58322E08C828D83A3C5
:10481300A3A322E0FEA3E0FF8C828D83A3A3A3A323
:104823002288828983E0F508A3E0FFE5088C828D66
:104833008322E4F08C828D83A3A3A322124847A38F
:10484300A3A3A322F08A828B83A3A3A322A3A3A35C
:10485300A3A3A3F0A3EFF0E82402F82212486FA861
:1048630082A98322A312486F08A98322126092A30C
:10487300227402120A927F0202080974F412059547
:1048830074F3120B5C8A0A8B0BECFEEDFF8E828FA6
:1048930083E0540CF508E0A2E75006E508D2E7F5FB
:1048A30008E508D2E1F5081258BA7006E508D2E423
:1048B300F508E0A2E55006E508D2E5F5087C087D99
:1048C300007900AA18AB19121C817402120DBCE501
:1048D300081249ABC0E07403120DBCD0E0124F21A3
:1048E300E50AF0A3E50BF07405120DBC1262141275
:1048F300108D740C120DBCE070787408120DBC128C
:10490300646012605238126935C0E07408120DBC3D
:1049130012499FD0E01264B3C0E07408120DBC12B8
:104923004993D0E0F07408120DBC12506C12498206
:10493300125EEC124EFE24111251EAC0E012497AC3
:10494300D0E0F0EE24141251EAC0E07408120DBC5A
:104953001264602435F582E438F583D0E0124EE327
:10496300C0E07408120DBC124E94D0E0126216120D
:104973001093740D0235EEE8124E5239F58322126C
:1049830056F4E8242AF582E439F583EAF0A3EB220E
:104993001264AE2427F582E438F583221264AE2430
:1049A30026F582E438F5832212690BE02274F712AC
:1049B30005957E008A828B83A3A3A3A3A3A3A3A3AA
:1049C300A3E064046003024A5C125776E0600302CA
:1049D3004A5C124A603B125605607E88828983E0F6
:1049E30054037075E8240C125B7DFA8C828D83A3CB
:1049F300A3E0FBA3E0CB1247DF3BF583E06A7059EA
:104A030088828983A3A3A3A3A3124A6BE06A7003DA
:104A1300A3E06B704488828983124A6BA3A3125B61
:104A2300AA24061251EA6A7003A3E06B702B8882F2
:104A33008983A3A3E0F88C828D83A3A3E0F9A3E089
:104A4300F5838982A3A3E068600D8C828D83125362
:104A53009C540C640470027E01EEF98023EA124A2E
:104A63006522240FF582E422A3A3A3A31256FA8C92
:104A7300828D8322740C120DBCE0F9740D120A921C
:104A83007F0102080974F612059574FC120B5CEAA7
:104A9300FEEBFFECFAEDFB8A828B83A3E054036009
:104AA3001690033412560760597900EEFCEFFD129D
:104AB3006B3C12076A804B851882851983EEF0A33D
:104AC300EFF07402120DBC124EC7AC18AD197ADFA9
:104AD3007B0F1212258A088B09A808A909E84960E7
:104AE3002188828983A3A3A3A3A3A3A3A3A3740657
:104AF300F07A0088828983126460126438E0F912C4
:104B03001165740402487674F212059574F3120B5E
:104B13005CEAFEEBFF8E828F83A3A3A3A3A3A3A3CD
:104B2300A3A3A3E0F50A901AA9E0700579BA024E8F
:104B33004D750801750900750C00750D007C087D25
:104B4300007900AA18AB19121C817405120DBC74EC
:104B530001124F19540460127402120DBCE0D2E624
:104B6300124F1954087003750803E054106006745B
:104B7300404508F508E0540860227402120DBCE0B9
:104B830044C0124F195420600A7403120DBCE0D2C2
:104B9300E080087403120DBCE0D2E1F0EE2415129C
:104BA30051EA124E7C70037401697006740845085B
:104BB300F5088E828F83A3A3A3A3A3A3A3A3E0706B
:104BC30016121291851882851983124EC774021228
:104BD3000DBCE0D2E2802C640F70107402120DBC85
:104BE300124F2974044508F508807B8E828F83A3B6
:104BF300A3A3A3A3A3A3A3E064028E828F8370065F
:104C0300125EE0F08060A3A3A3A3A3A3A3A3E06425
:104C130003700DAC18AD19EEFAEFFB1210158046B8
:104C23008E828F83A3A3A3A3A3A3A3A3E064017092
:104C3300359003BEE060107402120DBC124F29754B
:104C43000910750AFF80187402120DBCE0440C129F
:104C53004F2174FDF0A374FFF074044508F5088E2A
:104C6300828F83124E88EE24151251EAA2E0503F40
:104C73007402120DBCE0540C701B8E828F8312568B
:104C8300F0122149E9700579BB024E4D7402120DF1
:104C9300BCE0D2E5F0EE24151251EAA2E050107404
:104CA30002120DBCE0540C64047004E0D2E5F0EE93
:104CB30024111251EAC0E07404120DBCD0E0126258
:104CC3001612108D740C120DBCE06003024E467474
:104CD30008120DBC124EB0E508F0A3E509F0EE246E
:104CE300181251EAC0E0124E6BD0E0124ECDE0C074
:104CF300E07408120DBC1264601247D938F583D0F2
:104D0300E0125EEC640170119003BEE0C0E0740831
:104D1300120DBC124EA0D0E0F07408120DBC124E5E
:104D2300BC24171251EAFAE8241CF582E439F5830E
:104D3300EA125617EE2415FAE43FFB8A828B83129C
:104D43003E00E8124E62ECF0A3ED124ED8E0C0E054
:104D5300124E58D0E0124F12124E7C700374016948
:104D630070137408120DBC12575DFAEE241D125114
:104D7300EAF9120E0B8E828F83A3A3A3A3A3A3A38B
:104D8300A3A3E0C0E07408120DBC12499FD0E0F069
:104D93007408120DBC124993E50AF07408120DBC95
:104DA3001255E52428F582E439F583E50CF0A3E5F3
:104DB3000D124EEBFAA3E0FBE8242A124F05240F51
:104DC3001251EA124EFE24171251EAC0E0E82433CE
:104DD300F582E439F583D0E0F0124E75C0E0740833
:104DE300120DBC124E94D0E0F0EE241A1251EAC018
:104DF300E07408120DBC126460124E5238F583D071
:104E0300E0124EE3122C8D120AB1126B0A123E000D
:104E1300740B120DBC125EBE121C757403120A923F
:104E2300EE24151251EA5440601290034E125607B5
:104E3300600AAA18AB19126B3C12076AAA18AB19BD
:104E4300121093740C120DBCE0F9740D022CF024B3
:104E530032F582E422E82420F582E439F583222422
:104E63001EF582E439F58322E82412F582E439F54C
:104E73008322EE241B124EF6225480F8A3E0540141
:104E8300F974806822124E8C22E0F50CA3E0F50D34
:104E9300221264AE2434F582E438F583221264AE20
:104EA300124EAA38F583222415F582E4221255E91D
:104EB300124A6539F58322F5831245DBEE22F5822A
:104EC300E439F583EAF0A3EBF022F0EE2419F5823E
:104ED300E43FF58322F0EE241CF582E43FF58322C0
:104EE300F0EE2413124EF622F0EE240D124EF622AB
:104EF300EE240FF582E43FF583E022FAA3E0FBE81A
:104F0300242CF582E439F583EAF0A3EBF0EE22F0EA
:104F13008A828B83E022F0EE2415124EF622F0856E
:104F2300188285198322E0D2E3126D28124F3322AF
:104F3300851882851983E8F0A3E9F02274F7120536
:104F4300957E638A828B83E0600C7905121135E9C3
:104F5300F87456C398FE900366E0600CF91211359D
:104F6300E9F8EEC39824F2FE024A5C74F612059542
:104F730074FE120B5C851882851983124EC7E9FEF5
:104F8300ECFAEDFB90052C1256076035A818A91909
:104F9300880889097808120AB57D01740E120DBCC0
:104FA300E0FCEEF990052C12645412076A740212A5
:104FB3000A928B09EA450960047900800679B28078
:104FC3000279B602487474F7120595E9FE90032836
:104FD300125607601F7409120DBCE0F50878081219
:104FE3000AB9EEF990032812645412076A74011285
:104FF3000A92800279B6024A8374F71205958908EA
:10500300ECFEEDFF79B5E508245F600C1460311404
:10501300601224F86045804E90031B12506CE8F038
:10502300A3E9801990052E1245DF603A90052E12F0
:10503300645412076A8E828F83EAF0A3EBF0802414
:1050430090032A123E00EC4D601CEEFCEFFD900332
:105053002A12645412076AE9F9800B900326126737
:1050630071121E197900024A831245DB8E828F83E7
:105073002274F7120595E979B5245F600624F6607A
:105083000E80178C828D831250A01259EF800990E5
:1050930003261256F0121E197900024A831245DBC9
:1050A30090031B2274F21205958A088B09ECFEED1E
:1050B300FF750A0190036EE065087004A3E06509BB
:1050C300701412128B8A088B09AC08AD09EEFAEF43
:1050D300FB121E19802A1212978A0C8B0DE50865A4
:1050E3000C7004E509650D7009EEFAEFFB12129DD1
:1050F300800EEEFCEFFDAA08AB09122395E9F50A31
:10510300A90A022CF374F2120595EAFEEBFF8C0850
:105113008D09750A0112128B8A0C8B0DAC0CAD0D27
:10512300EEFAEFFB121E13E96401700B90036E128B
:10513300514A1259EF800EAC08AD09EEFAEFFB129B
:10514300238FE9F50A80B912514E22126925850889
:10515300828509832274F6120595EAFEEBFF7A0D28
:105163007B00121D29EA4B6070EE2424126D4AF075
:10517300EE2425126D4AA3125206126D50A3A312F8
:105183006B511251EEF0EE125B901245D78A828B6F
:1051930083A3A3A3A3E8F0A3E912521D1251F712AC
:1051A30059EFEE242EF582E43FF5831251EEA3A3CB
:1051B300A3A3A3F0EE24331251EAC0E01251DFD0CF
:1051C300E01269391251F7A3A3A3E8F0A3E912523D
:1051D30015C0E0125776D0E0F0024879EA125B8AF4
:1051E3003BF58322EE240C124EF622E08A828B8357
:1051F300A3A3A322F8A3E0F98A828B83A3A3A3A387
:10520300A3A322F012520B22EE2426F582E43FF5EB
:105213008322F0EE2432124EF622F0EE242C124EAC
:10522300F62274F412059574FE120B5CECFEEDFF8E
:10523300EE24161251EA64057010EE2406FCE43FD6
:10524300FD12100FE970030252D2AC18AD19126CA3
:105253001312214F851882851983125607606C8EAD
:10526300828F83E064017059E875F009A4F8AAF00D
:1052730075F009E9A42AF9745028F8740839F9E893
:10528300FAE9FB8A828B837808120D4D126B2C7816
:1052930008120CF14027851882851983124EBC121F
:1052A30053951252D77808120D4D90808B780812BF
:1052B3000C158A828B837808120D3E800A79A280AE
:1052C30010EE240F1259E97900800679A180027942
:1052D300C80235EC124F39126B302274F012059567
:1052E3008A088B09ECFEEDFF125394E4F0A3F090CF
:1052F3008083780C120D4D126B2C780C120B877077
:105303000302538CEE240E1251EA6401703678B313
:10531300900365E0702A900397E064017022EE2405
:10532300111251EAF912111D8A088B09A808A9095B
:10533300EE240F1259E9E84960047800800278A14D
:10534300880A8048E07017121021E9F50A603D8E43
:10535300828F83A3A312539C5403700E802E640286
:105363007015121021E9F50A6022EEFCEFFDAA0880
:10537300AB091221618008E064037008121021E96F
:10538300F50A8008750AA18003750AA3A90A023FDA
:1053930062EE124A653FF58322A3A312628A227446
:1053A300F012059574F5120B5CEAFEEBFFEE240A8E
:1053B300F508E43F850882F5831255D51255A97483
:1053C30003120B268E828F831256F012100FE97090
:1053D300030254917401120B267403120B1E122143
:1053E3004F7401120DBC1256077003025491E875F5
:1053F300F009A4F8AAF075F009E9A42AF9744C2875
:10540300F8740839F9E8FCE9FD127031E4F004128C
:105413000DBC1245D7E508124A6135091259ED8CC6
:10542300828D83120DA51255B5120D8D90808B7848
:1054330008120D4D8C828D837808120C878C828D17
:10544300837808120D4D90806B780C120D4D7808FF
:10545300790C120526E50C450D450E450F702F748A
:1054630001120DBC1255E575F009A4F8AAF075F008
:1054730009E9A42AF9745428F582740839F5837468
:1054830001F07A007B08901933E0F9121CD512550C
:10549300BDE02406FCA3E03400FD8E828F83125608
:1054A300F012100F8508828509831255FC70521281
:1054B3005731121E13E9701D12128B8A088B09AC27
:1054C30008AD099003261256F0121E13E970061256
:1054D30010B7E9602C8E828F83123DF68E828F8304
:1054E3001256F0122167E960138E828F83A3A312F1
:1054F3006458124A6138F583E4F0A3F01259C6E404
:10550300F01255EE600302559C8E828F83A3A3A3F2
:10551300A3A3A31255D1900365E07072900397E0A3
:105523006401706A750A3A750B00780A120AB57439
:1055330002120B16880A890B780A120AB57C017DC0
:10554300007A007B001214597404120A92E9703B2A
:105553001270317401124F21E0C0E0E508241112EA
:10556300708DD0E0F01255A1743A12561790035083
:10557300120DA51255B5120D8D90808B7808120D62
:105583004D9003507808120C8780031255A91255C9
:10559300EE7006125E0874A1F0740B023F5FE5081B
:1055A300240F12416522E508240F124165E4F0A39C
:1055B300F022E508241212416522EE240A1255C88E
:1055C3008882F58322F8E43FF98808890922A3A396
:1055D300A3A31255D922E0F508A3E0F509228C8292
:1055E3008D831255E922126925E8228E828F83A3C7
:1055F300A3A3A3A3A3A3A3A3A31264AE240FF5821F
:10560300E438F5831255E949221264AE124A65382B
:10561300F5837404F0A3E4F02274F6120595EAFE10
:10562300EBFFEE240A1255C87A187B00121D298558
:105633000882850983EAF0A3EB125771E8497003E6
:105643000256DDEEFAEFFB12102D1255EE607412C6
:10565300574F64018E828F83A3A3A3A3A3A37007D1
:10566300125721740E8020125607700F12573112F1
:105673001E13E970061210B7E96007125717740D6D
:1056830080051257177405126939540364017007B2
:105693001257007405800B900366E0C0E0125700B8
:1056A300D0E0125762F5838882A3E0F912113585A1
:1056B30008828509831264602417F582E438F58330
:1056C300E9801A8508828509831256F0121D2F85F9
:1056D3000882850983E4F0A3800312643FF0024843
:1056E300798E828F83A3A3A3A3A3A3A3A31256FAA2
:1056F30022A3A3A3A3A3A3E0FAA3E0FB228E828F9A
:1057030083A3A3A3A3A3A3A3A312571022A3A31208
:105713005E21A3228E828F83A3A3A3A3A3A3A3A308
:10572300A3A31264AE2416F582E438F58322900312
:1057330026123E048E828F83A3A3A3A3A3A3A3A3B2
:10574300A3A3E02406FAA3E03400FB228E828F8316
:10575300A3A3A3A3A3A3A3A3A3A31259D8E0221291
:1057630057662212576A22126E15F8A3E0221257C7
:1057730066F922EA1247FF3BF5832274F11205957D
:105783008A0A8B0B8C088D097A187B00121D298AD3
:105793000C8B0DAE0CAF0DEE4F70030258B312120B
:1057A300918A0C8B0DA80CA90DE5082415126E0C1B
:1057B300687003A3E0698E828F8370047402800291
:1057C3007401F0E508240DF8E43509F9888289832A
:1057D300E0FAC3E49AFA95E0FBE5081244103509B0
:1057E300124467FB8E828F83A3A3A3A31260898EC7
:1057F300828F83A3A3F0EEFAEFFB1210E7850882F2
:105803008509831258BA70098E828F83A374058029
:1058130006900366123F44F0EE2417F8E43FF9883C
:105823000C890D8E828F83A3E0F9121135E9850C63
:1058330082850D83F0EE2416F8E43FF9E508240E83
:10584300FAE43509FB88828983126470E508241021
:10585300FAE43509FB850C82850D83E0FC88828997
:1058630083E0F88A828B83E0C398C39CF81245EEE9
:10587300F0EEFCEFFDAA0AAB0B121027E9F5088E38
:10588300828F83E06402701112128B8A0A8B0BAC35
:105893000AAD0B126C13121E19E508700AEEFAEF2B
:1058A300FB1210F3E9F508EEFAEFFB121D2F80034C
:1058B300750810A908800BE05403640122740D12CB
:1058C3000A927F070208097901020A7A74F4120521
:1058D30095EAFEEBFF8E828F831264582424F582AF
:1058E300E438F5831258BA702A12574F70251259AB
:1058F300B3E06405701D1259B3A3E0F87401686046
:105903000574066870071259C6740280051259C6D9
:105913007403F01255BD126454E4F0EE24081259D6
:105923008F2431F582E43AF583E0C0E012599DD02B
:10593300E012608DFAA3E0CA242EF582E43AF583DF
:10594300E0C0E012599DA3D0E012608DF8A3E0C837
:10595300125B8638F58312514A1259AD1259EF1270
:10596300128B8A0A8B0BAC0AAD0B850882850983DF
:10597300E02406126066121E1985088285098312C7
:1059830056F01210F3126518F00235F1F8E43FF9FE
:1059930088828983E0FAA3E0CA2285088285098385
:1059A3001259A722126429A3A3221259A7A3A3223F
:1059B3008E828F83A3A3A3A3A3A3A3A3125EC51263
:1059C3005E1D228E828F83A3A3A3A3A3A3A3A3A35A
:1059D300A31259D8221260A3C812441438F58322A3
:1059E3001245DBEE240BF582E43FF583124F392297
:1059F3000258CAC082C0839003447433F0A3741066
:105A0300F0900346743FF0A37410F090034874457C
:105A1300F0A37410F090034A7439F0A37410F002E9
:105A23005D0474F4120595EA2408FCE43BFD125569
:105A3300E12424125B7DFE74035EF509125B853954
:105A4300124EBA88828983F0A3A882A983E50960EC
:105A530009740265096003025AF1740C5EF508606B
:105A6300177408650860117404650870137402657F
:105A7300097005EEA2E4402C125BB02427125BF5FB
:105A8300740C65087018125BA22428125BDAFCA35D
:105A9300E0CC2428F582E43CF583A3125BFB74027B
:105AA30065097005EEA2E44045125BA2242A125B4D
:105AB300DAFFA3E0CF125B90A3125BFB125BA62479
:105AC3002C125C0A242CF582E43CF583A3125BFBC5
:105AD300E508601274086508600C740C65086006BC
:105AE300740465087008125BB02426125BF5125B20
:105AF300B0125B717015EEA2E14010125BB0241E70
:105B0300F582E43CF583E054806008125BC2125BCB
:105B13009D801A90031AE0C0E0125BC2D0E0F090BF
:105B2300031A125B9D90031AE004126092A3A882E9
