:020000040000FA
:10000000020037C09FF59FE473D09F22D083D08237
:10001000C09FE493C0E0740193C0E0740293F59F25
:1000200022758278758300740012000375824F7503
:100030008300740012000375D00075813F759F0026
:1000400002002112000C54000012000C630000009A
:10005000000080FB43FE0143F40153F5EE43F14001
:1000600002000975DAFF75DB7F75DE0075DF00754C
:10007000E73443E40F02000912004312004980FEF6
:0400000500000037C0
:00000001FF
